:100000000C94D0020C9401030C9401030C94010392
:100010000C9401030C9401030C9401030C94010350
:100020000C9401030C9401030C9401030C94010340
:100030000C9401030C9401030C9401030C94010330
:100040000C9401030C9401030C9401030C94010320
:100050000C9401030C9401030C9401030C945E288E
:100060000C9401030C94D2280C94A8280C9401033E
:100070000C9401030C9401030C9401030C940103F0
:100080000C9401030C9401030C9401030C940103E0
:100090000C9401030C9401030C9401030C940829A3
:1000A0000C9401030C9401030C9401030C940103C0
:1000B0000C9401030C9401030C9401030C940103B0
:1000C0000C9401030C9401030C9401030C940103A0
:1000D0000C9401030C9401030C9401030C94010390
:1000E0000C940103084AD73B3BCE016E84BCBFFD94
:1000F000C12F3D6C74319ABD56833DDA3D00C77FF8
:1001000011BED9E4BB4C3E916BAAAABE0000008090
:100110003F000C946B030C944A040C9482080C94DA
:1001200083050C94F3120C9458030C947C080C94E3
:1001300068040C94C00A0C9442080C949D0A0C9418
:1001400054030C9461030C941D040C948B030C94C5
:10015000BB050C9436340C94CB0D0C949C2A0C9457
:100160003A030C94491E0C947A080C9403030C94E3
:10017000F3040C942F050C94F9120C9454040C9471
:1001800065030C9482140C944C030C947C040C9422
:1001900087030C94F7120C9431040C94AD0A0C9460
:1001A000C7140C94EE0E0C94CA0D0C94981E0C946B
:1001B0005E040C947D030C9481030C9474060C94DF
:1001C000C70A0C9450080C949E0A0C940D040C94CD
:1001D00062080C9472040C9438080C9435030C9447
:1001E00075050C9450030C9479030C946F030C94D4
:1001F0005B030C94F40A0C94370B0C94E5030C94F9
:100200008C080C9423060C943B040C94E31E0C9471
:1002100073030C94EA030C9403040C94AE160C9430
:1002200015040C94F5120C9427040C94A0080C945B
:100230009A080C9404030C9420050C94F9030C9474
:10024000EF03526561636865642076696374696D64
:1002500020706F736974696F6E206163637572617A
:1002600074656C792E005374657020343A204669A9
:100270006E616C20617070726F61636820746F20B2
:100280007461726765742064697374616E6365007C
:100290005374657020333A2052652D616C69676E26
:1002A000696E67005374657020323A20416E676C46
:1002B000696E6720617761792066726F6D2076695B
:1002C0006374696D005374657020313A204472691B
:1002D00076696E67206261636B202874617267655E
:1002E00074202B203130290044726976696E6720B2
:1002F0006261636B20746F2074617267657420643F
:10030000697374616E63653A20004572726F723A68
:10031000204E6F20686973746F727920666F722047
:10032000746869732074696D657374616D70210000
:100330002054696D653A0020547970653A00566919
:100340006374696D2056616C696461746564212011
:10035000536964653A0000000000000000000000DE
:10036000000000000000000000000000000001018B
:100370000101010101010101010102020202020267
:100380000202030303030303040404040505050533
:1003900005060606060707070808080909090A0AE4
:1003A0000A0B0B0B0C0C0D0D0D0E0E0F0F10101178
:1003B00011121213131414151516161718181919EB
:1003C0001A1B1B1C1D1D1E1F1F202122222324253A
:1003D00026262728292A2A2B2C2D2E2F303132335E
:1003E0003435363738393A3B3C3D3E3F4041424454
:1003F00045464748494B4C4D4E505152545556581E
:10040000595A5C5D5E606163646667696A6C6D6FB2
:100410007072737577787A7C7D7F81828486888913
:100420008B8D8F91929496989A9C9EA0A2A4A6A838
:10043000AAACAEB0B2B4B6B8BABCBFC1C3C5C7CA25
:10044000CCCED1D3D5D7DADCDFE1E3E6E8EBEDF0D3
:10045000F2F5F7FAFCFF00002100240027002A0033
:100460002D003000330001010000040107010A01E2
:1004700000000A0B02090C0D0E080703040100001E
:10048000000000000000000000000000000000006C
:100490000000000000000000000000001211100029
:1004A000000000000000000000000000000000004C
:1004B00000000000000000002000230026002900AA
:1004C0002C002F0032000001000003010601090189
:1004D0002054696D653A0020547970653A00566978
:1004E0006374696D2056616C696461746564212070
:1004F000536964653A00010210202008081020406A
:1005000010204080020102010804020101020408D7
:100510001020408080402010080402018004020165
:1005200080402010080402010804020101020408AE
:1005300010204080010204081020408000002200AA
:10054000250028002B002E0031003400020100009D
:10055000050108010B010505050507050808080840
:10056000020202020A0A080804040404010101014B
:100570000101010103030303030303030407070746
:100580000C0C0C0C0C0C0C0C0202020206060606EB
:10059000060606060B0B0B0B0B0B0B0B9C2A3634BB
:1005A00011241FBECFEFD1E2DEBFCDBF00E00CBFF4
:1005B00014E0A0E0B2E0E8E2F7E700E00BBF02C021
:1005C00007900D92A230B107D9F72DE0A2E0B4E078
:1005D00001C01D92AC37B207E1F712E0CFECD2E0D8
:1005E00000E006C021970109802FFE010E945D3ABC
:1005F000CE3CD10780E00807A9F70E94822D0C9419
:10060000823B0C94000008950895282F30E0F901F2
:10061000E059FB4F9491F901EA50FB4F44912A5A5B
:100620003A4FF9012491222309F435C0992311F19D
:1006300091509231F8F4E92FF0E08827ED5DFC4FFE
:100640008F4F0C945D3A5403580335034C03500309
:100650003A035B03610365036B036F037303790361
:100660007D033A03810387038B03809180008F779A
:1006700080938000E22FF0E0EE0FFF1FE45CFA4F62
:10068000A591B4918FB7F894EC91611148C0409551
:100690004E234C938FBF0895809180008F7DE8CFCB
:1006A00080918000877FE4CF84B58F7784BDE2CFCF
:1006B00084B58F7DFBCF8091B0008F778093B000A1
:1006C000D9CF8091B0008F7DF9CF809190008F7746
:1006D00080939000CFCF809190008F7DF9CF809153
:1006E0009000877FF5CF8091A0008F778093A00046
:1006F000C1CF8091A0008F7DF9CF8091A000877F2E
:10070000F5CF809120018F7780932001B3CF809126
:1007100020018F7DF9CF80912001877FF5CF4E2B6F
:10072000B8CFCF93DF9390E0FC01EA50FB4F2491C8
:100730008A5A9A4FFC0184918823D1F090E0880F67
:10074000991FFC01EA5AFB4FA591B491FC01E45CAE
:10075000FA4FC591D49161110EC09FB7F8948C9156
:10076000E22FE0958E238C932881E223E8839FBFBC
:10077000DF91CF9108958FB7F894EC91E22BEC9331
:100780008FBFF6CF982FE82FF0E0E059FB4FE491B0
:10079000E150E23108F0B0C0F0E08827ED52FC4FA4
:1007A0008F4F0C945D3AE503EA03EF03F90303046A
:1007B0007C040D0415041D04270431043B044A0481
:1007C00054047C045E046804720484B5806884BDAB
:1007D00067BD089584B5806284BD68BD0895809129
:1007E0008000806880938000709389006093880007
:1007F00008958091800080628093800070938B00C8
:1008000060938A00089580918000886080938000C2
:1008100070938D0060938C0008958091B000806883
:100820008093B0006093B30008958091B00080621F
:100830008093B0006093B400089580919000806828
:100840008093900070939900609398000895809130
:10085000900080628093900070939B0060939A0058
:1008600008958091900088608093900070939D001F
:1008700060939C0008958091A00080688093A00000
:100880008091A0008F7B8093A0007093A90060935B
:10089000A80008958091A00080628093A0007093CA
:1008A000AB006093AA0008958091A00088608093B7
:1008B000A0007093AD006093AC000895809120017A
:1008C0008068809320017093290160932801089526
:1008D0008091200180628093200170932B016093AE
:1008E0002A010895809120018860809320017093EF
:1008F0002D0160932C0108956038710524F460E0A7
:10090000892F0C94050361E0FBCF8230910538F00C
:10091000880F991F880F991F05970197F1F7089580
:100920003FB7F89480917B0490917C04A0917D0462
:10093000B0917E0426B5A89B05C02F3F19F0019603
:10094000A11DB11D3FBFBA2FA92F982F8827BC0129
:10095000CD01620F711D811D911D42E0660F771F51
:10096000881F991F4A95D1F708958F929F92AF9251
:10097000BF92CF92DF92EF92FF924B015C010E94F7
:1009800090046B017C010E9490046C197D098E0912
:100990009F09683E734081059105A8F321E0821A02
:1009A0009108A108B10888EEC80E83E0D81EE11CAA
:1009B000F11C81149104A104B10429F7FF90EF9078
:1009C000DF90CF90BF90AF909F908F9008952FB7FA
:1009D000F8946091770470917804809179049091F3
:1009E0007A042FBF0895AF92BF92CF92DF92EF9219
:1009F000FF920F931F93CF93DF936C017B018B01C9
:100A0000040F151FEB015E01AE18BF08C017D10718
:100A100059F06991D601ED91FC910190F081E02DA2
:100A2000C6011995892B79F7C501DF91CF911F91E7
:100A30000F91FF90EF90DF90CF90BF90AF9008950F
:100A4000FC01538D448D252F30E0842F90E0821BD4
:100A5000930B541710F0CF96089501970895FC0159
:100A6000918D828D981761F0A28DAE0FBF2FB11DB1
:100A70005D968C91928D9F5F9F73928F90E0089509
:100A80008FEF9FEF08950F931F930E94E7046093E9
:100A9000E2047093E3048093E4049093E5048AED08
:100AA00094E00E942F0597FF1DC00E94E70400916B
:100AB000E2041091E3042091E4043091E504601B0A
:100AC000710B820B930B0091DE041091DF042091D7
:100AD000E0043091E1046017710782079307F8F290
:100AE0008FEF9FEF1F910F910895FC01918D828DE3
:100AF000981731F0828DE80FF11D858D90E00895F3
:100B00008FEF9FEF0895FC01918D228D892F90E04A
:100B1000805C9F4F821B91098F73992708958AEDFE
:100B200094E00E94830521E0892B09F420E0822FC4
:100B30000895FC01A48DA80FB92FB11DA35ABF4F72
:100B40002C91848D90E001968F739927848FA689CC
:100B5000B7892C93A089B1898C91837080648C9320
:100B6000938D848D981306C00288F389E02D8081CF
:100B70008F7D80830895EF92FF920F931F93CF9301
:100B8000DF93EC0181E0888F9B8D8C8D98131AC0C8
:100B9000E889F989808185FF15C09FB7F894EE89AF
:100BA000FF896083E889F98980818370806480830C
:100BB0009FBF81E090E0DF91CF911F910F91FF9057
:100BC000EF900895F62E0B8D10E00F5F1F4F0F73FF
:100BD0001127E02E8C8D8E110CC00FB607FCFACFBA
:100BE000E889F989808185FFF5CFCE010E949905BA
:100BF000F1CFEB8DEC0FFD2FF11DE35AFF4FF0828B
:100C00009FB7F8940B8FEA89FB8980818062CFCFF0
:100C10000F931F93CF93DF938C01D0E0C0E0F801D6
:100C2000EC0FFD1F6491662341F08AED94E00E9471
:100C3000BB05892B11F02196F2CFCE01DF91CF9128
:100C40001F910F910895CF93DF93EC01888D882336
:100C5000B9F0AA89BB89E889F9898C9185FD03C01F
:100C6000808186FD0DC00FB607FCF7CF8C9185FF04
:100C7000F2CF808185FFEDCFCE010E949905E9CFAB
:100C8000DF91CF91089580E090E0892B29F00E94B8
:100C90008F0581110E94000080E090E0892B49F0CF
:100CA00080E090E0892B29F00E94000081110E94D1
:100CB000000080E090E0892B49F080E090E0892BF3
:100CC00029F00E94000081110E94000080E090E065
:100CD000892B49F080E090E0892B29F00E940000E8
:100CE00081110C940000089508958F929F92AF9205
:100CF000BF92CF92DF92EF92FF921F93CF93DF9339
:100D0000FC018281938168177907A8F54A01AA241A
:100D1000BB24C82DC32ED42EE52EFF241C2DD22F8C
:100D20008085882361F0889E40011124C92D8C9D07
:100D3000600111241D2D829FD0011124DB2FA68577
:100D4000E184F2849385A91322C0CB01880F991FF7
:100D5000680F791F6E0D7F1DA385A60FB72FB11DDC
:100D6000CC93A485A60FB72FB11D1C938585680F62
:100D7000711DFB01D083DF91CF911F91FF90EF9008
:100D8000DF90CF90BF90AF909F908F900895660FA7
:100D9000771F660F771F6E0D7F1D252F3327442782
:100DA0005527882349F090E0829F7001839FF00CC3
:100DB000929FF00C11242F2DA60FB72FB11D2C934D
:100DC000CBCFCF92DF92EF92FF920F931F93CF93EF
:100DD000DF9300D000D000D0CDB7DEB78C01DC01AE
:100DE00019968D919C91892B09F473C00E949004EF
:100DF000F801C784D088E188F2886C157D058E05DE
:100E00009F0520F46787708B818B928BF801C784D4
:100E1000D088E188F2886C197D098E099F096C32AF
:100E200071408105910510F3F894D80114968D91C5
:100E30009C9115979A8389831996ED91FC917F0176
:100E4000BFEFEB1AFB0A80818987F8019081038844
:100E5000F489E02DD80155968C91992309F448C066
:100E60009081982B98879081809589238F838F819B
:100E70008C8388E08B8358856F8149853B812C81E9
:100E800089819A81D701508347FD252F3A95208388
:100E9000262F39F0441F00C000006083000000C00E
:100EA000F2CF38E04D9160830000019761F7D801DF
:100EB0005496FC93EE93539749873B832C839A83F4
:100EC000898378940E949004F8016787708B818BE6
:100ED000928B29960FB6F894DEBF0FBECDBFDF917F
:100EE000CF911F910F91FF90EF90DF90CF900895D9
:100EF0009081982B98879081809589238F838F810B
:100F00008E8388E08D8358856F8149853D812E8150
:100F100089819A81D701508347FD252F00C000C0E9
:100F2000208300C000C000C000C000C0608300007B
:100F3000262F3A9541F0441F000000C000C000C0B9
:100F400000C000C0E8CF38E04D9100C0608300C011
:100F5000019709F7D8015496FC93EE93539749876C
:100F60003D832E83ACCF0F931F93CF93DF93EC0180
:100F70008B0188859985029751F46130710509F4D8
:100F80003AC06CF560E00115110509F435C088859B
:100F90009985049751F40130110509F455C00CF0FE
:100FA00035C00115110509F43EC08885998505975E
:100FB00009F0C8C00A30110508F0C4C0F80188273C
:100FC000EB51F84F8F4F0C945D3A380842085008A7
:100FD00062087A087C0882088C089A08A0086230A7
:100FE000710591F060E00330110589F68C850E944F
:100FF000050360E005C061E08C850E94050361E0A7
:101000008E850E940503C3CF61E0F0CF0230110549
:1010100009F10330110509F0C8CF61E08C850E9409
:10102000050360E01CC061E08C850E94050360E060
:101030008E850E94050361E088890E94050360E0B7
:101040008A890E940503B1CF60E08C850E94050368
:1010500061E0EECF60E08C850E94050361E08E8543
:101060000E94050360E088890E94050361E0E8CFE3
:1010700060E08C850E94050361E08E850E94050377
:1010800061E009C060E08C850E94050361E08E8507
:101090000E94050360E088890E94050360E00DC09E
:1010A00060E08C850E94050361E08E850E94050347
:1010B00060E088890E94050361E08A890E94050337
:1010C00061E011C060E08C850E94050361E08E85BF
:1010D0000E94050360E088890E94050361E08A8917
:1010E0000E94050360E08C89DF91CF911F910F91E1
:1010F0000C94050361E0E7CF61E08C850E94050355
:1011000060E0E5CF61E08C850E94050360E08E859C
:101110000E94050361E0DFCF61E08C850E9405033A
:1011200060E08E850E94050361E088890E940503C6
:1011300060E0D5CF61E08C850E94050360E09DCF23
:1011400060E0F9CFDF91CF911F910F9108954F92F9
:101150005F926F927F928F929F92AF92BF92CF9247
:10116000DF92EF92FF920F931F93CF93DF93EC01E7
:101170008B0177FF04C000271127061B170B1616DB
:1011800017060CF04AC081E090E09983888384E0E0
:10119000E82EF12C9AE0C92ED12C0115110509F485
:1011A0004EC00E9490048E889F88A88CB98C2B0119
:1011B0003C01481859086A087B088A809B80AC80EB
:1011C000BD80481459046A047B0438F36E8B7F8B0E
:1011D000888F998F8A859B852881398121303105B7
:1011E00011F501969B878A872E813F81821793078D
:1011F00011F41B861A86015011098A859B85288562
:101200003985B6012530310509F0B7010E94493A08
:10121000BC01CE010E94B307C0CF672B09F4B7CF42
:1012200019821882B4CF892B21F48E819F819B87EC
:101230008A878A859B8501979B878A87DCCFDF9188
:10124000CF911F910F91FF90EF90DF90CF90BF90C3
:10125000AF909F908F907F906F905F904F90089588
:1012600020914B04260F3327331F21323105ECF434
:101270002091B004FC0190E080E0243069F082E02D
:101280000895A0914B042191AC01455D5B4FA40FE3
:10129000B52FB11D2C930196861798F380914B04BE
:1012A000680F60934B0480E0089581E008951092E8
:1012B000B00481E08093AF0410928A0461E084E17D
:1012C0000E94050361E085E10E940503E9EBF0E07F
:1012D00080818E7F808380818D7F808388E480936E
:1012E000B80085E48093BC000895109289041092A0
:1012F00088041092B7041092D9040E94570983E021
:1013000093E0909387048093860484E093E0909325
:101310008504809384040895CF93DF9391E09093A4
:101320002A048823B9F0C091B800D091BA00809106
:10133000BC008A7B8093BC0060E084E10E940503CE
:1013400060E085E10E9405030E945709D093BA002E
:10135000C093B800DF91CF9108958F929F92AF9282
:10136000BF92CF92DF92EF92FF920F931F93CF9392
:10137000DF93D091D904D13208F0D7C0182FC09193
:10138000D8040E9490046B017C018091B00481110B
:101390006BC082E08093B0041093AF048FEF809312
:1013A000AE041092AD04D093AC04A8EBB4E0ECE82A
:1013B000F4E080E0D81391C010928B0480918B04EC
:1013C000CC0FC82BC0938B0480918A04813009F024
:1013D00088C010928A040E9490046B017C01809165
:1013E0008B048093BB008091B2049091B304A091D0
:1013F000B404B091B504892B8A2B8B2BA1F00E94E9
:1014000090040091B2041091B3042091B40430917F
:10141000B5046C197D098E099F090617170728075F
:10142000390708F442C08091BC0083FDD8CF85EC19
:101430008093BC000E9490046B017C018091B004F9
:10144000823009F450C08091AE048F3F09F46FC020
:101450008091AE04803209F46CC08091AE04803378
:1014600009F469C084E026C08091B2049091B3046D
:10147000A091B404B091B504892B8A2B8B2B09F46D
:1014800084CF0E9490048090B2049090B304A09006
:10149000B404B090B5046C197D098E099F098616B5
:1014A0009706A806B90608F070CF8091B1040E9493
:1014B0008C0985E01092B7041092D9041092B604FA
:1014C000DF91CF911F910F91FF90EF90DF90CF9020
:1014D000BF90AF909F908F9008959D9191938F5F53
:1014E00069CF85EEA5CF8091B2049091B304A0910D
:1014F000B404B091B504892B8A2B8B2B09F49ECFB1
:101500000E9490040091B2041091B3042091B4049D
:101510003091B5046C197D098E099F0906171707CC
:101520002807390708F08ACFC0CF81E0C3CF80E019
:10153000C1CF82E0BFCF83E0BDCF0895E0918904A1
:1015400080918804E81730F4F0E0E65FFB4F80817B
:1015500090E008958FEF9FEF089590918904809116
:1015600088042FEF3FEF981748F4E92FF0E0E65F8B
:10157000FB4F208130E09F5F90938904C90108955B
:101580008091880490918904891B990B0895CF92CA
:10159000DF92EF92FF920F931F93CF93DF937C0123
:1015A000CB018A012091B604222389F0EB016B0163
:1015B000C40ED51ECC15DD0569F06991D701ED91FA
:1015C000FC910190F081E02DC7011995F3CF642FB4
:1015D0000E943009C801DF91CF911F910F91FF90B8
:1015E000EF90DF90CF900895CF93DF931F92CDB708
:1015F000DEB769832091B6042223F9F02091D90443
:10160000203258F021E030E0FC013383228390E067
:1016100080E00F90DF91CF9108958091B704E82F7B
:10162000F0E0E854FB4F998190838F5F8093B7047B
:101630008093D90481E090E0ECCF61E0CE01019687
:101640000E943009F7CFFC01248131E03093B604C9
:101650002093D8041092B7041092D9048485682B83
:1016600087E795E00E94F40A81E00C94AD0990E0D0
:1016700080E00895FC0183858F3F19F061E00C94B0
:1016800005030895FC0180819181892B39F0A281A5
:10169000B3819C9111968C919CBD8DBD83858F3FAC
:1016A00019F060E00C9405030895BF92CF92DF9289
:1016B000EF92FF920F931F93CF93DF93EC018881FA
:1016C0009981892B81F06EBD0DB407FEFDCF0EB55B
:1016D000802FDF91CF911F910F91FF90EF90DF90BE
:1016E000CF90BF9008958885998511E0892B09F0E6
:1016F00010E8BB24B394862F812309F0B12CF62E79
:101700002C813D814E815F8160E271EA87E090E04B
:101710000E949137E22E00E0C22ED12CEE2019F06B
:10172000C6010E9485048A85982F977F09F044C0DE
:101730008D858F3F89F09F2D912381E009F480E012
:101740008B1551F0EF85F8898F89992379F1908174
:10175000892B8083BB24B394E989FA898081998D90
:10176000892B8083EE2019F0C6010E9485048E85A6
:101770008F3F39F0EB89FC898081988D892309F0AE
:10178000012BE989FA899081898D8095892380834D
:1017900088859985892B09F067C0110F1111BECF7B
:1017A0008E858F3F09F094CF0F2D92CF9081809539
:1017B00089238083B12CD0CF8C3099F58D858F3FD4
:1017C00049F0EF85F8898F899F2D912331F1908120
:1017D000892B8083E989FA899081898D8095892375
:1017E0008083EE2019F0C6010E948504E989FA89F8
:1017F0008081998D892B8083EE2019F0C6010E948B
:1018000085048E858F3F21F2EB89FC898081988D3C
:10181000892309F4BDCF012BBBCF9081809589230B
:10182000D8CFE989FA898081998D892B8083EE2030
:1018300019F0C6010E9485048D858F3F49F0EF8520
:10184000F8898F899F2D912359F09081892B80836E
:10185000E989FA899081898D809589238083D1CF08
:10186000908180958923F3CF169598CF8F929F9280
:10187000AF92BF92CF92DF92EF92FF920F931F939E
:10188000CF93DF937C014B016A01B22EA32E0E94FD
:10189000420BE401C80CD91CCC15DD0569F4CB2D35
:1018A000DA2D0C0F1D1FC017D10759F06FEFC701BC
:1018B0000E94550B8993F7CF6991C7010E94550B80
:1018C000EBCFC7010E943A0B81E0DF91CF911F91CE
:1018D0000F91FF90EF90DF90CF90BF90AF909F90CF
:1018E0008F9008958F929F92AF92BF92CF92DF9286
:1018F000EF92FF920F931F93CF93DF937C01B62E4D
:10190000A72E6A0149010E94420BE401080D191D2E
:10191000C017D10761F4CB2DDA2DCC0EDD1ECC150E
:10192000DD0551F06991C7010E94550BF8CF69910F
:10193000C7010E94550BECCFC7010E943A0B81E012
:10194000DF91CF911F910F91FF90EF90DF90CF909B
:10195000BF90AF909F908F9008951F93CF93DF9388
:10196000EA01122FDC0111968D919C91DC01ED9121
:10197000FC910280F381E02D1995C817D90729F44D
:10198000812F0E94AD0991E0811190E0892FDF91B4
:10199000CF911F910895CF93DF93EC018B81882322
:1019A000A1F0888191E09093B6048093D8041092BE
:1019B000B7041092D90481E00E94AD0991E0811131
:1019C00090E0892FDF91CF9108950E94750981E001
:1019D0008B83CE010E94CB0C982F8111E2CFF1CFE7
:1019E000AF92BF92CF92DF92EF92FF920F931F932D
:1019F000CF93DF931F921F92CDB7DEB7DC01211189
:101A000003C01A962C911A97253008F043C05196BE
:101A10004D935D936D937C93549790E080E0E22E1C
:101A2000F12C8E159F05B4F41C962C911C97211156
:101A30000AC0FD01E80FF91F4587452F562F672F74
:101A400077270196EECFF701E81BF90BEA0FFB1F92
:101A50004487F3CF6D018DE0C80ED11C18969C9180
:101A6000189719968C91199799838A83AD90BC9099
:101A70001197A114B10409F441C01B960C9110E018
:101A800098012E0D3F1DD50114968D919C918217C2
:101A9000930710F480E016C0F501818192812081C6
:101AA00031E03093B6042093D8041092B70410921A
:101AB000D9040115110599F421E0A701B601C5016A
:101AC0000E94AD0C0F900F90DF91CF911F910F915D
:101AD000FF90EF90DF90CF90BF90AF900895DC0122
:101AE000ED91FC910280F381E02DA801BE016F5FB2
:101AF0007F4F19950817190769F6DECF1296ED91F9
:101B0000FC911397309749F116962D913C911797B8
:101B10001B960C9110E02330310571F48E7F898380
:101B20009A830F5F1F4F9E012F5F3F4FA701B601A2
:101B3000CF010E94720CC6CF2115310519F49F7791
:101B40009983F1CF2230310511F49068F9CF21301B
:101B5000310549F79F779064F3CF1496ED91FC918E
:101B60001597309709F496CF8085882309F492CF92
:101B7000A680B780A114B10409F48CCF8701960127
:101B80001B964C91BE016F5F7F4F81859285F50159
:101B9000199598CF089508950F931F93CF93DF93CE
:101BA000EC018A01888161157105D9F461E00E9418
:101BB000050360E08A810E940503CC8161E08C2FDF
:101BC0000E94910360E00115110521F00F3F1105FE
:101BD000B9F461E08C2FDF91CF911F910F910C949C
:101BE00005036130710529F460E00E94050361E09E
:101BF000E1CF6330710511F460E0D9CF61E0F5CF3A
:101C0000B8018C2FDF91CF911F910F910C94C203DB
:101C10000F931F93CF93DF93EC018B014CE350E0C4
:101C2000888199810E94CC0D4CE350E0B8018A81F3
:101C30009B810E94CC0D4CE350E0B8018C819D81CA
:101C40000E94CC0D4CE350E0B8018E819F81DF9162
:101C5000CF911F910F910C94CC0DCF93DF93EC019A
:101C60004CE350E063E070E0888199810E94CC0DE4
:101C70004CE350E063E070E08A819B810E94CC0DD0
:101C80004CE350E063E070E08C819D810E94CC0DBC
:101C90004CE350E063E070E08E819F81DF91CF9153
:101CA0000C94CC0DCF93DF93EC0161E088810E940E
:101CB000910361E08A810E94910361E08C81DF9150
:101CC000CF910C949103CF93DF93EC0161E0888175
:101CD0000E94910360E08A810E9491030E94E704C0
:101CE000C256DE4F688379838A839B83DF91CF91CD
:101CF00008950F931F93CF938C01C62F0E94230B3F
:101D00006C2F6460C8010E94230B6C2F6B7FC8018D
:101D10000E94230B83EC90E00197F1F7CF911F9184
:101D20000F9108950F931F93CF93DF938C01D62FBC
:101D3000C42F607F642B0E94790E80E1D89FB00190
:101D400011246C2BC801DF91CF911F910F910C943E
:101D5000790ECF93DF9300D000D01F921F92CDB7A2
:101D6000DEB728E0E7E0F2E0DE01119601900D9287
:101D70002A95E1F7FC012085261710F46FEF620F1A
:101D800070E0660F771F21E030E02C0F3D1F620FDF
:101D9000731FFB016081606840E028960FB6F894DD
:101DA000DEBF0FBECDBFDF91CF910C94920ECF93CB
:101DB000DF93EC0140E061E00E94920E8BE39FE133
:101DC0000197F1F78985882331F060E0CE01DF913A
:101DD000CF910C94A90EDF91CF91089541E00E941C
:101DE000920E81E090E008952F923F924F925F9281
:101DF0006F927F928F929F92AF92BF92CF92DF921B
:101E0000EF92FF920F931F93CF93DF9300D01F9217
:101E1000CDB7DEB7DC014B01042F18969C911897C3
:101E200019968C91199799838A832D903C901197DC
:101E30002114310409F43AC11B964C9150E0D101B0
:101E400014968D919C9184179507C8F4D12C8D2DF3
:101E50000F900F900F900F90DF91CF911F910F91E6
:101E6000FF90EF90DF90CF90BF90AF909F908F90BA
:101E70007F906F905F904F903F902F900895F10169
:101E8000808191E09093B6048093D8041092B704B7
:101E90001092D90420E0BE016F5F7F4FC1010E9404
:101EA000AD0CD82E882391F2802F90E09C838B83F9
:101EB000B12CA12C01E0AB81BC81AA16BB0638F67F
:101EC000F101848195817D01EA18FB088E159F053B
:101ED00008F47C01D101CC900E9490042B013C01BC
:101EE0008091B004811172C01E2D113208F010E2F1
:101EF0000093B00421E08B819C818E199F09A81664
:101F0000B90608F420E02093AF04BFEFB093AE040D
:101F10001092AD048FEF810F8093AC0400938B047B
:101F200080918B04CC0CC82AC0928B0480918A04C7
:101F3000813009F092C010928A040E9490042B0113
:101F40003C0180918B048093BB008091B2049091FE
:101F5000B304A091B404B091B504892B8A2B8B2BC8
:101F6000A1F00E9490042091B2043091B3044091FA
:101F7000B4045091B50464197509860997092617A8
:101F800037074807590708F442C08091BC0083FD19
:101F9000D8CFE5ECE093BC000E9490042B013C01FB
:101FA0008091B004813009F45CC08091AD04811748
:101FB00010F41091AD04ACE8B4E0EAE0F4E080E0A5
:101FC000811751F19D9191938F5FFACF8091B20467
:101FD0009091B304A091B404B091B504892B8A2BDD
:101FE0008B2B09F47DCF0E9490042091B204309194
:101FF000B3044091B4045091B5046419750986097D
:102000009709261737074807590708F069CF8091C5
:10201000B1040E948C0910E0109289041093880486
:102020001E151F0409F012CF34016A0C7B1C23011A
:10203000C201861997098E159F05A8F5D101119641
:102040008D919C91DC01ED91FC910284F385E02D52
:102050001995F20181932F01EBCFF5EEF093BC00BF
:102060009BCF8091B2049091B304A091B404B0913D
:10207000B504892B8A2B8B2B09F492CF0E949004F4
:102080002091B2043091B3044091B4045091B5044E
:1020900064197509860997092617370748075907EC
:1020A00008F07ECFB4CFAE0CBF1C05CF1296ED91D9
:1020B000FC911397309749F116962D913C91179703
:1020C00010E01B964C9150E02330310571F4816093
:1020D00089839A834F5F5F4F9401BE016F5F7F4F8B
:1020E000CF010E94360CD82EB2CE2115310519F43D
:1020F00090689983F1CF2230310511F49F77F9CFA1
:102100002130310549F7906CF4CF1496ED91FC9194
:102110001597309709F49ACE8085882309F496CED6
:10212000E480F580E114F10409F490CE10E09B0105
:102130001B964C91BE016F5F7F4F81859285F701A1
:102140001995D1CFCF93DF93EC01BC01635F7F4F33
:102150004A850E94F40E882301F14A8550E030E060
:1021600020E060E070E0CB0124173507CCF4982F15
:10217000872F762F6627EC85E1110AC0FA01E21B52
:10218000F30BEC0FFD1FE4856E2B2F5F3F4FECCF61
:10219000FE01E20FF31FE585F7CF6FEF7FEFCB0175
:1021A000DF91CF9108958F929F92AF92BF92CF927D
:1021B000DF92EF92FF920F931F93CF93DF93EC0187
:1021C0004A015B01888199810E94A2102A8101E065
:1021D00010E002C0000F111F2A95E2F7015011090B
:1021E000012E000C220B330BAB81680179010A2E02
:1021F00004C0CC0CDD1CEE1CFF1C0A94D2F7C0946A
:10220000D094E094F094C622D722E822F922E88103
:10221000F981B901A801482159216A217B2104C013
:10222000440F551F661F771FAA95D2F74C295D29C9
:102230006E297F292285CF01DF91CF911F910F91C8
:10224000FF90EF90DF90CF90BF90AF909F908F90D6
:102250000C94F00C0F931F93CF93DF93EC018881C4
:1022600099810E94A210AB01BC012A8181E090E01B
:1022700002C0880F991F2A95E2F70197092E000CDA
:10228000AA0BBB0B2B8104C0769567955795479594
:102290002A95D2F78C019D01042315232623372389
:1022A000C901B801DF91CF911F910F910895AF92AD
:1022B000BF92CF92DF92EF92FF920F931F93CF9333
:1022C000DF93CDB7DEB7EC970FB6F894DEBF0FBE45
:1022D000CDBF8C01FC01868D978D1FA218A619A673
:1022E0001AA69F8B8E8B198E188EFF24F394F9A259
:1022F0008BE390E09F8F8E8F1AA28EE088A34EE032
:10230000BE01655D7F4FCE0146960E94F40E8BA5FF
:102310009CA5982789279827F80195A784A78DA5BC
:102320009EA598278927982797A786A78FA598A95C
:1023300098278927982791AB80AB69A97AA9762736
:102340006727762773AB62AB8BA99CA9982789274F
:10235000982795AB84AB8DA99EA9982789279827A4
:1023600097AB86AB8FA998AD98278927982791AF0F
:1023700080AF072E000C880B990B0E94473620E097
:1023800030E04AEA53E40E94A13828EB3EE142E102
:1023900052E40E94C337F801628373838483958378
:1023A000868D978D1A8A1B8A1C8A1D8A9A83898337
:1023B0001C821B82FC868CE190E09A8789871D86AF
:1023C000FB86CE0101965C019AAF89AF82E08BAFAC
:1023D00083E08CAFCE01C9960E942A11C12CD12C6A
:1023E000E12CE5E4FE2E63307105E1F06230710509
:1023F00099F06130710509F4D6C0C12CD12CF0E8F8
:10240000EF2EFFE3FF2E672B69F4C12CD12C50E88F
:10241000E52E56E4F52E06C0C12CD12C70E8E72E2F
:1024200075E4F72EF80164A575A5072E000C880B3E
:10243000990B0E944736A70196010E94A138F80126
:10244000668377838087918766A577A5072E000C22
:10245000880B990B0E944736A70196010E94A1386C
:10246000F801628773878487958760A971A9072E11
:10247000000C880B990B0E944736A70196010E9419
:10248000A138F80166877787808B918B868D978D31
:102490001A8A1B8A1C8A1D8A9A8389831C821B8242
:1024A00081E08C872BE130E03A8729871D868B8776
:1024B000BAAEA9AE82E08BAF83E08CAFCE01C996F5
:1024C0000E942A11C12CD12C33E0E32E33E4F32EE9
:1024D0006115710519F1C12CD12C23E8E22E22E4FB
:1024E000F22E61307105D1F093E3C92EDC2C93E01C
:1024F000E92E92E4F92E6230710581F0C12CD12CC5
:1025000040E8E42E4FE3F42E6330710539F483E3A1
:10251000C82EDC2C83E8E82E81E4F82EF80164A9AB
:1025200075A9072E000C880B990B0E944736A7014E
:1025300096010E94A138F801628B738B848B958B76
:1025400066A977A9072E000C880B990B0E944736C5
:10255000A70196010E94A138F801668B778B808FC6
:10256000918F60AD71AD072E000C880B990B0E9406
:102570004736A70196010E94A138F801628F738F38
:10258000848F958FEC960FB6F894DEBF0FBECDBF4B
:10259000DF91CF911F910F91FF90EF90DF90CF903F
:1025A000BF90AF900895C12CD12CE12C66E4F62E9B
:1025B00039CFCF93DF93EC0188819981009711F097
:1025C0000E941B35198218821D821C821B821A826E
:1025D000DF91CF910895FC0180819181009711F0E6
:1025E0000C941B3508950C941B350C941B350C94DE
:1025F0001B359F92AF92BF92CF92DF92EF92FF92E4
:102600000F931F93CF93DF93CDB7DEB7AE970FB67F
:10261000F894DEBF0FBECDBF8C01DC0197965C93B2
:102620004E939697CA01019699969C938E9398978C
:102630004E5F5F4F9B965C934E939A975E962D915B
:102640003C911FA218A619A61AA63F8B2E8B198E95
:10265000188E81E089A34BE650E05F8F4E8F1AA25F
:1026600088A31A8A1B8A1C8A1D8A3A8329831C82A2
:102670001B828C8728E630E03A8729871D868B8766
:102680005E01B6E1AB0EB11CBCA6ABA68DA787E080
:102690008EA741E050E060E070E0CE018B960E9492
:1026A000D310CE018B960E942A11613071058105ED
:1026B000910539F461E070E080E090E00E94B5049B
:1026C000F0CF64E670E080E090E00E94B50420E086
:1026D00047E050E060E070E0FE0131966F01CF010D
:1026E0000E94F00C64E670E080E090E00E94B50487
:1026F000D8015E968D919C911A8A1B8A1C8A1D8A2C
:102700009A8389831C821B82FF24F394FC8689E1CF
:1027100090E09A8789871D86FB8620E040E050E0A4
:10272000BA01C6010E94F00CF801868D978D1A8AB5
:102730001B8A1C8A1D8A9A8389831C821B82FC86C1
:102740008AE190E09A8789871D86FB86DF8ACE8A98
:1027500083E0E82EE88E198E40E050E0BA01C50112
:102760000E94D310D8015E968D919C911A8A1B8A83
:102770001C8A1D8A9A8389831C821B82FC868BE1BA
:1027800090E09A8789871D86FB86DF8ACE8A92E051
:10279000992E988EE98E41E050E060E070E0C5012E
:1027A0000E94D310F801868D978D1A8A1B8A1C8A85
:1027B0001D8A9A8389831C821B82FC868CE190E0AF
:1027C0009A8789871D86FB86DF8ACE8A988EE98E56
:1027D00040E050E0BA01C5010E94D310D8015E96D6
:1027E0008D919C911A8A1B8A1C8A1D8A9A838983DF
:1027F0001C821B82FC868BE690E09A8789871D8667
:10280000FB8620E041E050E060E070E0C6010E94FD
:10281000F00C64E670E080E090E00E94B504F801FE
:1028200080A191A1009739F0DC01ED91FC9102802B
:10283000F381E02D1995F80182A193A1009739F059
:10284000DC01ED91FC910280F381E02D1995F801F6
:1028500084A195A1009739F0DC01ED91FC910280F3
:10286000F381E02D199586E090E00E947F34FC0111
:1028700084E492E09183808380E596E09383828371
:1028800015830483D8019196FC93EE93909786E08C
:1028900090E00E947F34FC0186E392E09183808384
:1028A00081E596E09383828315830483D801939610
:1028B000FC93EE93929786E090E00E947F34FC01B7
:1028C00088E292E09183808382E596E0938382831D
:1028D00015830483D8019596FC93EE93949781E039
:1028E000AE960FB6F894DEBF0FBECDBFDF91CF918D
:1028F0001F910F91FF90EF90DF90CF90BF90AF901E
:102900009F9008950F931F93CF93DF938C01EB015A
:10291000DC0114968D919C910E945711F80104815D
:1029200015810E94E704AB01BC01FE01349680E2F0
:10293000DF011D928A95E9F784E290E0A0E0B0E023
:1029400088839983AA83BB83F80182A593A5B0E00D
:10295000A0E08C839D83AE83BF838DE090E0A0E0F8
:10296000B0E088879987AA87BB87488B598B6A8B89
:102970007B8B82819381A481B5818C8B9D8BAE8B67
:10298000BF8B81E0DF91CF911F910F9108958F92BE
:102990009F92AF92BF92CF92DF92EF92FF920F93EE
:1029A0001F93CF93DF938C01EB01DC0114968D9183
:1029B0009C910E945711F801048115810E94E7043F
:1029C000FE01349620E2DF011D922A95E9F7C12C21
:1029D000D12C7601C394C882D982EA82FB82F801A5
:1029E00026A137A14901B12CA12C8C829D82AE82F7
:1029F000BF82C886D986EA86FB86688B798B8A8BEC
:102A00009B8B2AE038EE4CE151E46681778180852A
:102A100091850E94A6366C8B7D8B8E8B9F8B2AE0D6
:102A200038EE4CE151E4D8011A966D917D918D916B
:102A30009C911D970E94A636688F798F8A8F9B8FF5
:102A40002AE038EE4CE151E4F8016685778580890B
:102A500091890E94A6366C8F7D8F8E8F9F8F81E02B
:102A6000DF91CF911F910F91FF90EF90DF90CF906A
:102A7000BF90AF909F908F9008953F924F925F923A
:102A80006F927F928F929F92AF92BF92CF92DF927E
:102A9000EF92FF920F931F93CF93DF93EC017B0193
:102AA0008A0169010E94E7044B015C01CE010E948A
:102AB0005711F601349680E2382EDF01832D1D92E6
:102AC0008A95E9F784E290E0A0E0B0E0F601808327
:102AD0009183A283B3838AA59BA5B0E0A0E0848301
:102AE0009583A683B7838DE090E0A0E0B0E0808777
:102AF0009187A287B387808A918AA28AB38A8A81C2
:102B00009B81AC81BD81848B958BA68BB78BF701A4
:102B10003496DF01832D1D928A95E9F7412C512CC3
:102B200032014394D7014D925D926D927C9213973E
:102B30008EA19FA1B0E0A0E0F70184839583A683D6
:102B4000B7834086518662867386808A918AA28A7C
:102B5000B38A2AE038EE4CE151E46E817F818885AA
:102B600099850E94A636D70154966D937D938D93D7
:102B70009C9357972AE038EE4CE151E46A857B85B7
:102B80008C859D850E94A636F701608F718F828F9C
:102B9000938F2AE038EE4CE151E46E857F85888979
:102BA00099890E94A636D7015C966D937D938D938B
:102BB0009C935F97F8013496DF011D923A94E9F7F0
:102BC000F801408251826282738288A599A5B0E0A3
:102BD000A0E084839583A683B78384E090E0A0E09F
:102BE000B0E080879187A287B387808A918AA28A82
:102BF000B38A25E33AEF4EE85CE36A897B898C89E6
:102C00009D890E94A636F801648B758B868B978B05
:102C100025E33AEF4EE85CE36E897F89888D998DD4
:102C20000E94A636D80158966D937D938D939C9300
:102C30005B9725E33AEF4EE85CE36A8D7B8D8C8DE4
:102C40009D8D0E94A636F801648F758F868F978FB1
:102C500081E0DF91CF911F910F91FF90EF90DF9076
:102C6000CF90BF90AF909F908F907F906F905F902C
:102C70004F903F9008958F929F92AF92BF92CF92C4
:102C8000DF92EF92FF920F931F93CF93DF93EC01AC
:102C90009C012E573F4FAC01425A5F4FBC01665C0E
:102CA0007F4F0E943D150E94E7044B015C018E019D
:102CB00006551F4FF80180819181A281B381A50142
:102CC0009401281B390B4A0B5B0BCA01B9010E9406
:102CD000453620E030E04AE754E40E94A1386B0119
:102CE0007C01F80180829182A282B3820450110992
:102CF000F097C255DF4F288139814A815B8160811D
:102D00007181828193810E94C23720E030E044E3E8
:102D100053E40E94A6362BED3FE049E450E40E94C4
:102D2000A138A70196010E94A636F80120813181C1
:102D3000428153810E94C337F8016083718382838B
:102D40009383DF91CF911F910F91FF90EF90DF90D0
:102D5000CF90BF90AF909F908F9008950F931F9347
:102D6000CF93DF938C01EB01DC0114968D919C9144
:102D70000E945711F801048115810E94E704AB01FC
:102D8000BC01FE01349680E2DF011D928A95E9F7CD
:102D900081E090E0A0E0B0E088839983AA83BB83C0
:102DA000F80180A591A5B0E0A0E08C839D83AE835F
:102DB000BF8384E090E0A0E0B0E088879987AA878D
:102DC000BB87488B598B6A8B7B8B25E33AEF4EE8A8
:102DD0005CE362897389848995890E94A6366C8B2D
:102DE0007D8B8E8B9F8B25E33AEF4EE85CE3D80119
:102DF00056966D917D918D919C9159970E94A63622
:102E0000688F798F8A8F9B8F25E33AEF4EE85CE3DA
:102E1000F801628D738D848D958D0E94A6366C8F1E
:102E20007D8F8E8F9F8F81E0DF91CF911F910F91CA
:102E300008958F929F92AF92BF92EF92FF920F935D
:102E40001F93CF93DF93EC018B014C815D8170E088
:102E500060E089859A850E944F3BCE010E94E10681
:102E6000EA80FB80E114F104D1F0F801EE0FFF1FBE
:102E7000E00FF11FE15FFD4F80819181A28110E0A1
:102E800000E04C01AA2EB12CA5019401B801CE019D
:102E90000E9475060F5F1F4FE016F106A9F7CE01DD
:102EA000DF91CF911F910F91FF90EF90BF90AF9066
:102EB0009F908F900C94E1060F931F93762F8901BA
:102EC0009A0190E0FC01EA50FB4F6491FC01EA5A40
:102ED000FA4FE4917111762FF0E0EE0FFF1FEA54E4
:102EE000FB4F85919491472F0E942C2A6115710503
:102EF0008105910529F06F5F7F4F8F4F9F4F9F7026
:102F00001F910F9108952F923F924F925F926F926F
:102F10007F928F929F92AF92BF92CF92DF92EF9269
:102F2000FF920F931F93CF93DF93CDB7DEB76297D6
:102F30000FB6F894DEBF0FBECDBF1C017A83698344
:102F400010E000E0412C512C320143E0842E912C02
:102F500053E2A52EB12C60E0D1018C910E940503B3
:102F6000C4010197F1F761E0F10180810E9405033E
:102F7000C5010197F1F760E0D1018C910E94050332
:102F80002CEC3BE540E050E061E0F10182810E94E1
:102F90005C170E94473626E933E44BE05DE30E946C
:102FA000A63620E030E040E05FE30E94A6366B01E9
:102FB0007C0120E030E040E85FE30E9440361816D4
:102FC0000CF0CDC020E030E048EC53E4C701B6017E
:102FD0000E94D239181634F4C12CD12C3AEFE32ECA
:102FE00033E4F32EA7019601C301B2010E94C33757
:102FF0002B013C0129813A812130310531F065E016
:1030000070E080E090E00E94B5040F5F1F4F49819F
:103010005A814017510709F09ECFBA01550F880B0E
:10302000990B0E9447369B01AC01C301B2010E947B
:10303000A1380E941339072E000C880B990B0E94AF
:1030400047366B017C010E94E7046F83788789878C
:103050009A87F101E256FE4F80819181A281B3816E
:103060008F809884A984BA84881A990AAA0ABB0A0C
:1030700054E685169104A104B10408F4CEC0C5013C
:10308000B40124E630E040E050E00E9491373A83FA
:103090002983F101E456FE4F808191818D599F4F24
:1030A00064E670E00E94493ADC011396AA0FBB1F48
:1030B000AA0FBB1FA20DB31D2D913D914D915C91A7
:1030C0002B833C834D835E8301E010E0FC87EB871C
:1030D00089819A81092E000CAA0BBB0B8D879E87D4
:1030E000AF87B88BA981BA81A017B1070CF478C05B
:1030F000EB85FC8580819181019664E670E00E94F9
:10310000493A9A8B898B9183808320E030E0A90132
:103110006B817C818D819E810E94403629893A890C
:103120002D5F3F4F3A8B298B87FD05C049815A811E
:1031300043335105C4F0A989BA89AA0FBB1FAA0F4E
:10314000BB1FA20DB31DFD01C082D182E282F382BA
:103150000436110509F444C00F5F1F4FC3CFC12CC3
:10316000D12C76013FCF29893A89220F331F220FB4
:10317000331F220D331D3A8B298B2B813C814D81CE
:103180005E81C701B6010E94C2372B013C01B80124
:10319000012E000C880B990B0E9447369B01AC0155
:1031A000C301B2010E94A6362B013C016D857E85CC
:1031B0008F8598890E9447369B01AC01C301B201FB
:1031C0000E94A1382B813C814D815E810E94C337D2
:1031D000A989BA896D937D938D939C931397B8CFEA
:1031E000F101E256FE4FFA83E983C501B40124E6FA
:1031F00030E040E050E00E9491372F8138854985CA
:103200005A85261B370B480B590BDA01C901E98196
:10321000FA8180839183A283B383C701B60162964A
:103220000FB6F894DEBF0FBECDBFDF91CF911F91D7
:103230000F91FF90EF90DF90CF90BF90AF909F9055
:103240008F907F906F905F904F903F902F90089558
:10325000CF92DF92EF92FF927C010E943B16F70122
:10326000EA55FF4F608171818281938120E030E0D7
:1032700044EB53E40E9454396B017C0120E030E0C0
:10328000A9010E94403687FF0AC020E030E044EBED
:1032900053E4C701B6010E94C3376B017C01C7012B
:1032A000B601FF90EF90DF90CF900895FB01019061
:1032B0000020E9F73197AF01461B570BDC01ED9178
:1032C000FC910280F381E02D19948F929F92AF922E
:1032D000BF920F931F93CF93DF93CDB7DEB7A19724
:1032E0000FB6F894DEBF0FBECDBF19A2423008F46E
:1032F0004AE08E010F5D1F4F842E912CB12CA12C22
:10330000A50194010E949137E62FB901CA01EA3064
:1033100004F5E05DD801EE938D01232B242B252BA2
:1033200079F790E080E0109729F0BD018AED94E0F4
:103330000E945619A1960FB6F894DEBF0FBECDBFFE
:10334000DF91CF911F910F91BF90AF909F908F9081
:103350000895E95CDFCFCF92DF92EF92FF92CF9397
:10336000DF936B017C016DE28AED94E00E94BB0566
:10337000EC0166277727CB016C197D098E099F091F
:103380004AE00E9465198C0F9D1FDF91CF91FF903D
:10339000EF90DF90CF900895BC01990F880B990BA7
:1033A00097FD0C94AB194AE00C9465194F925F920B
:1033B0006F927F928F929F92AF92BF92CF92DF9245
:1033C000EF92FF920F931F93CF936B017C01742EAA
:1033D000AC019B010E94293A64E872E0811126C089
:1033E00046015701E894B7F82FEF3FEF4FE75FE74B
:1033F000C501B4010E94293A81110CC02FEF3FEFA3
:103400004FE75FE7C501B4010E94403668E872E00B
:10341000181664F02FEF3FEF4FE75FE4C701B601E6
:103420000E94D2391816ACF46CE872E08AED94E090
:10343000CF911F910F91FF90EF90DF90CF90BF90B1
:10344000AF909F908F907F906F905F904F900C9473
:1034500056192FEF3FEF4FE75FECC701B6010E940F
:10346000403687FDE1CF20E030E0A901C701B60179
:103470000E94403610E000E087FF0AC06DE28AED4E
:1034800094E00E94BB058C01F7FAF094F7F8F094F1
:10349000C0E060E070E080E09FE37C1641F020E057
:1034A00030E040E251E40E94A138CF5FF6CFA7019F
:1034B00096010E94C3372B013C010E941A394B012F
:1034C0005C014AE00E9465197C01E00EF11ECC23EC
:1034D000C1F1C501B4010E9445369B01AC01C30195
:1034E000B2010E94C2374B015C016EE28AED94E0AA
:1034F0000E94BB05E80EF91EC15018F120E030E033
:1035000040E251E4C501B4010E94A6362B013C0102
:103510000E941A394B01B12CA12C4AE0C501B4011B
:103520000E946519E80EF91EC501B4010E944536D6
:103530009B01AC01C301B2010E94C2374B015C0187
:10354000DBCFC701CF911F910F91FF90EF90DF90DC
:10355000CF90BF90AF909F908F907F906F905F9033
:103560004F900895CF93DF9342E00E94D619EC016B
:1035700060E972E08AED94E00E9456198C0F9D1F5D
:10358000DF91CF910895CF93DF93BC018AED94E052
:103590000E945619EC0160E972E08AED94E00E9405
:1035A00056198C0F9D1FDF91CF910895CF93DF9314
:1035B000EB01682F87E196E00E94A90E4C815D81A6
:1035C0006881798187E196E00E94F3040C80DD81B7
:1035D000C02DC431D10544F467E073E087E196E083
:1035E0000E9456192196F5CFDF91CF910895CF9380
:1035F000DF930E940806EC0160E972E08AED94E036
:103600000E9456198C0F9D1FDF91CF910895CF9383
:10361000DF93BC01990F880B990B97FF0EC00E9496
:10362000AB19EC0160E972E08AED94E00E94561952
:103630008C0F9D1FDF91CF9108954AE00E9465197C
:10364000F0CF0F931F93CF93DF93EC018881998183
:10365000009759F02A813B812617370730F081E027
:10366000DF91CF911F910F9108958B016F5F7F4F75
:103670000E94653A009759F0998388831B830A83D7
:103680002C813D81232B59F7FC011082E8CF80E08B
:10369000E7CFEF92FF920F931F93CF93DF936115C4
:1036A000710541F480E0DF91CF911F910F91FF9060
:1036B000EF90089541155105B1F07B01EC010C81AB
:1036C0001D81040F151FB8010E94211B882351F38F
:1036D000288139818C819D81B701820F931F0E94BF
:1036E000613B1D830C8381E0DECFCF93DF93EC0140
:1036F000FB0101900020E9F73197AF01461B570B02
:103700000E94491B811103C0CE010E94D912CE0133
:10371000DF91CF910895CF93DF93EC01FB014481BA
:103720005581608171810E94491B811103C0CE01C6
:103730000E94D912CE01DF91CF910895EF92FF92AE
:103740000F931F93CF93DF93EC017B018A01BA01A2
:103750000E94211B81110BC0CE010E94D912CE0103
:10376000DF91CF911F910F91FF90EF9008951D83EE
:103770000C83B701888199810E94613BF0CFFB01E6
:1037800001900020E9F73197AF01461B570B0C94CD
:103790009E1B0F931F93CF93DF93CDB7DEB7629736
:1037A0000FB6F894DEBF0FBECDBF8C01CB01F80180
:1037B0001182108213821282158214824AE0BE01A5
:1037C0006F5F7F4F0E94CB35BE016F5F7F4FC80197
:1037D0000E94BF1B62960FB6F894DEBF0FBECDBF2E
:1037E000DF91CF911F910F910895CF93DF93EC015B
:1037F000FB018617970749F060817181611571059A
:1038000041F0448155810E949E1BCE01DF91CF91F2
:1038100008950E94D912F9CFFC01118210821382FF
:103820001282158214820C94F51BFC011182108205
:1038300013821282158214826115710551F0FB0109
:1038400001900020E9F73197AF01461B570B0C940C
:103850009E1B0895AF92BF92CF92DF92EF92FF929C
:103860000F931F93CF93DF936C015B017A01890162
:103870002417350720F48F2D7901042F182F62E9C2
:1038800072E0C6010E94151CD5011496CD91DC9101
:10389000EC16FD06E0F40C171D0708F4E801D5014D
:1038A000ED91FC911197EC0FFD1F108110826D912D
:1038B0007C916E0D7F1DC60161157105A1F00E94FE
:1038C000BF1BF50180819181C80FD91F1883C601E4
:1038D000DF91CF911F910F91FF90EF90DF90CF90EC
:1038E000BF90AF9008950E94D912EBCF4F925F9294
:1038F0006F927F928F929F92AF92BF92CF92DF9200
:10390000EF92FF920F931F93CF93DF93CDB7DEB764
:103910002D970FB6F894DEBF0FBECDBF83E992E0BE
:103920000E94C31A8AED94E00E94830518161906B6
:103930000CF075C162E972E0CE0108960E94151C78
:103940000E94430597FD0FC08A30910561F089837D
:103950001A8241E050E0BE016F5F7F4FCE010896B2
:103960000E94491BEDCFC884D984C114D10431F021
:103970000C851D8576010115110591F58C849D84BA
:10398000F6E08F16910408F061C019821B821A823A
:103990001D821C821F821E82CE0108960E94EB129D
:1039A00029813A814B815C816D817E818F8190E09C
:1039B0002D960FB6F894DEBF0FBECDBFDF91CF912D
:1039C0001F910F91FF90EF90DF90CF90BF90AF903D
:1039D0009F908F907F906F905F904F9008957501AA
:1039E00057018FEFA81AB80AF7018081082E000C42
:1039F000990B0E942736892B91F7015011090C0D64
:103A00001D1DF8018081082E000C990B0E9427369D
:103A1000892B31F00E151F0518F001501109F1CF57
:103A2000A8014F5F5F4F4E195F095D874C87CE1429
:103A3000DF0420F4B701C6010E94463BE885F98502
:103A40008C859D85E80FF91F108298CFE884F98452
:103A50006AE370E0C7010E94563B6C01CE18DF0894
:103A6000892B19F4CC24CA94DC2C56018FEFA81AA8
:103A7000B80AA814B90460F46AE370E0C7018A0DBB
:103A80009B1D0E94563B8C010E191F09892B11F4B6
:103A90000FEF1FEFF701E80DF91DF0801082688429
:103AA00079846AE370E0C3010E94773B860C971C1F
:103AB000F401F082009709F43FC0288539857C0124
:103AC000E21AF30AFFEFCF16DF0609F45ECF0F3FCD
:103AD000100709F45ACFEFEFEE16FE0609F455CFA2
:103AE0000E151F0509F451CF488559856C857D85D4
:103AF00090E080E08617970719F18C159D05D1F0AD
:103B000080179107B9F08E159F05A1F0FA01E80F13
:103B1000F91F4115510521F410927F04EFE7F4E0FD
:103B20002081022E000C330B205331092A3031053D
:103B300008F02BCF0196DECFEE24EA94FE2CC2CF04
:103B4000960150E040E0BE01685F7F4FCE010196D4
:103B50000E942A1C89819A81009709F458C00E940A
:103B6000A4356B01CE0101960E94EB129801A501CC
:103B7000BE01685F7F4FCE0101960E942A1C898199
:103B80009A81009709F447C00E94A4355B01CE01D9
:103B900001960E94EB12A8014F5F5F4F9701BE0193
:103BA000685F7F4FCE0101960E942A1C89819A810D
:103BB000412C512C3201009719F00E94A4352B01A1
:103BC0008201CE0101960E94EB128EED94E00E94DC
:103BD0000806C6010E94CC1987ED94E00E940806F1
:103BE000C5010E94CC1980ED94E00E940806C20134
:103BF0000E94071BCE0108960E94EB1281E0898388
:103C0000DB82CA82BD82AC821F830E83C9CE60E094
:103C100070E0CB01A6CF60E070E0CB01B7CF80E0D1
:103C2000EECF85ED8093BC008091B2049091B304F7
:103C3000A091B404B091B5040796A11DB11D23E075
:103C4000B695A795979587952A95D1F72091BC00B1
:103C500024FD03C01092B00408954091B204509125
:103C6000B3046091B4047091B504452B462B472BE7
:103C700069F30097A105B10541F02AE22A95F1F711
:103C800000C00197A109B109E1CF8091B1040C9462
:103C90008C090F931F93CF93DF938C01EB0188E284
:103CA000FB0111928A95E9F74BE050E062EA72E07D
:103CB000CE010E94683B1B8681E090E0A0E0B0E06E
:103CC0008C879D87AE87BF87F80182819381092EFB
:103CD000000CAA0BBB0B888B998BAA8BBB8B8DE03E
:103CE00090E0A0E0B0E08C8B9D8BAE8BBF8B1CA2D4
:103CF0001DA21EA21FA280E090E0A0E2B2EC8C8F79
:103D00009D8FAE8FBF8F80E090E0A2EDB2E4888FF0
:103D1000998FAA8FBB8F84E09DEAA0E4BBE388A3C0
:103D200099A3AAA3BBA3DF91CF911F910F910895EF
:103D30000F931F93CF93DF938C01EB0188E2FB017C
:103D400011928A95E9F74BE050E06CEA72E0CE01FF
:103D50000E94683B1B8641E050E060E070E04C87C9
:103D60005D876E877F87F80182819381092E000C21
:103D7000AA0BBB0B888B998BAA8BBB8B4C8B5D8B57
:103D80006E8B7F8B1CA21DA21EA21FA28AE098EE42
:103D9000ACE1B3EC8C8F9D8FAE8FBF8F8AE098EE35
:103DA000ACE1B3E4888F998FAA8FBB8F83E29BED40
:103DB000A9E7BDE388A399A3AAA3BBA3DF91CF91F1
:103DC0001F910F9108950F931F93CF93DF938C0151
:103DD000EB0188E2FB0111928A95E9F74BE050E094
:103DE00066EB72E0CE010E94683B1B8681E090E0AA
:103DF000A0E0B0E08C879D87AE87BF87F801828105
:103E00009381092E000CAA0BBB0B888B998BAA8B74
:103E1000BB8B84E090E0A0E0B0E08C8B9D8BAE8B00
:103E2000BF8B1CA21DA21EA21FA287ED93EAABE0CE
:103E3000B2EC8C8F9D8FAE8FBF8F87ED93EAABE096
:103E4000B2E4888F998FAA8FBB8F8AE99BEAABE097
:103E5000B9E388A399A3AAA3BBA3DF91CF911F9134
:103E60000F9108952F923F924F925F926F927F929F
:103E70008F929F92AF92BF92CF92DF92EF92FF927A
:103E80000F931F93CF93DF93CDB7DEB7CC54D109F7
:103E90000FB6F894DEBF0FBECDBF0E94E7046B01E2
:103EA0007C018091000240E050E0BA01882321F0BB
:103EB00048E853E160E070E00091060410910704C7
:103EC000209108043091090446015701801A910A93
:103ED000A20AB30A950184010417150726073707BC
:103EE00080F091E0892780930002C0920604D0926E
:103EF0000704E0920804F092090487E196E00E942A
:103F0000D70E8091020490910304A0910404B09113
:103F10000504A7019601281B390B4A0B5B0BDA013C
:103F2000C90184369105A105B10508F4C6C2C09245
:103F30000204D0920304E0920404F09205048091FC
:103F400000028E01075D1F4F882309F4DFC261E084
:103F500070E080EF96E00E9483170E941339CE0133
:103F6000CB960E94C91B61E070E082E998E00E9454
:103F700083170E941339CE01C5960E94C91B61E0C8
:103F800070E084E39AE00E9483170E941339CE0107
:103F90008F960E94C91B61E070E086ED9BE00E9455
:103FA00083170E941339C8010E94C91B66EE72E094
:103FB000CE0101960E94151CB801CE0101960E9407
:103FC0008B1B68EE72E00E94751BBE01615D7F4F26
:103FD0000E948B1B6BEE72E00E94751BBE016B5C36
:103FE0007F4F0E948B1B6EEE72E00E94751BBE011C
:103FF000655C7F4F0E948B1BBC01CE018F5B9F4F86
:104000000E940C1CCE0101960E94EB12C8010E9476
:10401000EB12CE018F960E94EB12CE01C5960E9444
:10402000EB12CE01CB960E94EB12BE016F5B7F4F6D
:10403000CE0101960E940C1CBE016F5F7F4F90E085
:1040400080E00E94D61ACE0101960E94EB12AE01CA
:104050004F5F5F4F1A0168017A0124EB36E040E9B7
:1040600056E06CE676E082E396E00E943D156091B2
:1040700084067091850680918606909187068090CF
:10408000880690908906A0908A06B0908B069B01C6
:10409000AC010E94A6362B013C01A5019401C5018B
:1040A000B4010E94A6369B01AC01C301B2010E947B
:1040B000C3370E94E5399B01AC0180918006909145
:1040C0008106A0918206B0918306BC01CD01905873
:1040D0000E94423820E030E044E353E40E94A636D8
:1040E0002BED3FE049E450E40E94A138F7016193D1
:1040F0007193819391937F0161E070E080E090E0A3
:104100000E94B504EC14FD0409F0A7CFEE24E3945B
:10411000F12CEC0EFD1EF4E2EF0EF11C6101F10139
:1041200080809180A280B380F601448055806680B3
:104130007780A3019201C501B4010E94D2391816FB
:1041400054F4F1014082518262827382F6018482CA
:104150009582A682B782F4E0CF0ED11CEC14FD0448
:10416000F1F624E0220E311C2E143F04B9F6C09063
:10417000EC06D090ED06E090EE06F090EF062D896B
:104180003E894F89588D69897A898B899C890E94DB
:10419000C33720E030E040E05FE30E94A636A7018D
:1041A00096010E94A6364B015C01A701960160E0D2
:1041B00070E080E89FE30E94C2372091E8063091CA
:1041C000E9064091EA065091EB060E94A6369B0153
:1041D000AC01C501B4010E94C3376093E806709337
:1041E000E9068093EA069093EB062091E40630916D
:1041F000E5064091E6065091E7060E94C2379058C6
:1042000023EC35EF48E85FE30E94A6360E9413399D
:10421000CE01CB960E94C91B82E396E00E9428192A
:104220000E941339CE01C5960E94C91B60E080919F
:1042300028060E94050360E080912A060E9405037B
:1042400020E23EE440E050E060E080912C060E94D5
:104250005C174B0161E0809128060E94050361E034
:1042600080912A060E94050320E23EE440E050E0EF
:1042700060E080912C060E945C176B013B0160E0BE
:10428000809128060E94050361E080912A060E9421
:10429000050320E23EE440E050E060E080912C061F
:1042A0000E945C17FB014091300650913106940149
:1042B00097FE04C0222733272819390942175307CC
:1042C000ACF0960177FE04C0222733272C193D0954
:1042D000421753075CF09B01F7FF04C022273327E6
:1042E000261B370B421753070CF001C194012A55C6
:1042F000310937FF03C03195219531094217530722
:10430000BCF096012A55310937FF03C0319521953C
:1043100031094217530764F09B012654310937FFD6
:1043200003C0319521953109421753070CF0E2C0C3
:1043300094012A5A310937FF03C03195219531097B
:1043400042175307BCF096012C58310937FF03C0C0
:104350003195219531094217530764F09B012E5680
:10436000310937FF03C031952195310942175307B1
:104370000CF0C3C094012652310937FF03C03195B8
:104380002195310942175307BCF09601205131099C
:1043900037FF03C03195219531094217530764F067
:1043A0009B012A50310937FF03C03195219531090E
:1043B000421753070CF0A4C029E1821A910897FE16
:1043C00003C0919481949108481559050CF49BC041
:1043D00036E4C31AD108D7FE03C0D194C194D108E2
:1043E0004C155D050CF48FC06253710977FF03C053
:1043F000719561957109461757070CF484C064EEF6
:1044000073E0CE0101960E94151C24E030E050E0DC
:1044100040E0BE016F5F7F4FC8010E942A1CB801B7
:10442000CE018F960E940C1C61EF72E0CE018F9638
:104430000E94751BBE016B5C7F4F0E948B1B65EF5A
:1044400072E00E94751BBE01655C7F4F0E948B1B52
:10445000BC01CE01895B9F4F0E940C1CCE018F9640
:104460000E94EB12C8010E94EB12CE0101960E943D
:10447000EB12CE01C5960E94EB12CE01CB960E94A4
:10448000EB12BE01695B7F4FCE0101960E940C1CAE
:10449000BE016F5F7F4F81E090E00E94D61ACE018F
:1044A00001960E94EB12CE01895B9F4F0E94EB1296
:1044B000CE018F5B9F4F0E94EB12C45BDF4F0FB6A4
:1044C000F894DEBF0FBECDBFDF91CF911F910F914A
:1044D000FF90EF90DF90CF90BF90AF909F908F9024
:1044E0007F906F905F904F903F902F90089560EC79
:1044F00072E087CF69ED72E084CF62ED72E081CF28
:104500006DEC72E07ECF6FED72E07BCF0E94E7042E
:10451000C0906E04D0906F04E0907004F09071042D
:104520006C197D098E099F091CAE1BAE1EAE1DAE17
:1045300021961FAE1EAE21972AE0AE014F5F5F4F5E
:104540000E94EB35BE016F5F7F4FCE01CB960E947C
:10455000BF1B64E170E0CE01C5960E94C91B64E1F7
:1045600070E0CE018F960E94C91B69EF72E0C8010E
:104570000E94151CBE01615D7F4FC8010E948B1B0C
:104580006DEF72E00E94751BBE016B5C7F4F0E9455
:104590008B1B6FEF72E00E94751BBE01655C7F4F45
:1045A0000E948B1BBC01CE0101960E940C1CC8010D
:1045B0000E94EB12CE018F960E94EB12CE01C5969F
:1045C0000E94EB12CE01CB960E94EB12BE016F5FF0
:1045D0007F4FC8010E940C1CB80190E080E00E944F
:1045E000D61AC8010E94EB1264E073E0C8010E9471
:1045F000151C63E875E0C8010E948B1BBC01CE014D
:104600008F960E940C1CBE01615D7F4F81E090E09F
:104610000E94D61ACE018F960E94EB12C8010E940A
:10462000EB12CE01019647CF8F929F92AF92BF922D
:10463000CF92DF92EF92FF920F931F934B015C0199
:104640000E94E7046B017C010E94E7046C197D095C
:104650008E099F09681579058A059B0520F582E377
:1046600096E00E943B160E94E7040091800410919E
:1046700081042091820430918304601B710B820BB2
:10468000930B693C710581059105F0F20E94321F80
:104690000E94E704609380047093810480938204F5
:1046A00090938304D1CF1F910F91FF90EF90DF90F3
:1046B000CF90BF90AF909F908F900895CF92DF9250
:1046C000EF92FF920F931F93CF93DF93EC018B0137
:1046D0000E94E7046B017C010E94E7046C197D09CC
:1046E0008E099F096838734181059105E0F4B8018E
:1046F000CE010E94191764EF71E080E090E00E9403
:1047000014234C815D8170E060E089859A850E9468
:104710004F3BCE010E94E10664EF71E080E090E043
:104720000E941423D9CFDF91CF911F910F91FF9059
:10473000EF90DF90CF9008954F925F926F927F92AB
:104740008F929F92AF92BF92CF92DF92EF92FF92A1
:104750000F931F93CF93DF93EC0140937204509318
:1047600073046093740470937504888599850E941E
:104770003B160E94E7042B013C010E94E7046419E8
:10478000750986099709683873418105910508F014
:10479000DEC0888599850E943B16888599850E9490
:1047A00028199B01AC018090720490907304A09032
:1047B0007404B0907504C501B4010E94C2376B0146
:1047C0007C0120E030E044E353E40E94D239181623
:1047D00054F420E030E044EB53E4C701B6010E94FA
:1047E000C2376B017C0120E030E044E353ECC701A9
:1047F000B6010E94403687FF0AC020E030E044EB5B
:1048000053E4C701B6010E94C3376B017C0120E06D
:1048100030E0A901C701B6010E94D23918160CF088
:104820004FC020E030E040EE50E4C701B6010E94E6
:10483000403687FD5DC0C701B6010E941339A3E26F
:10484000B0E09B01AC010E94863724E630E040E0F6
:1048500050E00E94673749015A0181E4880E911C9B
:10486000A11CB11C0881198120E030E0A901C70119
:10487000B6010E94D239A40118160CF08DC070E068
:1048800060E0C8010E94CC0DA40170E060E08A8164
:104890009B810E94CC0DA40161E070E08C819D8120
:1048A0000E94CC0DA40161E070E08E819F810E9486
:1048B000CC0D61E070E080E090E00E9414235DCFB9
:1048C00020E030E040EE50ECC701B6010E94D23942
:1048D000181674F020E030E0A901C701B6010E946B
:1048E000D23918160CF4A7CFC701B6019058A5CF3E
:1048F000CE010E942D0E888599850E9428199B0162
:10490000AC01C501B4010E94C23720E030E0A9012A
:104910000E94D23928853985809072049090730462
:10492000A0907404B0907504181624F5C9010E9473
:1049300028199B01AC01C501B4010E94C23720E0D7
:1049400030E040E050E40E94403687FFC3CFCE0104
:10495000DF91CF911F910F91FF90EF90DF90CF905B
:10496000BF90AF909F908F907F906F905F904F908F
:104970000C942D0EC9010E9428199B01AC01C501A0
:10498000B4010E94C23720E030E040E050EC0E94C9
:10499000D2391816E4F29ECF61E070E0C8010E949F
:1049A000CC0DA40161E070E08A819B810E94CC0D56
:1049B000A40170E060E08C819D810E94CC0DA40177
:1049C00070E060E072CF4F925F926F927F928F9211
:1049D0009F92AF92BF92DF92EF92FF920F931F933D
:1049E000CF93DF93CDB7DEB7A2970FB6F894DEBFB3
:1049F0000FBECDBF7C010C8B1D8B2E8B3F8B488F48
:104A0000598F6A8F0D891E8989E093E00E94C31A2D
:104A100066E070E0D7011C968D919C910E94191759
:104A200061E070E00130110509F0CDC0F70182812D
:104A300093810E9483178C89882309F4D8C16F88D9
:104A4000788C498C5A8C8090720490907304A0905A
:104A50007404B09075046114710409F0E0C1F701A9
:104A6000808991890E942D0E66E070E0D7011C9626
:104A70008D919C910E941917141415040CF03FC0DD
:104A80000E94E704F70126813781052C000C660897
:104A90007708DC01CB0184199509A609B70964E6FA
:104AA00070E00E94493AF901E456FE4FAB016436CA
:104AB000710514F043E650E080819181841B950BD1
:104AC0008C599F4F64E670E00E94493A0396880F24
:104AD000991F880F991F820F931FDC014D905D90E5
:104AE0006D907C9020E030E0A901C301B2010E94EA
:104AF000403687FF6DC08AE093E00E94F71A83E397
:104B000093E00E94C31AD70150968D919C910E9408
:104B10002D0E64EF71E080E090E00E941423F70115
:104B2000608871886091720470917304809174043C
:104B3000909175040130110509F02DC10E941339BF
:104B4000CB018C5A9E4F68E671E00E94493ABC0145
:104B5000990F880B990B0E944736AB01BC01C3012A
:104B60000E949C2364E670E080E090E00E941423A1
:104B700063E070E0D7011C968D919C910E941917FB
:104B800088E493E00E94C31A0E94E7042B013C01D1
:104B90008AED94E00E948305181619060CF401C1F1
:104BA0000E94E7046419750986099709693B7B40EF
:104BB0008105910508F031C161E070E080E090E08E
:104BC0000E94B504E5CFD70114968D919C9131CF09
:104BD00088EE92E00E940806C301B2010E94B21A58
:104BE0008091720490917304A0917404B091750443
:104BF0008B8F9C8FAD8FBE8F85EC92E00E94F71A51
:104C000061E070E0D70116968D919C910E94831708
:104C10006F8F78A389A39AA320E030E040E251E4AB
:104C2000C301B2010E94C3379B01AC016F8D78A113
:104C300089A19AA10E94D239F701208931891816D9
:104C4000A4F461E070E0C9010E94080E66E070E023
:104C5000D7011C968D919C910E94191761E070E01C
:104C600080E090E00E941423CBCFC9010E942D0E5A
:104C700084EA92E00E94F71A20E030E040E751EC2D
:104C80000130110521F020E030E040E751E46B8D68
:104C90007C8D8D8D9E8D0E94C33720E030E044EBEB
:104CA00053E40E94C33720E030E044EB53E40E9419
:104CB0005439AB01BC01F701808991890E949C2382
:104CC00070E060E0D70150968D919C910E94080E93
:104CD00064EF71E080E090E00E94142380E992E0AC
:104CE0000E94F71A4B8D5C8D6D8D7E8DF70180894A
:104CF00091890E949C2386E692E00E94F71A67E160
:104D000073E08AED94E00E94561961E070E0D701EB
:104D100016968D919C910E94831742E00E94D619AD
:104D200065E273E08AED94E00E94561942E0C30107
:104D3000B2010E94D61961E070E0F7018681978187
:104D40000E948317A30192010E944036D70150961A
:104D50002D913C9187FF0CC070E060E0C9010E947A
:104D6000080E61E070E080E090E00E941423E3CF41
:104D7000C9010E942D0E62E070E0F70184859585DF
:104D80000E94191768EC70E080E090E00E94142304
:104D900082E492E0B2CE0E941339CB0184589E4F38
:104DA000D2CE0E94761C29833A834B835C836D8329
:104DB0007E838F83D22E0A811B816C807D804E8002
:104DC0005F80B501A401F701808991890E949C232D
:104DD000D11025C064E070E0D7011C968D919C91A4
:104DE0000E941917F701808991890E942D0EA296C1
:104DF0000FB6F894DEBF0FBECDBFDF91CF911F91EC
:104E00000F91FF90EF90DF90BF90AF909F908F90A9
:104E10007F906F905F904F900895D12CCCCF8EE310
:104E200093E00E940806C8010E94CC1987E393E032
:104E30000E940806C3010E94CC1980E393E00E94FF
:104E40000806C2010E94071BF4E06F16710479F294
:104E5000B301CE0108960E94C91B60E173E0CE0148
:104E60000E960E94151CBE01685F7F4FCE010E9604
:104E70000E948B1BDC0114964D915C9115976D91EE
:104E80007C918AED94E00E94F30460E972E08AED7F
:104E900094E00E945619CE010E960E94EB12CE01AC
:104EA00008960E94EB12B301CE0108960E94C91B1E
:104EB00060E173E0CE010E960E94151CBE01685F92
:104EC0007F4FCE010E960E948B1BBC0183E895E0BC
:104ED0000E94F51BCE010E960E94EB12CE010896A1
:104EE0000E94EB120E94321FF7014088518820E097
:104EF00030E044EB52E4C501B40101301105C1F5C5
:104F00000E94C23720E030E044EB53E40E94C337F4
:104F10000E941339CB0168E671E00E94493ABC0156
:104F2000990F880B990B0E944736AB01BC01C20157
:104F30000E949C2361E070E0D70116968D919C91B0
:104F40000E94831720E030E040EA50E40E94D2390A
:104F500018168CF461E070E0F701808991890E9455
:104F6000080E61E070E080E090E00E941423E2CF40
:104F70000E94C337C7CFD7011C968D919C91B1E099
:104F80006B16710409F04AC070E060E00E945E2375
:104F900092E0492E512C8EE493E00E94C31A10E057
:104FA00000E0D70152966D907C9060E072E0C30102
:104FB0000E94A708F301828D938DA48DB58D9E5F0D
:104FC000AF4FBF4F828F938FA48FB58F64EF71E087
:104FD00080E090E00E941423D70152966D907C905F
:104FE00068EC7DEFC3010E94A708F301828D938DC9
:104FF000A48DB58D88539240A109B109828F938FFA
:10500000A48FB58F64EF71E080E090E00E941423DC
:105010000F5F1F4F4016510621F608C0E2E06E16E2
:10502000710479F561E070E00E945E2363E070E056
:10503000D7011C968D919C910E94191768EE73E020
:1050400080E090E00E94142361E070E0F701868127
:1050500097810E94831720E030E040E251E40E94F3
:105060004036D70150962D913C9187FF16C070E0D5
:1050700060E0C9010E94080E61E070E080E090E00D
:10508000E1CFF3E06F16710489F664E070E00E94EE
:105090005E2344244394512C7ECFC9010E942D0EDF
:1050A000B501A401F701808991890E949C2368E5DC
:1050B00073E083E895E00E94BF1B99CE1F920F9288
:1050C0000FB60F9211242F933F938F939F93AF931B
:1050D000BF938091770490917804A0917904B09166
:1050E0007A043091760423E0230F2D3758F501968A
:1050F000A11DB11D209376048093770490937804CA
:10510000A0937904B0937A0480917B0490917C04FD
:10511000A0917D04B0917E040196A11DB11D8093E4
:105120007B0490937C04A0937D04B0937E04BF9194
:10513000AF919F918F913F912F910F900FBE0F9044
:105140001F90189526E8230F0296A11DB11DD2CFFE
:105150001F920F920FB60F9211240BB60F922F933E
:105160003F934F935F936F937F938F939F93AF93EF
:10517000BF93EF93FF938AED94E00E949905FF910E
:10518000EF91BF91AF919F918F917F916F915F91BF
:105190004F913F912F910F900BBE0F900FBE0F902C
:1051A0001F9018951F920F920FB60F9211240BB6F5
:1051B0000F922F938F939F93EF93FF93E091EA04C5
:1051C000F091EB048081E091F004F091F10482FD14
:1051D0001DC090818091F3048F5F8F732091F40440
:1051E000821741F0E091F304F0E0E652FB4F958F17
:1051F0008093F304FF91EF919F918F912F910F90E6
:105200000BBE0F900FBE0F901F9018958081F2CFAC
:105210001F920F920FB60F9211240BB60F922F937D
:105220003F934F935F936F937F938F939F93AF932E
:10523000BF93EF93FF938091B900887F803609F484
:105240004DC008F040C0883209F4A9C028F580316B
:1052500009F49DC0C8F4882309F4FBC0883009F420
:1052600096C0FF91EF91BF91AF919F918F917F91E8
:105270006F915F914F913F912F910F900BBE0F90C7
:105280000FBE0F901F901895883109F488C08032A6
:1052900041F78093AE0414C0803409F49DC040F4FB
:1052A0008033B9F38833E9F68093AE0485ECB0C05F
:1052B000803509F485C0883509F496C0883489F6AC
:1052C0000E94111ECECF883909F48CC038F588377A
:1052D00029F050F4883611F0803719F683E0809376
:1052E000B00410926D0457C0883809F47BC080392F
:1052F00019F0803809F0B5CF80916D04803208F044
:1053000071C0E0916D0481E08E0F80936D048091F7
:10531000BB00F0E0E35BFB4F80833DC0803B39F096
:10532000E0F4803A09F479C0883A09F09ACF84E031
:105330008093B00410924C0410924B04E0918604C8
:10534000F0918704199580914B0481110FC081E081
:1053500080934B0410922B0409C0803C09F4A6CF23
:10536000883C09F4A3CF883B09F07BCFE0914C0443
:1053700081E08E0F80934C04F0E0E55DFB4F80816F
:105380008093BB0090914C0480914B0429C0809184
:105390008B048093BB0085EC8093BC0062CF90911E
:1053A000AD048091AC04981758F5E091AD0481E00C
:1053B0008E0F8093AD04F0E0E457FB4F8081E9CF7E
:1053C000E091AD0481E08E0F8093AD048091BB002D
:1053D000F0E0E457FB4F80839091AD048091AC04E2
:1053E0009817C8F285E8D8CFE091AD0481E08E0F20
:1053F0008093AD048091BB00F0E0E457FB4F8083C5
:105400008091AF0481115CCF81E080938A0484EAAB
:105410008093BC001092B00424CF85EC8093BC0034
:105420001092B00480916D04803230F4E0916D04EC
:10543000F0E0E35BFB4F108260916D0470E0E0915F
:105440008404F09185048DE494E0199510926D0424
:1054500008CF1092AE0434CFCF92DF92EF92FF923A
:105460000F931F93E82FF92F05C00150110921094F
:10547000310961F1908196239417B9F305C0015069
:1054800011092109310911F1908196239413F7CF65
:10549000C12CD12CE12CF12C0AC08FEFC81AD80AEC
:1054A000E80AF80A0C151D052E053F0579F08081E4
:1054B0008623841791F36C2D7D2D8E2D9F2D1F91AA
:1054C0000F91FF90EF90DF90CF90089560E070E033
:1054D00080E090E01F910F91FF90EF90DF90CF90D0
:1054E0000895CF93DF93FC017183608353834283DC
:1054F00014821582168217821086118612861386F0
:10550000DC01A456BE4F11961C921E92EC01C256AD
:10551000DE4F188219821A821B823C9640E050E0CE
:1055200060E87FEB4193519361937193EA17FB0716
:10553000C9F7DF91CF9108954F925F926F927F925A
:105540008F929F92AF92BF92CF92DF92EF92FF9293
:105550000F931F93CF93DF931092DD041092DC041E
:1055600088EE93E0A0E0B0E08093DE049093DF0447
:10557000A093E004B093E10422E532E03093DB0431
:105580002093DA0425EC30E03093E7042093E6041E
:1055900024EC30E03093E9042093E80420EC30E080
:1055A0003093EB042093EA0421EC30E03093ED04D7
:1055B0002093EC0422EC30E03093EF042093EE04CF
:1055C00026EC30E03093F1042093F0041092F304C1
:1055D0001092F4041092F5041092F60410927A05D9
:1055E0001092790580937B0590937C05A0937D05AF
:1055F000B0937E0584E692E09093780580937705DA
:1056000044E050E065E070E086ED9BE00E94712A86
:1056100049E050E068E070E084E39AE00E94712A7B
:1056200046E050E067E070E082E998E00E94712A6D
:105630004BE050E06AE070E080EF96E00E94712A53
:1056400082E892E0909333068093320610925106DE
:105650001092500610925306109252061092550660
:105660001092540610925706109256061092D806C1
:105670001092D9061092DA061092DB061092E0061C
:105680001092E1061092E2061092E3061092E406F0
:105690001092E5061092E6061092E7061092E806D0
:1056A0001092E9061092EA061092EB068DEC9CEC43
:1056B000ACECBEE38093EC069093ED06A093EE066F
:1056C000B093EF068FE090E0909325068093240638
:1056D00089E190E0909327068093260622E130E04E
:1056E000309329062093280621E130E030932B06E1
:1056F00020932A062DE130E030932D0620932C06CE
:10570000C0E1D0E0D0932F06C0932E0690933106CF
:105710008093300610921A061092190686E792E0DE
:1057200090931806809317061092200687E28093C4
:105730001B0684E18093210684E080932206109268
:10574000230610920406109203061092FA05109296
:10575000F90510920F061092100610921106109281
:10576000120680E098E0909300068093FF058EE19A
:1057700090E0909306068093050680E290E0909377
:105780000806809307068FE190E090930A068093C5
:10579000090681E290E090930C0680930B0661E08D
:1057A0008EE10E94910361E0809107060E949103BF
:1057B00061E0809109060E94910361E080910B06EF
:1057C0000E94910310920E0610920D0684E090E064
:1057D000909302068093010610921306109214060D
:1057E00010921506109216062091FF0530910006C2
:1057F000032E000C440B550B60E077E883E993E03F
:105800000E946737CA01B90123E130E040E050E06F
:105810000E9467372093FB053093FC054093FD05FC
:105820005093FE051092E4051092EB051092F205DC
:105830001092F3051092F4051092F50581E0809323
:10584000F1058093EE051092EF0592E09093F0053C
:105850008093E30580E390E09093E8058093E7056B
:105860000E947F349093ED058093EC05009709F436
:1058700040C120E3FC0111922A95E9F7D093E60597
:10588000C093E50583E090E09093EA058093E905F5
:105890008091E405882341F061E083E00E94910358
:1058A00060E083E00E940503E9E5F5E0E491F0E0C3
:1058B000EE0FFF1FE45CFA4F8591949123EE822E48
:1058C00025E0922E9093F7058093F605E9EFF4E03A
:1058D000E491E093F8053DEDC32E35E0D32E87E249
:1058E00090E09093DE058093DD0589E290E090934F
:1058F000E0058093DF0582E090E09093E2058093DD
:10590000E10547EDE42E45E0F42E85E390E0909329
:10591000D8058093D70583E390E09093DA058093D0
:10592000D9058DE290E09093DC058093DB0501EDD5
:1059300015E080E390E09093D2058093D1058AE250
:1059400090E09093D4058093D3058EE290E09093FD
:10595000D6058093D505CBECD5E082E390E090931B
:10596000CC058093CB0584E390E09093CE058093A3
:10597000CD058CE290E09093D0058093CF05A9EB04
:10598000B5E0D092BA05C092B905F092BC05E0929C
:10599000BB051093BE050093BD05D093C005C09311
:1059A000BF0582E396E09093C2058093C105E6EDC2
:1059B000FBE0F093C405E093C30564E37AE07093E1
:1059C000C6056093C50542E958E05093C805409369
:1059D000C70520EF36E03093CA052093C905F09340
:1059E0009E05E0939D057093A00560939F055093DD
:1059F000A2054093A1053093A4052093A3050F2E83
:105A0000F4E2AF2EF6E0BF2EF02DB092A605A092E4
:105A1000A5059093A8058093A7059092AA0580926A
:105A2000A9050F2EF7E16F2EF6E07F2EF02D709274
:105A3000AC056092AB05B093AE05A093AD050F2EFB
:105A4000F9EF4F2EF5E05F2EF02D5092B005409209
:105A5000AF05D092B205C092B105F092B405E092C4
:105A6000B3051093B6050093B505D093B805C09360
:105A7000B705F0938A05E093890570938C056093D0
:105A80008B0550938E0540938D05309390052093A0
:105A90008F05B0939205A093910590939405809300
:105AA0009305B0929605A0929505909298058092E4
:105AB000970570929A05609299058DE995E090930B
:105AC0009C0580939B0568E473E083E895E0DF9193
:105AD000CF911F910F91FF90EF90DF90CF90BF90EB
