:100000000C945A030C948B030C948B030C948B0369
:100010000C948B030C948B030C948B030C948B0328
:100020000C948B030C948B030C948B030C948B0318
:100030000C948B030C948B030C948B030C948B0308
:100040000C948B030C948B030C948B030C948B03F8
:100050000C948B030C948B030C948B030C94CE2B7D
:100060000C948B030C94422C0C94182C0C948B0342
:100070000C948B030C948B030C948B030C948B03C8
:100080000C948B030C948B030C948B030C948B03B8
:100090000C948B030C948B030C948B030C94782C92
:1000A0000C948B030C948B030C948B030C948B0398
:1000B0000C948B030C948B030C948B030C948B0388
:1000C0000C948B030C948B030C948B030C948B0378
:1000D0000C948B030C948B030C948B030C948B0368
:1000E0000C948B03084AD73B3BCE016E84BCBFFD0A
:1000F000C12F3D6C74319ABD56833DDA3D00C77FF8
:1001000011BED9E4BB4C3E916BAAAABE0000008090
:100110003F000C94420B0C949A130C942F090C94EE
:1001200098130C945F0E0C940F090C948D030C948F
:1001300053210C948E040C94C4030C94D6030C9499
:100140007F040C94330B0C94DE030C940C2E0C9453
:10015000BC040C94D0040C94DF040C9411040C9493
:1001600017090C9409070C94AA040C9488050C94A4
:1001700003040C9411050C9418060C940B040C94B5
:10018000FD040C9404210C9498040C94E5030C9445
:100190009E210C94550B0C94E2030C94EF030C94E9
:1001A00007040C9484040C9427150C94CC0B0C9429
:1001B00011090C94F3040C9435090C94320B0C9433
:1001C000C4050C94930F0C94CD080C9415040C9456
:1001D000DA030C946C150C94F7080C949E130C9491
:1001E00021090C94E5080C941D3B0C945C0B0C94B9
:1001F000B8060C94F5030C94EB030C94F9030C94DF
:100200007A040C94B5050C94BF030C94D7080C9495
:100210008E030C94C6040C94A2040C94600E0C94EF
:100220005B170C94B2040C94890B0C9450060C943C
:10023000FD030C940A060C9407050C949C130C9473
:10024000E90400407A10F35A00A0724E1809001019
:10025000A5D4E80000E87648170000E40B5402003B
:1002600000CA9A3B000000E1F50500008096980066
:10027000000040420F000000A0860100000010278F
:1002800000000000E803000000006400000000001F
:100290000A00000000000100000000002C76D88851
:1002A000DC674F0823DFC1DFAE59E1B1B796E5E364
:1002B000E453C63AE651997696E8E6C28426EB897D
:1002C0008C9B62ED407C6FFCEFBC9C9F40F2BAA51A
:1002D0006FA5F490055A2AF75C936B6CF9676DC1B2
:1002E0001BFCE0E40D47FEF520E6B500D0ED902EB6
:1002F0000300943577050080841E080000204E0A14
:10030000000000C80C333333330F986E1283114151
:10031000EF8D2114893BE65516CFFEE6DB18D1841C
:100320004B381BF77C1D901DA4BBE4242032847243
:100330005E228100C9F124ECA1E53D2752616D7078
:10034000206C6576656C6564206F722054696D65FC
:100350006F75742E2053746F7070696E672E005322
:1003600074617274696E672053545241494748540E
:100370002052616D7020436C696D622E2E2E0052EA
:100380006561636865642076696374696D20706F68
:10039000736974696F6E2061636375726174656CF3
:1003A000792E005374657020323A20416E676C6973
:1003B0006E6720617761792066726F6D2076696360
:1003C00074696D002054696D653A00205479706538
:1003D0003A0056696374696D2056616C6964617492
:1003E00065642120536964653A0000000000000044
:1003F00000000000000000000000000000000000FD
:1004000000000101010101010101010101010202DC
:1004100002020202020203030303030304040404AE
:100420000505050505060606060707070808080965
:1004300009090A0A0A0B0B0B0C0C0D0D0D0E0E0F01
:100440000F1010111112121313141415151616177C
:10045000181819191A1B1B1C1D1D1E1F1F202122D5
:100460002223242526262728292A2A2B2C2D2E2F05
:10047000303132333435363738393A3B3C3D3E3F04
:100480004041424445464748494B4C4D4E505152DD
:1004900054555658595A5C5D5E606163646667697D
:1004A0006A6C6D6F7072737577787A7C7D7F8182EC
:1004B000848688898B8D8F91929496989A9C9EA021
:1004C000A2A4A6A8AAACAEB0B2B4B6B8BABCBFC11A
:1004D000C3C5C7CACCCED1D3D5D7DADCDFE1E3E6DA
:1004E000E8EBEDF0F2F5F7FAFCFF537475636B205F
:1004F0006465746563746564210044657363656E47
:10050000742046696E697368656400466C61742086
:1005100067726F756E6420726561636865642E2012
:1005200053746162696C697A696E672E2E2E00536E
:1005300074617274696E6720434F4E54524F4C4C35
:1005400045442044657363656E742E2E2E00466903
:100550006E616C206566666F72743A20552D547515
:10056000726E2065736361706500000021002400D5
:1005700027002A002D003000330001010000040193
:1005800007010A0100000A0B02090C0D0E080703FF
:100590000401000000000000000000000000000056
:1005A000000000000000000000000000000000004B
:1005B0001211100000000000000000000000000008
:1005C00000000000000000000000000020002300E8
:1005D000260029002C002F0032000001000003013A
:1005E000060109012054696D653A0020547970654F
:1005F0003A0056696374696D2056616C6964617470
:1006000065642120536964653A00010210202008C6
:10061000081020401020408002010201080402015D
:1006200001020408102040808040201008040201CC
:100630008004020180402010080402010804020125
:1006400001020408102040800102040810204080AC
:1006500000002200250028002B002E00310034006D
:1006600002010000050108010B010505050507054C
:1006700008080808020202020A0A0808040404041E
:10068000010101010101010103030303030303034A
:10069000040707070C0C0C0C0C0C0C0C02020202D9
:1006A00006060606060606060B0B0B0B0B0B0B0BC2
:1006B0000C2E1D3B11241FBECFEFD1E2DEBFCDBFFC
:1006C00000E00CBF14E0A0E0B2E0E4EDF9E800E0E7
:1006D0000BBF02C007900D92AE3EB107D9F72EE0D6
:1006E000AEEEB4E001C01D92AE38B207E1F713E000
:1006F000C9E5D3E000E006C021970109802FFE0183
:100700000E94B343C835D10780E00807A9F70E94CB
:1007100039310C94D8440C94000008950895282F82
:1007200030E0F901EC57FA4F9491F901E65FF94F87
:1007300044912659394FF9012491222309F435C0F7
:10074000992311F191509231F8F4E92FF0E08827C4
:10075000E355FC4F8F4F0C94B343DE03E203BF031A
:10076000D603DA03C403E503EB03EF03F503F90350
:10077000FD0303040704C4030B0411041504809152
:1007800080008F7780938000E22FF0E0EE0FFF1F54
:10079000E05BF94FA591B4918FB7F894EC9161119A
:1007A00048C040954E234C938FBF089580918000A0
:1007B0008F7DE8CF80918000877FE4CF84B58F77ED
:1007C00084BDE2CF84B58F7DFBCF8091B0008F7761
:1007D0008093B000D9CF8091B0008F7DF9CF809108
:1007E00090008F7780939000CFCF809190008F7D85
:1007F000F9CF80919000877FF5CF8091A0008F770F
:100800008093A000C1CF8091A0008F7DF9CF80910F
:10081000A000877FF5CF809120018F778093200102
:10082000B3CF809120018F7DF9CF80912001877F08
:10083000F5CF4E2BB8CFCF93DF9390E0FC01E65F6E
:10084000F94F24918659994FFC0184918823C9F06E
:1008500090E0880F991FFC01E659FA4FA591B491D9
:10086000FC01E05BF94FC591D49161110DC09FB7B8
:10087000F8948C91209582238C9388812823288357
:100880009FBFDF91CF910895623051F49FB7F894E4
:100890003C91822F809583238C93E8812E2BEFCF80
:1008A0008FB7F894EC912E2B2C938FBFEACF982F13
:1008B000E82FF0E0EC57FA4FE491E150E23108F014
:1008C000B0C0F0E08827E859FB4F8F4F0C94B3433A
:1008D0007A047F0484048E0498041105A204AA04F7
:1008E000B204BC04C604D004DF04E9041105F30417
:1008F000FD04070584B5806884BD67BD089584B58F
:10090000806284BD68BD0895809180008068809376
:100910008000709389006093880008958091800022
:1009200080628093800070938B0060938A000895AA
:100930008091800088608093800070938D00609328
:100940008C0008958091B00080688093B00060931F
:10095000B30008958091B00080628093B0006093EE
:10096000B400089580919000806880939000709307
:100970009900609398000895809190008062809320
:10098000900070939B0060939A000895809190006E
:1009900088608093900070939D0060939C00089500
:1009A0008091A00080688093A0008091A0008F7B40
:1009B0008093A0007093A9006093A800089580918F
:1009C000A00080628093A0007093AB006093AA00A7
:1009D00008958091A00088608093A0007093AD007E
:1009E0006093AC000895809120018068809320017D
:1009F00070932901609328010895809120018062FD
:100A00008093200170932B0160932A0108958091B7
:100A1000200188608093200170932D0160932C0148
:100A200008956038710524F460E0892F0C948F03D9
:100A300061E0FBCF8230910538F0880F991F880F55
:100A4000991F05970197F1F708953FB7F8948091A2
:100A5000670590916805A0916905B0916A0526B572
:100A6000A89B05C02F3F19F00196A11DB11D3FBFE6
:100A7000BA2FA92F982F8827BC01CD01620F711DB5
:100A8000811D911D42E0660F771F881F991F4A95AF
:100A9000D1F708958F929F92AF92BF92CF92DF923B
:100AA000EF92FF924B015C010E9425056B017C01D6
:100AB0000E9425056C197D098E099F09683E7340C7
:100AC00081059105A8F321E0821A9108A108B108D7
:100AD00088EEC80E83E0D81EE11CF11C811491043D
:100AE000A104B10429F7FF90EF90DF90CF90BF9061
:100AF000AF909F908F9008952FB7F8946091630501
:100B00007091640580916505909166052FBF0895E9
:100B1000AF92BF92CF92DF92EF92FF920F931F930B
:100B2000CF93DF936C017B018B01040F151FEB0149
:100B30005E01AE18BF08C017D10759F06991D60100
:100B4000ED91FC910190F081E02DC6011995892B62
:100B500079F7C501DF91CF911F910F91FF90EF9031
:100B6000DF90CF90BF90AF900895FC01538D448DDE
:100B7000252F30E0842F90E0821B930B541710F048
:100B8000CF96089501970895FC01918D828D981755
:100B900061F0A28DAE0FBF2FB11D5D968C91928D2D
:100BA0009F5F9F73928F90E008958FEF9FEF08955E
:100BB0000F931F930E947C056093CE057093CF0521
:100BC0008093D0059093D10586EC95E00E94C405F2
:100BD00097FF1DC00E947C050091CE051091CF05A6
:100BE0002091D0053091D105601B710B820B930BC6
:100BF0000091CA051091CB052091CC053091CD050F
:100C00006017710782079307F8F28FEF9FEF1F912C
:100C10000F910895FC01918D828D981731F0828D8E
:100C2000E80FF11D858D90E008958FEF9FEF0895F7
:100C3000FC01918D228D892F90E0805C9F4F821B5B
:100C400091098F739927089586EC95E00E94180604
:100C500021E0892B09F420E0822F0895FC01A48D66
:100C6000A80FB92FB11DA35ABF4F2C91848D90E0CE
:100C700001968F739927848FA689B7892C93A089B1
:100C8000B1898C91837080648C93938D848D98133B
:100C900006C00288F389E02D80818F7D80830895CE
:100CA000EF92FF920F931F93CF93DF93EC0181E0BC
:100CB000888F9B8D8C8D98131AC0E889F989808163
:100CC00085FF15C09FB7F894EE89FF896083E88996
:100CD000F98980818370806480839FBF81E090E088
:100CE000DF91CF911F910F91FF90EF900895F62E15
:100CF0000B8D10E00F5F1F4F0F731127E02E8C8DAF
:100D00008E110CC00FB607FCFACFE889F9898081F3
:100D100085FFF5CFCE010E942E06F1CFEB8DEC0FB3
:100D2000FD2FF11DE35AFF4FF0829FB7F8940B8F10
:100D3000EA89FB8980818062CFCF0F931F93CF9385
:100D4000DF938C01D0E0C0E0F801EC0FFD1F64914F
:100D5000662341F086EC95E00E945006892B11F045
:100D60002196F2CFCE01DF91CF911F910F9108957F
:100D7000CF93DF93EC01888D8823B9F0AA89BB89D2
:100D8000E889F9898C9185FD03C0808186FD0DC0BD
:100D90000FB607FCF7CF8C9185FFF2CF808185FFDE
:100DA000EDCFCE010E942E06E9CFDF91CF910895BD
:100DB00080E090E0892B29F00E94240681110E9496
:100DC000000080E090E0892B49F080E090E0892BE2
:100DD00029F00E94000081110E94000080E090E054
:100DE000892B49F080E090E0892B29F00E940000D7
:100DF00081110E94000080E090E0892B49F080E0A2
:100E000090E0892B29F00E94000081110C940000D1
:100E1000089508958F929F92AF92BF92CF92DF92E2
:100E2000EF92FF921F93CF93DF93FC018281938116
:100E300068177907A8F54A01AA24BB24C82DC32E38
:100E4000D42EE52EFF241C2DD22F8085882361F01F
:100E5000889E40011124C92D8C9D600111241D2DF7
:100E6000829FD0011124DB2FA685E184F284938533
:100E7000A91322C0CB01880F991F680F791F6E0D2F
:100E80007F1DA385A60FB72FB11DCC93A485A60FF8
:100E9000B72FB11D1C938585680F711DFB01D08391
:100EA000DF91CF911F91FF90EF90DF90CF90BF9097
:100EB000AF909F908F900895660F771F660F771FF2
:100EC0006E0D7F1D252F332744275527882349F092
:100ED00090E0829F7001839FF00C929FF00C112490
:100EE0002F2DA60FB72FB11D2C93CBCFCF92DF9212
:100EF000EF92FF920F931F93CF93DF9300D000D018
:100F000000D0CDB7DEB78C01DC0119968D919C9194
:100F1000892B09F473C00E942505F801C784D08885
:100F2000E188F2886C157D058E059F0520F46787A2
:100F3000708B818B928BF801C784D088E188F2880E
:100F40006C197D098E099F096C32714081059105EC
:100F500010F3F894D80114968D919C9115979A836B
:100F600089831996ED91FC917F01BFEFEB1AFB0A83
:100F700080818987F80190810388F489E02DD80168
:100F800055968C91992309F448C09081982B9887A5
:100F90009081809589238F838F818C8388E08B83D8
:100FA00058856F8149853B812C8189819A81D70140
:100FB000508347FD252F3A952083262F39F0441F73
:100FC00000C000006083000000C0F2CF38E04D9107
:100FD00060830000019761F7D8015496FC93EE936B
:100FE000539749873B832C839A83898378940E9403
:100FF0002505F8016787708B818B928B29960FB638
:10100000F894DEBF0FBECDBFDF91CF911F910F913E
:10101000FF90EF90DF90CF9008959081982B988764
:101020009081809589238F838F818E8388E08D8343
:1010300058856F8149853D812E8189819A81D701AB
:10104000508347FD252F00C000C0208300C000C092
:1010500000C000C000C060830000262F3A9541F018
:10106000441F000000C000C000C000C000C0E8CFA6
:1010700038E04D9100C0608300C0019709F7D801A6
:101080005496FC93EE93539749873D832E83ACCFC0
:101090000F931F93CF93DF93EC018B018885998584
:1010A000029751F46130710509F43AC06CF560E0C3
:1010B0000115110509F435C088859985049751F407
:1010C0000130110509F455C00CF035C001151105AA
:1010D00009F43EC088859985059709F0C8C00A3093
:1010E000110508F0C4C0F8018827E658F74F8F4F64
:1010F0000C94B343CD08D708E508F7080F09110988
:10110000170921092F0935096230710591F060E056
:101110000330110589F68C850E948F0360E005C0BD
:1011200061E08C850E948F0361E08E850E948F03B1
:10113000C3CF61E0F0CF0230110509F10330110592
:1011400009F0C8CF61E08C850E948F0360E01CC06D
:1011500061E08C850E948F0360E08E850E948F0382
:1011600061E088890E948F0360E08A890E948F0372
:10117000B1CF60E08C850E948F0361E0EECF60E02C
:101180008C850E948F0361E08E850E948F0360E052
:1011900088890E948F0361E0E8CF60E08C850E941F
:1011A0008F0361E08E850E948F0361E009C060E0DB
:1011B0008C850E948F0361E08E850E948F0360E022
:1011C00088890E948F0360E00DC060E08C850E94DA
:1011D0008F0361E08E850E948F0360E088890E9402
:1011E0008F0361E08A890E948F0361E011C060E093
:1011F0008C850E948F0361E08E850E948F0360E0E2
:1012000088890E948F0361E08A890E948F0360E0D1
:101210008C89DF91CF911F910F910C948F0361E026
:10122000E7CF61E08C850E948F0360E0E5CF61E04D
:101230008C850E948F0360E08E850E948F0361E0A1
:10124000DFCF61E08C850E948F0360E08E850E9475
:101250008F0361E088890E948F0360E0D5CF61E051
:101260008C850E948F0360E09DCF60E0F9CFDF9115
:10127000CF911F910F9108954F925F926F927F923D
:101280008F929F92AF92BF92CF92DF92EF92FF9296
:101290000F931F93CF93DF93EC018B0177FF04C073
:1012A00000271127061B170B161617060CF04AC04D
:1012B00081E090E09983888384E0E82EF12C9AE025
:1012C000C92ED12C0115110509F44EC00E94250527
:1012D0008E889F88A88CB98C2B013C01481859082E
:1012E0006A087B088A809B80AC80BD8048145904C2
:1012F0006A047B0438F36E8B7F8B888F998F8A8585
:101300009B85288139812130310511F501969B8714
:101310008A872E813F818217930711F41B861A86D4
:10132000015011098A859B8528853985B6012530AC
:10133000310509F0B7010E949F43BC01CE010E9414
:101340004808C0CF672B09F4B7CF19821882B4CFF1
:10135000892B21F48E819F819B878A878A859B8533
:1013600001979B878A87DCCFDF91CF911F910F91E7
:10137000FF90EF90DF90CF90BF90AF909F908F90B5
:101380007F906F905F904F90089520913705260FC2
:101390003327331F21323105ECF420919C05FC01E9
:1013A00090E080E0243069F082E00895A091370554
:1013B0002191AC01495E5A4FA40FB52FB11D2C935A
:1013C0000196861798F380913705680F609337056B
:1013D00080E0089581E0089510929C0581E080935B
:1013E0009B051092760561E084E10E948F0361E025
:1013F00085E10E948F03E9EBF0E080818E7F80839E
:1014000080818D7F808388E48093B80085E4809319
:10141000BC00089510927505109274051092A305F2
:101420001092C5050E94EC098DE893E09093730536
:10143000809372058EE893E0909371058093700518
:101440000895CF93DF9391E0909316058823B9F028
:10145000C091B800D091BA008091BC008A7B809383
:10146000BC0060E084E10E948F0360E085E10E949F
:101470008F030E94EC09D093BA00C093B800DF91AB
:10148000CF9108958F929F92AF92BF92CF92DF92A9
:10149000EF92FF920F931F93CF93DF93D091C505E7
:1014A000D13208F0D7C0182FC091C4050E9425057D
:1014B0006B017C0180919C0581116BC082E080935F
:1014C0009C0510939B058FEF80939A0510929905C8
:1014D000D0939805A4EAB5E0E8E7F5E080E0D813FA
:1014E00091C01092770580917705CC0FC82BC093DF
:1014F000770580917605813009F088C010927605D5
:101500000E9425056B017C01809177058093BB00CB
:1015100080919E0590919F05A091A005B091A10595
:10152000892B8A2B8B2BA1F00E94250500919E050B
:1015300010919F052091A0053091A1056C197D099E
:101540008E099F09061717072807390708F442C0B4
:101550008091BC0083FDD8CF85EC8093BC000E94B5
:1015600025056B017C0180919C05823009F450C0F7
:1015700080919A058F3F09F46FC080919A0580325F
:1015800009F46CC080919A05803309F469C084E045
:1015900026C080919E0590919F05A091A005B091D5
:1015A000A105892B8A2B8B2B09F484CF0E9425055A
:1015B00080909E0590909F05A090A005B090A105F9
:1015C0006C197D098E099F0986169706A806B9062B
:1015D00008F070CF80919D050E94210A85E010924D
:1015E000A3051092C5051092A205DF91CF911F911E
:1015F0000F91FF90EF90DF90CF90BF90AF909F90B2
:101600008F9008959D9191938F5F69CF85EEA5CFBF
:1016100080919E0590919F05A091A005B091A10594
:10162000892B8A2B8B2B09F49ECF0E9425050091D4
:101630009E0510919F052091A0053091A1056C1980
:101640007D098E099F09061717072807390708F033
:101650008ACFC0CF81E0C3CF80E0C1CF82E0BFCFCF
:1016600083E0BDCF0895E091750580917405E8177A
:1016700030F4F0E0EA50FB4F808190E008958FEF66
:101680009FEF089590917505809174052FEF3FEFBE
:10169000981748F4E92FF0E0EA50FB4F208130E042
:1016A0009F5F90937505C90108958091740590918D
:1016B0007505891B990B0895CF92DF92EF92FF92E7
:1016C0000F931F93CF93DF937C01CB018A0120916D
:1016D000A205222389F0EB016B01C40ED51ECC15A7
:1016E000DD0569F06991D701ED91FC910190F081E0
:1016F000E02DC7011995F3CF642F0E94C509C801D9
:10170000DF91CF911F910F91FF90EF90DF90CF90DD
:101710000895CF93DF931F92CDB7DEB769832091F1
:10172000A2052223F9F02091C505203258F021E0CE
:1017300030E0FC013383228390E080E00F90DF9162
:10174000CF9108958091A305E82FF0E0EC55FA4F72
:10175000998190838F5F8093A3058093C50581E075
:1017600090E0ECCF61E0CE0101960E94C509F7CF71
:10177000FC01248131E03093A2052093C40510922E
:10178000A3051092C5058485682B83E696E00E9428
:10179000890B81E00C94420A90E080E00895FC01FE
:1017A00083858F3F19F061E00C948F030895FC014D
:1017B00080819181892B39F0A281B3819C9111960E
:1017C0008C919CBD8DBD83858F3F19F060E00C949A
:1017D0008F030895BF92CF92DF92EF92FF920F9303
:1017E0001F93CF93DF93EC0188819981892B81F03E
:1017F0006EBD0DB407FEFDCF0EB5802FDF91CF91EA
:101800001F910F91FF90EF90DF90CF90BF900895C0
:101810008885998511E0892B09F010E8BB24B394E1
:10182000862F812309F0B12CF62E2C813D814E812B
:101830005F8160E271EA87E090E00E94E740E22E7B
:1018400000E0C22ED12CEE2019F0C6010E941A052C
:101850008A85982F977F09F044C08D858F3F89F046
:101860009F2D912381E009F480E08B1551F0EF85E5
:10187000F8898F89992379F19081892B8083BB2402
:10188000B394E989FA898081998D892B8083EE2030
:1018900019F0C6010E941A058E858F3F39F0EB8939
:1018A000FC898081988D892309F0012BE989FA89C7
:1018B0009081898D80958923808388859985892B5E
:1018C00009F067C0110F1111BECF8E858F3F09F04F
:1018D00094CF0F2D92CF9081809589238083B12C56
:1018E000D0CF8C3099F58D858F3F49F0EF85F88901
:1018F0008F899F2D912331F19081892B8083E989F4
:10190000FA899081898D809589238083EE2019F052
:10191000C6010E941A05E989FA898081998D892B6F
:101920008083EE2019F0C6010E941A058E858F3F34
:1019300021F2EB89FC898081988D892309F4BDCF40
:10194000012BBBCF908180958923D8CFE989FA8973
:101950008081998D892B8083EE2019F0C6010E9429
:101960001A058D858F3F49F0EF85F8898F899F2D66
:10197000912359F09081892B8083E989FA8990819C
:10198000898D809589238083D1CF9081809589230B
:10199000F3CF169598CF8F929F92AF92BF92CF922E
:1019A000DF92EF92FF920F931F93CF93DF937C010F
:1019B0004B016A01B22EA32E0E94D70BE401C80C82
:1019C000D91CCC15DD0569F4CB2DDA2D0C0F1D1FAC
:1019D000C017D10759F06FEFC7010E94EA0B899336
:1019E000F7CF6991C7010E94EA0BEBCFC7010E94B4
:1019F000CF0B81E0DF91CF911F910F91FF90EF907E
:101A0000DF90CF90BF90AF909F908F9008958F926E
:101A10009F92AF92BF92CF92DF92EF92FF920F937D
:101A20001F93CF93DF937C01B62EA72E6A01490145
:101A30000E94D70BE401080D191DC017D10761F4EE
:101A4000CB2DDA2DCC0EDD1ECC15DD0551F06991C4
:101A5000C7010E94EA0BF8CF6991C7010E94EA0B07
:101A6000ECCFC7010E94CF0B81E0DF91CF911F9196
:101A70000F91FF90EF90DF90CF90BF90AF909F902D
:101A80008F9008951F93CF93DF93EA01122FDC010B
:101A900011968D919C91DC01ED91FC910280F38176
:101AA000E02D1995C817D90729F4812F0E94420A01
:101AB00091E0811190E0892FDF91CF911F910895DE
:101AC000CF93DF93EC018B818823A1F0888191E093
:101AD0009093A2058093C4051092A3051092C505AA
:101AE00081E00E94420A91E0811190E0892FDF910C
:101AF000CF9108950E940A0A81E08B83CE010E9453
:101B0000600D982F8111E2CFF1CFAF92BF92CF92AB
:101B1000DF92EF92FF920F931F93CF93DF931F9269
:101B20001F92CDB7DEB7DC01211103C01A962C91AC
:101B30001A97253008F043C051964D935D936D93ED
:101B40007C93549790E080E0E22EF12C8E159F0557
:101B5000B4F41C962C911C9721110AC0FD01E80FCA
:101B6000F91F4587452F562F672F77270196EECF10
:101B7000F701E81BF90BEA0FFB1F4487F3CF6D0158
:101B80008DE0C80ED11C18969C91189719968C91CF
:101B9000199799838A83AD90BC901197A114B104D1
:101BA00009F441C01B960C9110E098012E0D3F1DC9
:101BB000D50114968D919C918217930710F480E0C3
:101BC00016C0F50181819281208131E03093A20518
:101BD0002093C4051092A3051092C50501151105A7
:101BE00099F421E0A701B601C5010E94420D0F90B2
:101BF0000F90DF91CF911F910F91FF90EF90DF90A9
:101C0000CF90BF90AF900895DC01ED91FC910280E0
:101C1000F381E02DA801BE016F5F7F4F1995081772
:101C2000190769F6DECF1296ED91FC911397309764
:101C300049F116962D913C9117971B960C9110E047
:101C40002330310571F48E7F89839A830F5F1F4F94
:101C50009E012F5F3F4FA701B601CF010E94070DE4
:101C6000C6CF2115310519F49F779983F1CF223022
:101C7000310511F49068F9CF2130310549F79F778C
:101C80009064F3CF1496ED91FC911597309709F479
:101C900096CF8085882309F492CFA680B780A114BF
:101CA000B10409F48CCF870196011B964C91BE01BB
:101CB0006F5F7F4F81859285F501199598CF0895C3
:101CC00008950F931F93CF93DF93EC018A018881CE
:101CD00061157105D9F461E00E948F0360E08A818B
:101CE0000E948F03CC8161E08C2F0E941B0460E076
:101CF0000115110521F00F3F1105B9F461E08C2F9A
:101D0000DF91CF911F910F910C948F03613071057A
:101D100029F460E00E948F0361E0E1CF6330710538
:101D200011F460E0D9CF61E0F5CFB8018C2FDF91DD
:101D3000CF911F910F910C945704EF92FF920F9344
:101D40001F93CF93DF93EC018B017A0188819981F6
:101D50000E94610EA701B8018A819B810E94610ED9
:101D6000A701B8018C819D810E94610EA701B80175
:101D70008E819F81DF91CF911F910F91FF90EF9006
:101D80000C94610ECF93DF93EC014CE350E063E0E1
:101D900070E0888199810E94610E4CE350E063E01D
:101DA00070E08A819B810E94610E4CE350E063E009
:101DB00070E08C819D810E94610E4CE350E063E0F5
:101DC00070E08E819F81DF91CF910C94610ECF9353
:101DD000DF93EC0161E088810E941B0461E08A814D
:101DE0000E941B0461E08C81DF91CF910C941B0455
:101DF000CF93DF93EC011C821D821E821F820E9402
:101E00007C05688779878A879B87DF91CF910895C2
:101E1000CF93DF93EC0161E088810E941B0460E0B6
:101E20008A810E941B040E947C05C256DE4F688393
:101E300079838A839B83DF91CF9108950F931F93BA
:101E4000CF938C01C62F0E94B80B6C2F6460C80121
:101E50000E94B80B6C2F6B7FC8010E94B80B83ECFB
:101E600090E00197F1F7CF911F910F9108950F9393
:101E70001F93CF93DF938C01D62FC42F607F642BE9
:101E80000E941E0F80E1D89FB00111246C2BC80165
:101E9000DF91CF911F910F910C941E0FCF93DF9381
:101EA00000D000D01F921F92CDB7DEB728E0E7E048
:101EB000F2E0DE01119601900D922A95E1F7FC0106
:101EC0002085261710F46FEF620F70E0660F771F02
:101ED00021E030E02C0F3D1F620F731FFB0160817A
:101EE000606840E028960FB6F894DEBF0FBECDBF05
:101EF000DF91CF910C94370FCF93DF93EC0140E04B
:101F000061E00E94370F8BE39FE10197F1F789852C
:101F1000882331F060E0CE01DF91CF910C944E0F19
:101F2000DF91CF91089541E00E94370F81E090E06A
:101F300008952F923F924F925F926F927F928F926D
:101F40009F92AF92BF92CF92DF92EF92FF920F9348
:101F50001F93CF93DF9300D01F92CDB7DEB7DC0184
:101F60004B01042F18969C91189719968C911997EC
:101F700099838A832D903C9011972114310409F4A0
:101F80003AC11B964C9150E0D10114968D919C91D1
:101F900084179507C8F4D12C8D2D0F900F900F90BA
:101FA0000F90DF91CF911F910F91FF90EF90DF90F5
:101FB000CF90BF90AF909F908F907F906F905F90E9
:101FC0004F903F902F900895F101808191E0909380
:101FD000A2058093C4051092A3051092C50520E0C8
:101FE000BE016F5F7F4FC1010E94420DD82E882332
:101FF00091F2802F90E09C838B83B12CA12C01E087
:10200000AB81BC81AA16BB0638F6F10184819581AB
:102010007D01EA18FB088E159F0508F47C01D101AB
:10202000CC900E9425052B013C0180919C058111DB
:1020300072C01E2D113208F010E200939C0521E0C1
:102040008B819C818E199F09A816B90608F420E09F
:1020500020939B05BFEFB0939A05109299058FEFDF
:10206000810F809398050093770580917705CC0CBC
:10207000C82AC092770580917605813009F092C018
:10208000109276050E9425052B013C018091770571
:102090008093BB0080919E0590919F05A091A00523
:1020A000B091A105892B8A2B8B2BA1F00E942505CD
:1020B00020919E0530919F054091A0055091A1056A
:1020C00064197509860997092617370748075907BC
:1020D00008F442C08091BC0083FDD8CFE5ECE093CA
:1020E000BC000E9425052B013C0180919C0581309C
:1020F00009F45CC080919905811710F4109199053D
:10210000A8E7B5E0E6EFF4E080E0811751F19D919A
:1021100091938F5FFACF80919E0590919F05A0913A
:10212000A005B091A105892B8A2B8B2B09F47DCFBB
:102130000E94250520919E0530919F054091A005A4
:102140005091A10564197509860997092617370763
:102150004807590708F069CF80919D050E94210A20
:1021600010E010927505109374051E151F0409F0F8
:1021700012CF34016A0C7B1C2301C2018619970916
:102180008E159F05A8F5D10111968D919C91DC01CA
:10219000ED91FC910284F385E02D1995F201819374
:1021A0002F01EBCFF5EEF093BC009BCF80919E0505
:1021B00090919F05A091A005B091A105892B8A2B34
:1021C0008B2B09F492CF0E94250520919E0530911A
:1021D0009F054091A0055091A105641975098609D4
:1021E0009709261737074807590708F07ECFB4CF5D
:1021F000AE0CBF1C05CF1296ED91FC911397309752
:1022000049F116962D913C91179710E01B964C9131
:1022100050E02330310571F4816089839A834F5FE8
:102220005F4F9401BE016F5F7F4FCF010E94CB0CC7
:10223000D82EB2CE2115310519F490689983F1CFCB
:102240002230310511F49F77F9CF2130310549F75C
:10225000906CF4CF1496ED91FC911597309709F49A
:102260009ACE8085882309F496CEE480F580E11427
:10227000F10409F490CE10E09B011B964C91BE0135
:102280006F5F7F4F81859285F7011995D1CFCF93ED
:10229000DF93EC01BC01635F7F4F4A850E94990F79
:1022A000882301F14A8550E030E020E060E070E0F2
:1022B000CB0124173507CCF4982F872F762F66276C
:1022C000EC85E1110AC0FA01E21BF30BEC0FFD1FD4
:1022D000E4856E2B2F5F3F4FECCFFE01E20FF31F23
:1022E000E585F7CF6FEF7FEFCB01DF91CF910895B9
:1022F0008F929F92AF92BF92CF92DF92EF92FF9216
:102300000F931F93CF93DF93EC014A015B01888108
:1023100099810E9447112A8101E010E002C0000F5C
:10232000111F2A95E2F701501109012E000C220B12
:10233000330BAB81680179010A2E04C0CC0CDD1C83
:10234000EE1CFF1C0A94D2F7C094D094E094F09451
:10235000C622D722E822F922E881F981B901A80131
:10236000482159216A217B2104C0440F551F661F53
:10237000771FAA95D2F74C295D296E297F292285DE
:10238000CF01DF91CF911F910F91FF90EF90DF90E0
:10239000CF90BF90AF909F908F900C94850D0F932E
:1023A0001F93CF93DF93EC01888199810E9447119D
:1023B000AB01BC012A8181E090E002C0880F991F27
:1023C0002A95E2F70197092E000CAA0BBB0B2B8173
:1023D00004C076956795579547952A95D2F78C0155
:1023E0009D010423152326233723C901B801DF915A
:1023F000CF911F910F910895AF92BF92CF92DF922C
:10240000EF92FF920F931F93CF93DF93CDB7DEB779
:10241000EC970FB6F894DEBF0FBECDBF8C01FC0168
:10242000868D978D1FA218A619A61AA69F8B8E8B34
:10243000198E188EFF24F394F9A28BE390E09F8FFE
:102440008E8F1AA28EE088A34EE0BE01655D7F4F9D
:10245000CE0146960E94990F8BA59CA598278927A7
:102460009827F80195A784A78DA59EA59827892769
:10247000982797A786A78FA598A99827892798278F
:1024800091AB80AB69A97AA976276727762773ABCA
:1024900062AB8BA99CA998278927982795AB84AB19
:1024A0008DA99EA998278927982797AB86AB8FA9D6
:1024B00098AD98278927982791AF80AF072E000CF9
:1024C000880B990B0E949D3F20E030E04AEA53E4DC
:1024D0000E94F74128EB3EE142E152E40E9419419B
:1024E000F8016283738384839583868D978D1A8A1E
:1024F0001B8A1C8A1D8A9A8389831C821B82FC8604
:102500008CE190E09A8789871D86FB86CE01019633
:102510005C019AAF89AF82E08BAF83E08CAFCE01D4
:10252000C9960E94CF11C12CD12CE12CE5E4FE2EDE
:1025300063307105E1F06230710599F06130710529
:1025400009F4D6C0C12CD12CF0E8EF2EFFE3FF2E0A
:10255000672B69F4C12CD12C50E8E52E56E4F52EFA
:1025600006C0C12CD12C70E8E72E75E4F72EF801D7
:1025700064A575A5072E000C880B990B0E949D3F42
:10258000A70196010E94F741F8016683778380874F
:10259000918766A577A5072E000C880B990B0E94E2
:1025A0009D3FA70196010E94F741F801628773875A
:1025B0008487958760A971A9072E000C880B990B59
:1025C0000E949D3FA70196010E94F741F80166878E
:1025D0007787808B918B868D978D1A8A1B8A1C8AB0
:1025E0001D8A9A8389831C821B8281E08C872BE160
:1025F00030E03A8729871D868B87BAAEA9AE82E084
:102600008BAF83E08CAFCE01C9960E94CF11C12C55
:10261000D12C33E0E32E33E4F32E6115710519F16B
:10262000C12CD12C23E8E22E22E4F22E6130710578
:10263000D1F093E3C92EDC2C93E0E92E92E4F92E3D
:102640006230710581F0C12CD12C40E8E42E4FE3BB
:10265000F42E6330710539F483E3C82EDC2C83E853
:10266000E82E81E4F82EF80164A975A9072E000C64
:10267000880B990B0E949D3FA70196010E94F7418C
:10268000F801628B738B848B958B66A977A9072ED3
:10269000000C880B990B0E949D3FA70196010E9498
:1026A000F741F801668B778B808F918F60AD71ADAC
:1026B000072E000C880B990B0E949D3FA7019601E5
:1026C0000E94F741F801628F738F848F958FEC968B
:1026D0000FB6F894DEBF0FBECDBFDF91CF911F9133
:1026E0000F91FF90EF90DF90CF90BF90AF90089543
:1026F000C12CD12CE12C66E4F62E39CFCF93DF9399
:10270000EC0188819981009711F00E94203C198288
:1027100018821D821C821B821A82DF91CF9108953C
:10272000FC0180819181009711F00C94203C089568
:102730000C94203C0C94203C0C94203C9F92AF9233
:10274000BF92CF92DF92EF92FF920F931F93CF939E
:10275000DF93CDB7DEB7AE970FB6F894DEBF0FBEEE
:10276000CDBF8C01DC0197965C934E939697CA017E
:10277000019699969C938E9398974E5F5F4F9B9688
:102780005C934E939A975E962D913C911FA218A64A
:1027900019A61AA63F8B2E8B198E188E81E089A35D
:1027A0004BE650E05F8F4E8F1AA288A31A8A1B8ACD
:1027B0001C8A1D8A3A8329831C821B828C8728E607
:1027C00030E03A8729871D868B875E01B6E1AB0E24
:1027D000B11CBCA6ABA68DA787E08EA741E050E058
:1027E00060E070E0CE018B960E947811CE018B964E
:1027F0000E94CF11613071058105910539F461E0C6
:1028000070E080E090E00E944A05F0CF64E670E05E
:1028100080E090E00E944A0520E047E050E060E060
:1028200070E0FE0131966F01CF010E94850D64E6D4
:1028300070E080E090E00E944A05D8015E968D919C
:102840009C911A8A1B8A1C8A1D8A9A8389831C82FE
:102850001B82FF24F394FC8689E190E09A878987A4
:102860001D86FB8620E040E050E0BA01C6010E94D0
:10287000850DF801868D978D1A8A1B8A1C8A1D8A00
:102880009A8389831C821B82FC868AE190E09A8766
:1028900089871D86FB86DF8ACE8A83E0E82EE88E54
:1028A000198E40E050E0BA01C5010E947811D801AC
:1028B0005E968D919C911A8A1B8A1C8A1D8A9A8326
:1028C00089831C821B82FC868BE190E09A87898732
:1028D0001D86FB86DF8ACE8A92E0992E988EE98E3D
:1028E00041E050E060E070E0C5010E947811F8011D
:1028F000868D978D1A8A1B8A1C8A1D8A9A838983E2
:102900001C821B82FC868CE190E09A8789871D8659
:10291000FB86DF8ACE8A988EE98E40E050E0BA01CD
:10292000C5010E947811D8015E968D919C911A8AFA
:102930001B8A1C8A1D8A9A8389831C821B82FC86BF
:102940008BE690E09A8789871D86FB8620E041E030
:1029500050E060E070E0C6010E94850D64E670E022
:1029600080E090E00E944A05F80180A191A10097C3
:1029700039F0DC01ED91FC910280F381E02D199595
:10298000F80182A193A1009739F0DC01ED91FC914F
:102990000280F381E02D1995F80184A195A100979B
:1029A00039F0DC01ED91FC910280F381E02D199565
:1029B00086E090E00E94843BFC0186E592E09183F2
:1029C000808380E596E09383828315830483D80116
:1029D0009196FC93EE93909786E090E00E94843B62
:1029E000FC0188E492E09183808381E596E0938303
:1029F000828315830483D8019396FC93EE93929778
:102A000086E090E00E94843BFC018AE392E091839F
:102A1000808382E596E09383828315830483D801C3
:102A20009596FC93EE93949781E0AE960FB6F8944A
:102A3000DEBF0FBECDBFDF91CF911F910F91FF90F1
:102A4000EF90DF90CF90BF90AF909F9008950F933D
:102A50001F93CF93DF938C01EB01DC0114968D91D2
:102A60009C910E94FC11F801048115810E947C0553
:102A7000AB01BC01FE01349680E2DF011D928A9514
:102A8000E9F784E290E0A0E0B0E088839983AA832C
:102A9000BB83F80182A593A5B0E0A0E08C839D8361
:102AA000AE83BF838DE090E0A0E0B0E08887998797
:102AB000AA87BB87488B598B6A8B7B8B82819381DA
:102AC000A481B5818C8B9D8BAE8BBF8B81E0DF9118
:102AD000CF911F910F9108958F929F92AF92BF92C5
:102AE000CF92DF92EF92FF920F931F93CF93DF93DA
:102AF0008C01EB01DC0114968D919C910E94FC11DC
:102B0000F801048115810E947C05FE01349620E2C3
:102B1000DF011D922A95E9F7C12CD12C7601C394CF
:102B2000C882D982EA82FB82F80126A137A1490135
:102B3000B12CA12C8C829D82AE82BF82C886D986A0
:102B4000EA86FB86688B798B8A8B9B8B2AE038EE32
:102B50004CE151E466817781808591850E94FC3F3C
:102B60006C8B7D8B8E8B9F8B2AE038EE4CE151E491
:102B7000D8011A966D917D918D919C911D970E941F
:102B8000FC3F688F798F8A8F9B8F2AE038EE4CE16B
:102B900051E4F80166857785808991890E94FC3F20
:102BA0006C8F7D8F8E8F9F8F81E0DF91CF911F91F2
:102BB0000F91FF90EF90DF90CF90BF90AF909F90DC
:102BC0008F9008953F924F925F926F927F928F9273
:102BD0009F92AF92BF92CF92DF92EF92FF920F93AC
:102BE0001F93CF93DF93EC017B018A0169010E945F
:102BF0007C054B015C01CE010E94FC11F60134966C
:102C000080E2382EDF01832D1D928A95E9F784E258
:102C100090E0A0E0B0E0F60180839183A283B383CB
:102C20008AA59BA5B0E0A0E084839583A683B783A3
:102C30008DE090E0A0E0B0E080879187A287B38725
:102C4000808A918AA28AB38A8A819B81AC81BD8164
:102C5000848B958BA68BB78BF7013496DF01832D80
:102C60001D928A95E9F7412C512C32014394D701EA
:102C70004D925D926D927C9213978EA19FA1B0E0D0
:102C8000A0E0F70184839583A683B78340865186AD
:102C900062867386808A918AA28AB38A2AE038EE95
:102CA0004CE151E46E817F81888599850E94FC3FCB
:102CB000D70154966D937D938D939C9357972AE0FB
:102CC00038EE4CE151E46A857B858C859D850E94B8
:102CD000FC3FF701608F718F828F938F2AE038EE6F
:102CE0004CE151E46E857F85888999890E94FC3F7B
:102CF000D7015C966D937D938D939C935F97F801BC
:102D00003496DF011D923A94E9F7F801408251822E
:102D10006282738288A599A5B0E0A0E08483958340
:102D2000A683B78384E090E0A0E0B0E0808791873D
:102D3000A287B387808A918AA28AB38A25E33AEF71
:102D40004EE85CE36A897B898C899D890E94FC3FFF
:102D5000F801648B758B868B978B25E33AEF4EE8F1
:102D60005CE36E897F89888D998D0E94FC3FD80134
:102D700058966D937D938D939C935B9725E33AEFE3
:102D80004EE85CE36A8D7B8D8C8D9D8D0E94FC3FAF
:102D9000F801648F758F868F978F81E0DF91CF91D7
:102DA0001F910F91FF90EF90DF90CF90BF90AF9069
:102DB0009F908F907F906F905F904F903F9008957D
:102DC0008F929F92AF92BF92CF92DF92EF92FF923B
:102DD0000F931F93CF93DF93EC019C012E573F4F2E
:102DE000AC01425A5F4FBC01665C7F4F0E94E21506
:102DF0000E947C054B015C018E0106551F4FF801B6
:102E000080819181A281B381A5019401281B390B96
:102E10004A0B5B0BCA01B9010E949B3F20E030E0E6
:102E20004AE754E40E94F7416B017C012FE632E14E
:102E300043E85AE30E94963F87FD30C0F801808244
:102E40009182A282B38204501109F097C255DF4FDC
:102E5000288139814A815B8160817181828193817E
:102E60000E94184120E030E044E353E40E94FC3F1C
:102E70002BED3FE049E450E40E94F741A7019601A1
:102E80000E94FC3FF80120813181428153810E94E0
:102E90001941F8016083718382839383DF91CF911D
:102EA0001F910F91FF90EF90DF90CF90BF90AF9068
:102EB0009F908F9008950F931F93CF93DF938C0172
:102EC000EB01DC0114968D919C910E94FC11F8019C
:102ED000048115810E947C05AB01BC01FE01349682
:102EE00080E2DF011D928A95E9F781E090E0A0E0A1
:102EF000B0E088839983AA83BB83F80180A591A55C
:102F0000B0E0A0E08C839D83AE83BF8384E090E03B
:102F1000A0E0B0E088879987AA87BB87488B598B48
:102F20006A8B7B8B25E33AEF4EE85CE36289738919
:102F3000848995890E94FC3F6C8B7D8B8E8B9F8B47
:102F400025E33AEF4EE85CE3D80156966D917D910A
:102F50008D919C9159970E94FC3F688F798F8A8F41
:102F60009B8F25E33AEF4EE85CE3F801628D738DA9
:102F7000848D958D0E94FC3F6C8F7D8F8E8F9F8FEF
:102F800081E0DF91CF911F910F9108958F929F92D1
:102F9000AF92BF92EF92FF920F931F93CF93DF9365
:102FA000EC018B014C815D8170E060E089859A8540
:102FB0000E94A544CE010E947607EA80FB80E114BE
:102FC000F104D1F0F801EE0FFF1FE00FF11FEF5DEC
:102FD000FD4F80819181A28110E000E04C01AA2E7A
:102FE000B12CA5019401B801CE010E940A070F5F20
:102FF0001F4FE016F106A9F7CE01DF91CF911F9187
:103000000F91FF90EF90BF90AF909F908F900C9496
:1030100076070F931F93762F89019A0190E0FC01A8
:10302000E65FF94F6491FC01E659F94FE4917111A3
:10303000762FF0E0EE0FFF1FE653FA4F8591949143
:10304000472F0E949C2D611571058105910529F07E
:103050006F5F7F4F8F4F9F4F9F701F910F9108950C
:103060002F923F924F925F926F927F928F929F9298
:10307000AF92BF92CF92DF92EF92FF920F931F9386
:10308000CF93DF93CDB7DEB762970FB6F894DEBF6C
:103090000FBECDBF1C017A83698310E000E0412C94
:1030A000512C320143E0842E912C53E2A52EB12CF9
:1030B00060E0D1018C910E948F03C4010197F1F768
:1030C00061E0F10180810E948F03C5010197F1F752
:1030D00060E0D1018C910E948F032CEC3BE540E035
:1030E00050E061E0F10182810E9409180E949D3F39
:1030F00026E933E44BE05DE30E94FC3F20E030E052
:1031000040E05FE30E94FC3F6B017C0120E030E087
:1031100040E85FE30E94963F18160CF0CDC020E017
:1031200030E048EC53E4C701B6010E94284318166A
:1031300034F4C12CD12C3AEFE32E33E4F32EA70163
:103140009601C301B2010E9419412B013C01298162
:103150003A812130310531F065E070E080E090E0A7
:103160000E944A050F5F1F4F49815A81401751073E
:1031700009F09ECFBA01550F880B990B0E949D3F15
:103180009B01AC01C301B2010E94F7410E94694258
:10319000072E000C880B990B0E949D3F6B017C0150
:1031A0000E947C056F83788789879A87F101E256B0
:1031B000FE4F80819181A281B3818F809884A98400
:1031C000BA84881A990AAA0ABB0A54E68516910499
:1031D000A104B10408F4CEC0C501B40124E630E076
:1031E00040E050E00E94E7403A832983F101E45631
:1031F000FE4F808191818D599F4F64E670E00E945F
:103200009F43DC011396AA0FBB1FAA0FBB1FA20D81
:10321000B31D2D913D914D915C912B833C834D834A
:103220005E8301E010E0FC87EB8789819A81092E9B
:10323000000CAA0BBB0B8D879E87AF87B88BA9812B
:10324000BA81A017B1070CF478C0EB85FC858081AA
:103250009181019664E670E00E949F439A8B898B6E
:103260009183808320E030E0A9016B817C818D8196
:103270009E810E94963F29893A892D5F3F4F3A8B64
:10328000298B87FD05C049815A8143335105C4F01C
:10329000A989BA89AA0FBB1FAA0FBB1FA20DB31D14
:1032A000FD01C082D182E282F3820436110509F465
:1032B00044C00F5F1F4FC3CFC12CD12C76013FCF2D
:1032C00029893A89220F331F220F331F220D331D04
:1032D0003A8B298B2B813C814D815E81C701B601E0
:1032E0000E9418412B013C01B801012E000C880BF3
:1032F000990B0E949D3F9B01AC01C301B2010E944A
:10330000FC3F2B013C016D857E858F8598890E944D
:103310009D3F9B01AC01C301B2010E94F7412B818B
:103320003C814D815E810E941941A989BA896D93C2
:103330007D938D939C931397B8CFF101E256FE4F86
:10334000FA83E983C501B40124E630E040E050E0AF
:103350000E94E7402F81388549855A85261B370B07
:10336000480B590BDA01C901E981FA818083918305
:10337000A283B383C701B60162960FB6F894DEBF8D
:103380000FBECDBFDF91CF911F910F91FF90EF90B6
:10339000DF90CF90BF90AF909F908F907F906F9075
:1033A0005F904F903F902F900895CF92DF92EF92D1
:1033B000FF927C010E94E016F701EA55FF4F608101
:1033C00071818281938120E030E044EB53E40E94DC
:1033D000AA426B017C0120E030E0A9010E94963FE7
:1033E00087FF0AC020E030E044EB53E4C701B60198
:1033F0000E9419416B017C01C701B601FF90EF905B
:10340000DF90CF9008952F923F924F925F926F92EC
:103410007F928F929F92AF92BF92CF92DF92EF9264
:10342000FF920F931F93CF93DF93CDB7DEB7E4974F
:103430000FB6F894DEBF0FBECDBF8C01CE01019652
:103440001C01FE01B996FAA7E9A77C016801F2E820
:10345000CF0ED11CC801825A9F4F9CA78BA7F801A1
:10346000FA96FEA7EDA70C9798AB8FA77C96FAABC0
:10347000E9AB04979CAB8BAB96014BA55CA56DA506
:103480007EA5C8010E94E215EFA5F8A960817181AF
:1034900082819381E9A9FAA980809180A280B3807A
:1034A0009B01AC010E94FC3F2B013C01A501940152
:1034B000C501B4010E94FC3F9B01AC01C301B201F4
:1034C0000E9419410E943B439B01AC01EBA9FCA95E
:1034D00080819181A281B381BC01CD0190580E946D
:1034E000984120E030E044E353E40E94FC3F2BEDA0
:1034F0003FE049E450E40E94F741F7016193719382
:10350000819391937F0161E070E080E090E00E9400
:103510004A0589A59AA5E816F90609F0ADCF61011B
:1035200094E2C90ED11C7101F10180809180A280CA
:10353000B380F7014480558066807780A3019201B3
:10354000C501B4010E942843181654F4F1014082C9
:10355000518262827382F70184829582A682B78249
:10356000F4E0EF0EF11CEC14FD04F1F6E4E02E0E95
:10357000311C2E143F04B9F6F801E654FF4F808049
:103580009180A280B3802D893E894F89588D6989A9
:103590007A898B899C890E94194120E030E040E0C3
:1035A0005FE30E94FC3FA50194010E94FC3F2B01B8
:1035B0003C01780186EBE80EF11CA501940160E066
:1035C00070E080E89FE30E941841F701208131817B
:1035D000428153810E94FC3F9B01AC01C301B201B7
:1035E0000E941941F701608371838283938334972A
:1035F00020813181428153810E941841905823ECEF
:1036000035EF48E85FE30E94FC3FE4960FB6F8947C
:10361000DEBF0FBECDBFDF91CF911F910F91FF9005
:10362000EF90DF90CF90BF90AF909F908F907F9062
:103630006F905F904F903F902F900895FB01019005
:103640000020E9F73197AF01461B570BDC01ED91E4
:10365000FC910280F381E02D19948F929F92AF929A
:10366000BF920F931F93CF93DF93CDB7DEB7A19790
:103670000FB6F894DEBF0FBECDBF19A2423008F4DA
:103680004AE08E010F5D1F4F842E912CB12CA12C8E
:10369000A50194010E94E740E62FB901CA01EA3072
:1036A00004F5E05DD801EE938D01232B242B252B0F
:1036B00079F790E080E0109729F0BD0186EC95E065
:1036C0000E941E1BA1960FB6F894DEBF0FBECDBFA1
:1036D000DF91CF911F910F91BF90AF909F908F90EE
:1036E0000895E95CDFCFCF92DF92EF92FF92CF9304
:1036F000DF936B017C016DE286EC95E00E94500641
:10370000EC0166277727CB016C197D098E099F098B
:103710004AE00E942D1B8C0F9D1FDF91CF91FF90DF
:10372000EF90DF90CF900895BC01990F880B990B13
:1037300097FD0C94731B4AE00C942D1B4F925F92E3
:103740006F927F928F929F92AF92BF92CF92DF92B1
:10375000EF92FF920F931F93CF936B017C01742E16
:10376000AC019B010E947F4366E972E0811126C093
:1037700046015701E894B7F82FEF3FEF4FE75FE7B7
:10378000C501B4010E947F4381110CC02FEF3FEFB0
:103790004FE75FE7C501B4010E94963F6AE972E016
:1037A000181664F02FEF3FEF4FE75FE4C701B60153
:1037B0000E9428431816ACF46EE972E086EC95E09E
:1037C000CF911F910F91FF90EF90DF90CF90BF901E
:1037D000AF909F908F907F906F905F904F900C94E0
:1037E0001E1B2FEF3FEF4FE75FECC701B6010E94B2
:1037F000963F87FDE1CF20E030E0A901C701B60187
:103800000E94963F10E000E087FF0AC06DE286EC60
:1038100095E00E9450068C01F7FAF094F7F8F094C6
:10382000C0E060E070E080E09FE37C1641F020E0C3
:1038300030E040E251E40E94F741CF5FF6CFA701AC
:1038400096010E9419412B013C010E9470424B01DC
:103850005C014AE00E942D1B7C01E00EF11ECC238E
:10386000C1F1C501B4010E949B3F9B01AC01C301A2
:10387000B2010E9418414B015C016EE286EC95E0BA
:103880000E945006E80EF91EC15018F120E030E009
:1038900040E251E4C501B4010E94FC3F2B013C0110
:1038A0000E9470424B01B12CA12C4AE0C501B40129
:1038B0000E942D1BE80EF91EC501B4010E949B3F1A
:1038C0009B01AC01C301B2010E9418414B015C0194
:1038D000DBCFC701CF911F910F91FF90EF90DF9049
:1038E000CF90BF90AF909F908F907F906F905F90A0
:1038F0004F900895CF93DF9342E00E949E1BEC010E
:1039000062EA72E086EC95E00E941E1B8C0F9D1F00
:10391000DF91CF910895CF93DF93BC0186EC95E0C2
:103920000E941E1BEC0162EA72E086EC95E00E94A8
:103930001E1B8C0F9D1FDF91CF9108958F929F9238
:10394000AF92BF92CF92DF92EF92FF921F93CF93ED
:10395000DF93EC010E947C05C884D984EA84FB844F
:103960006C197D098E099F09683E73408105910598
:1039700090F161E070E0CE010E9430186B017C0193
:103980008C809D80AE80BF8020E030E0A901C50121
:10399000B4010E94963F8823A1F020E030E043EC80
:1039A00053E4C701B6010E94284387FF0AC020E004
:1039B00030E043EC53E4C501B4010E94284387FD85
:1039C0000CC0CC82DD82EE82FF820E947C0568877B
:1039D00079878A879B8710E04AC0A5019401C701B7
:1039E000B6010E9418414B015C0120E030E0A901C2
:1039F0000E942843181624F0B7FAB094B7F8B09490
:103A000020E030E040E050E4C501B4010E94963F60
:103A1000182F111F1127111F20E030E040E050E463
:103A2000C501B4010E94963F87FF17C065EA72E0A6
:103A300086EC95E00E941E1B42E0C701B6010E9481
:103A40009E1B61EB72E086EC95E00E941E1B6C8170
:103A50007D818E819F810E947A1CCC82DD82EE82E4
:103A6000FF820E947C05688779878A879B87812FE0
:103A7000DF91CF911F91FF90EF90DF90CF90BF909B
:103A8000AF909F908F900895CF93DF93EB01682FB5
:103A900085E097E00E944E0F4C815D8168817981BD
:103AA00085E097E00E9488050C80DD81C02DC4313F
:103AB000D10544F465E273E085E097E00E941E1BA7
:103AC0002196F5CFDF91CF910895CF93DF930E9498
:103AD0009D06EC0162EA72E086EC95E00E941E1BF6
:103AE0008C0F9D1FDF91CF910895CF93DF93FC0141
:103AF000448155816081718186EC95E00E94880542
:103B0000EC0162EA72E086EC95E00E941E1B8C0FCD
:103B10009D1FDF91CF910895CF93DF93BC01990F43
:103B2000880B990B97FF0EC00E94731BEC0162EA91
:103B300072E086EC95E00E941E1B8C0F9D1FDF91AA
:103B4000CF9108954AE00E942D1BF0CF0F931F9351
:103B5000CF93DF93EC0188819981009759F02A81F6
:103B60003B812617370730F081E0DF91CF911F911D
:103B70000F9108958B016F5F7F4F0E94BB430097A9
:103B800059F0998388831B830A832C813D81232BE1
:103B900059F7FC011082E8CF80E0E7CFEF92FF9267
:103BA0000F931F93CF93DF936115710541F480E06C
:103BB000DF91CF911F910F91FF90EF9008954115E4
:103BC0005105B1F07B01EC010C811D81040F151F23
:103BD000B8010E94A61D882351F3288139818C8168
:103BE0009D81B701820F931F0E94B7441D830C83F0
:103BF00081E0DECFCF93DF93EC01FB010190002049
:103C0000E9F73197AF01461B570B0E94CE1D81117A
:103C100003C0CE010E947E13CE01DF91CF910895A3
:103C2000CF93DF93EC01FB01448155816081718169
:103C30000E94CE1D811103C0CE010E947E13CE01D1
:103C4000DF91CF910895EF92FF920F931F93CF933F
:103C5000DF93EC017B018A01BA010E94A61D81114C
:103C60000BC0CE010E947E13CE01DF91CF911F9138
:103C70000F91FF90EF9008951D830C83B701888109
:103C800099810E94B744F0CFFB0101900020E9F731
:103C90003197AF01461B570B0C94231E0F931F93B4
:103CA000CF93DF93CDB7DEB762970FB6F894DEBF40
:103CB0000FBECDBF8C01CB01F8011182108213829F
:103CC0001282158214824AE0BE016F5F7F4F0E940C
:103CD000D03CBE016F5F7F4FC8010E94441E6296B8
:103CE0000FB6F894DEBF0FBECDBFDF91CF911F910D
:103CF0000F910895EF92FF920F931F93CF93DF934D
:103D0000CDB7DEB7E3970FB6F894DEBF0FBECDBFD9
:103D10007C01CB01BA01F701118210821382128259
:103D2000158214828E010F5F1F4F22E044E00E9433
:103D3000663B009789F0BC01C7010E94441EE396D0
:103D40000FB6F894DEBF0FBECDBFDF91CF911F91AC
:103D50000F91FF90EF900895C7010E947E13EFCF5F
:103D6000CF93DF93EC01FB018617970749F0608141
:103D700071816115710541F0448155810E94231EB6
:103D8000CE01DF91CF9108950E947E13F9CFFC01FF
:103D90001182108213821282158214820C94B01E3A
:103DA000FC01118210821382128215821482611525
:103DB000710551F0FB0101900020E9F73197AF0147
:103DC000461B570B0C94231E0895AF92BF92CF92BF
:103DD000DF92EF92FF920F931F93CF93DF936C01CB
:103DE0005B017A0189012417350720F48F2D7901B1
:103DF000042F182F64EA72E0C6010E94D01ED5017C
:103E00001496CD91DC91EC16FD06E0F40C171D071D
:103E100008F4E801D501ED91FC911197EC0FFD1F1D
:103E2000108110826D917C916E0D7F1DC601611510
:103E30007105A1F00E94441EF50180819181C80F97
:103E4000D91F1883C601DF91CF911F910F91FF9069
:103E5000EF90DF90CF90BF90AF9008950E947E13B7
:103E6000EBCF4F925F926F927F928F929F92AF9221
:103E7000BF92CF92DF92EF92FF920F931F93CF9357
:103E8000DF93CDB7DEB72D970FB6F894DEBF0FBE28
:103E9000CDBF88EB92E00E948B1C86EC95E00E94DF
:103EA0001806181619060CF075C164EA72E0CE0106
:103EB00008960E94D01E0E94D80597FD0FC08A3038
:103EC000910561F089831A8241E050E0BE016F5F85
:103ED0007F4FCE0108960E94CE1DEDCFC884D984B5
:103EE000C114D10431F00C851D8576010115110531
:103EF00091F58C849D84F6E08F16910408F061C0E2
:103F000019821B821A821D821C821F821E82CE0190
:103F100008960E94901329813A814B815C816D81C2
:103F20007E818F8190E02D960FB6F894DEBF0FBE94
:103F3000CDBFDF91CF911F910F91FF90EF90DF9058
:103F4000CF90BF90AF909F908F907F906F905F9039
:103F50004F900895750157018FEFA81AB80AF7011D
:103F60008081082E000C990B0E947D3F892B91F7D0
:103F7000015011090C0D1D1DF8018081082E000C47
:103F8000990B0E947D3F892B31F00E151F0518F00B
:103F900001501109F1CFA8014F5F5F4F4E195F0922
:103FA0005D874C87CE14DF0420F4B701C6010E9460
:103FB0009C44E885F9858C859D85E80FF91F108262
:103FC00098CFE884F9846AE370E0C7010E94AC44AA
:103FD0006C01CE18DF08892B19F4CC24CA94DC2C90
:103FE00056018FEFA81AB80AA814B90460F46AE35E
:103FF00070E0C7018A0D9B1D0E94AC448C010E1914
:104000001F09892B11F40FEF1FEFF701E80DF91DC0
:10401000F0801082688479846AE370E0C3010E94B2
:10402000CD44860C971CF401F082009709F43FC040
:10403000288539857C01E21AF30AFFEFCF16DF06E7
:1040400009F45ECF0F3F100709F45ACFEFEFEE16D9
:10405000FE0609F455CF0E151F0509F451CF48850A
:1040600059856C857D8590E080E08617970719F16A
:104070008C159D05D1F080179107B9F08E159F051D
:10408000A1F0FA01E80FF91F4115510521F4109232
:104090006B05EBE6F5E02081022E000C330B20537C
:1040A00031092A30310508F02BCF0196DECFEE24FE
:1040B000EA94FE2CC2CF960150E040E0BE01685F5A
:1040C0007F4FCE0101960E94E51E89819A8100975B
:1040D00009F458C00E94A93C6B01CE0101960E94D0
:1040E00090139801A501BE01685F7F4FCE01019634
:1040F0000E94E51E89819A81009709F447C00E94B9
:10410000A93C5B01CE0101960E949013A8014F5F6C
:104110005F4F9701BE01685F7F4FCE0101960E94FD
:10412000E51E89819A81412C512C3201009719F0AA
:104130000E94A93C2B018201CE0101960E9490139E
:1041400082EF95E00E949D06C6010E94941B8BEEB3
:1041500095E00E949D06C5010E94941B84EE95E0A7
:104160000E949D06C2010E948C1DCE0108960E94ED
:10417000901381E08983DB82CA82BD82AC821F8377
:104180000E83C9CE60E070E0CB01A6CF60E070E0A6
:10419000CB01B7CF80E0EECF85ED8093BC0080915E
:1041A0009E0590919F05A091A005B091A10507964D
:1041B000A11DB11D23E0B695A795979587952A95E2
:1041C000D1F72091BC0024FD03C010929C050895F6
:1041D00040919E0550919F056091A0057091A105A9
:1041E000452B462B472B69F30097A105B10541F0FC
:1041F0002AE22A95F1F700C00197A109B109E1CFA0
:1042000080919D050C94210A0F931F93CF93DF9308
:104210008C01EB0188E2FB0111928A95E9F74BE0F2
:1042200050E067EC72E0CE010E94BE441B8681E044
:1042300090E0A0E0B0E08C879D87AE87BF87F80153
:1042400082819381092E000CAA0BBB0B888B998B62
:10425000AA8BBB8B8DE090E0A0E0B0E08C8B9D8BB7
:10426000AE8BBF8B1CA21DA21EA21FA280E090E0FD
:10427000A0E2B2EC8C8F9D8FAE8FBF8F80E090E07C
:10428000A2EDB2E4888F998FAA8FBB8F84E09DEA5C
:10429000A0E4BBE388A399A3AAA3BBA3DF91CF911A
:1042A0001F910F9108950F931F93CF93DF938C016C
:1042B000EB0188E2FB0111928A95E9F74BE050E0AF
:1042C00061ED72E0CE010E94BE441B8641E050E0E9
:1042D00060E070E04C875D876E877F87F8018281A0
:1042E0009381092E000CAA0BBB0B888B998BAA8B90
:1042F000BB8B4C8B5D8B6E8B7F8B1CA21DA21EA279
:104300001FA28AE098EEACE1B3EC8C8F9D8FAE8F4C
:10431000BF8F8AE098EEACE1B3E4888F998FAA8FC3
:10432000BB8F83E29BEDA9E7BDE388A399A3AAA372
:10433000BBA3DF91CF911F910F9108950F931F930E
:10434000CF93DF938C01EB0188E2FB0111928A95F8
:10435000E9F74BE050E06BED72E0CE010E94BE4405
:104360001B8681E090E0A0E0B0E08C879D87AE875F
:10437000BF87F80182819381092E000CAA0BBB0B29
:10438000888B998BAA8BBB8B84E090E0A0E0B0E097
:104390008C8B9D8BAE8BBF8B1CA21DA21EA21FA25D
:1043A00087ED93EAABE0B2EC8C8F9D8FAE8FBF8F21
:1043B00087ED93EAABE0B2E4888F998FAA8FBB8F29
:1043C0008AE99BEAABE0B9E388A399A3AAA3BBA3BC
:1043D000DF91CF911F910F9108954F925F926F924D
:1043E0007F928F929F92AF92BF92CF92DF92EF9285
:1043F000FF920F931F93CF93DF93CDB7DEB7C554D2
:10440000D1090FB6F894DEBF0FBECDBF0E947C0568
:104410006B017C018091000240E050E0BA018823EA
:1044200021F048E853E160E070E00091F20410915F
:10443000F3042091F4043091F50446015701801AE9
:10444000910AA20AB30A95018401041715072607E9
:10445000370780F091E0892780930002C092F20430
:10446000D092F304E092F404F092F50485E097E032
:104470000E947C0F8091EE049091EF04A091F004D3
:10448000B091F10497018601081B190B2A0B3B0B15
:10449000D901C80184369105A105B10508F4AAC166
:1044A000C092EE04D092EF04E092F004F092F10496
:1044B00080910002882309F4BEC161E070E082E0CF
:1044C00098E00E9430180E946942CE01C4960E9472
:1044D0004E1E61E070E084EA99E00E9430180E946C
:1044E0006942CE018E960E944E1E61E070E086E425
:1044F0009BE00E9430180E946942CE0188960E947B
:104500004E1E61E070E088EE9CE00E9430180E9430
:104510006942CE0182960E944E1E64E073E0CE0195
:1045200001960E94D01EBE016E5D7F4FCE010196A6
:104530000E94101E66E073E00E94FA1DBE01685DD5
:104540007F4F0E94101E69E073E00E94FA1DBE01B9
:10455000625D7F4F0E94101E6CE073E00E94FA1DA6
:10456000BE016C5C7F4F0E94101EBC01CE01CA963A
:104570000E94C71ECE0101960E949013CE01829622
:104580000E949013CE0188960E949013CE018E96C1
:104590000E949013CE01C4960E949013BE01665CE7
:1045A0007F4FCE0101960E94C71EBE016F5F7F4FF5
:1045B00090E080E00E94441DCE0101960E9490137D
:1045C00084E497E00E94031A0E946942CE01C496D7
:1045D0000E944E1E84E497E00E94D5190E94694211
:1045E000CE018E960E944E1E60E0809116070E94BA
:1045F0008F0360E0809118070E948F0320E23EE461
:1046000040E050E060E080911A070E9409182B01F9
:1046100061E0809116070E948F0361E08091180786
:104620000E948F0320E23EE440E050E060E0809191
:104630001A070E9409186B0160E0809116070E941A
:104640008F0361E0809118070E948F0320E23EE40F
:1046500040E050E060E080911A070E940918411480
:10466000510439F4C114D10421F46115710509F420
:10467000D9C0A0914207B091430740912C075091B7
:104680002D07E0912E07F0912F0720912A073091F6
:104690002B074201821A930A940197FE03C03195B9
:1046A00021953109A217B307BCF09601241B350BE5
:1046B00037FF03C0319521953109A217B30764F084
:1046C0009B012E1B3F0B37FF03C03195219531090C
:1046D000A217B3070CF0A9C04091320750913307DD
:1046E000E0913407F0913507209130073091310780
:1046F000421A530A57FE03C0519441945108A4151D
:10470000B5050CF495C0C41AD50AD7FE03C0D194E0
:10471000C194D108AC15BD050CF48AC06E1B7F0B8B
:1047200077FF03C0719561957109A617B7070CF45F
:104730007FC068EF72E0CE0101960E94D01E24E097
:1047400030E050E040E0BE016F5F7F4FCE018296C7
:104750000E94E51EBE016E5D7F4FCE0188960E94CD
:10476000C71E6FE073E0CE0188960E94FA1DBE015D
:10477000625D7F4F0E94101E63E173E00E94FA1D8C
:10478000BE016C5C7F4F0E94101EBC01CE01805C9C
:104790009F4F0E94C71ECE0188960E949013CE01A3
:1047A00082960E949013CE0101960E949013CE0132
:1047B0008E960E949013CE01C4960E949013BE0163
:1047C000605C7F4FCE0101960E94C71EBE016F5FE5
:1047D0007F4F81E090E00E94441DCE0101960E942F
:1047E0009013CE01805C9F4F0E949013CE01CA9619
:1047F0000E949013CB5BDF4F0FB6F894DEBF0FBE65
:10480000CDBFDF91CF911F910F91FF90EF90DF907F
:10481000CF90BF90AF909F908F907F906F905F9060
:104820004F90089565EE72E086CF62EF72E083CF1D
:104830006DEF72E080CF0E947C0500915A051091C7
:104840005B0520915C0530915D05601B710B820B4F
:10485000930B1DAA1CAA1FAA1EAA19AE18AE2AE005
:10486000AE014F5F5F4F0E94F03CBE016F5F7F4F14
:10487000CE01C4960E94441E64E170E0CE018E9683
:104880000E944E1E64E170E0CE0188960E944E1E8A
:1048900067E173E0CE0182960E94D01EBE01685D82
:1048A0007F4FCE0182960E94101E6BE173E00E9442
:1048B000FA1DBE01625D7F4F0E94101E6DE173E024
:1048C0000E94FA1DBE016C5C7F4F0E94101EBC014D
:1048D000CE0101960E94C71ECE0182960E949013BF
:1048E000CE0188960E949013CE018E960E9490135E
:1048F000CE01C4960E949013BE016F5F7F4FCE0120
:1049000082960E94C71EBE016E5D7F4F90E080E0E0
:104910000E94441DCE0182960E94901362E273E0D1
:10492000CE0182960E94D01E6FE676E0CE0182967E
:104930000E94101EBC01CE0188960E94C71EBE01B7
:10494000685D7F4F81E090E00E94441DCE01889613
:104950000E949013CE0182960E949013CE01019680
:1049600047CF8F929F92AF92BF92CF92DF92EF92FA
:10497000FF920F931F934B015C010E947C056B011A
:104980007C010E947C056C197D098E099F096815C0
:1049900079058A059B0520F584E497E00E94E016DE
:1049A0000E947C0500916C0510916D0520916E05AB
:1049B00030916F05601B710B820B930B693C710585
:1049C00081059105F0F20E94ED210E947C05609323
:1049D0006C0570936D0580936E0590936F05D1CF34
:1049E0001F910F91FF90EF90DF90CF90BF90AF900D
:1049F0009F908F900895CF92DF92EF92FF920F9346
:104A00001F93CF93DF93CDB7DEB72C970FB6F894F3
:104A1000DEBF0FBECDBF8C010E947C056B017C0107
:104A2000F801808591850E94E01644E650E070E030
:104A300060E0F801808191810E94610E48E750E0BA
:104A400070E060E0F801828193810E94610E44E68B
:104A500050E070E060E0F801848195810E94610E71
:104A600048E750E070E060E0F801868197810E949D
:104A7000610E68EE73E080E090E00E94B124F801DE
:104A8000808591850E94031A20E030E0A9010E94F0
:104A90002843F8012085318518162CF5C9010E949C
:104AA000031A20E030E040E450E40E942843181646
:104AB0005CF40E947C056C197D098E099F096031A8
:104AC000774281059105D8F02C960FB6F894DEBF99
:104AD0000FBECDBFDF91CF911F910F91FF90EF904F
:104AE000DF90CF900895C9010E94031A20E030E0C2
:104AF00040E450EC0E94963F87FDDBCFE5CFF80104
:104B0000808591850E94E016F801808591850E943C
:104B1000031AAB01BC01CE0107960E947A1E67E220
:104B200073E0CE0101960E94D01EBE01695F7F4FE7
:104B3000CE0101960E94101E0E94751DCE010196A5
:104B40000E949013CE0107960E94901348E750E010
:104B500070E060E0F801808191810E94610E40EA7E
:104B600050E070E060E0F801828193810E94610E64
:104B700048E750E070E060E0F801848195810E9490
:104B8000610E40EA50E070E060E0F80186819781B4
:104B90000E94610E74CFCF92DF92EF92FF920F933B
:104BA0001F93CF93DF93EC01888599850E94E016CF
:104BB000888599850E94D5198FE593E00E94651D2F
:104BC0006EE273E08FE696E00E94441E07E310E079
:104BD000888599850E94E016888599850E94031A28
:104BE00020E030E040EE50E40E94963F87FD2EC06A
:104BF000888599850E94D519A80170E060E08881B8
:104C000099810E94610E78012AE0E20EF11CA70151
:104C100070E060E08A819B810E94610EA80170E0D3
:104C200060E08C819D810E94610EA70170E060E0D0
:104C30008E819F810E94610E69E170E080E090E0CA
:104C40000E94B1248701053A110511F60E947C05E6
:104C50006B017C01888599850E94E016888599857D
:104C60000E94031A20E030E040EE50E40E94284306
:104C70001816D4F50E947C056C197D098E099F09D0
:104C8000603177428105910578F5888599850E9484
:104C9000E016888599850E94D5194CED50E070E0AA
:104CA00060E0888199810E94610E4AEF50E070E0D7
:104CB00060E08A819B810E94610E4CED50E070E0C3
:104CC00060E08C819D810E94610E4AEF50E070E0AF
:104CD00060E08E819F810E94610E6AE070E080E05A
:104CE00090E00E94B124B6CF8CE393E00E94651D52
:104CF000CE01DF91CF911F910F91FF90EF90DF9048
:104D0000CF900C94C20E4F925F926F927F928F92CF
:104D10009F92AF92BF92CF92DF92EF92FF920F934A
:104D20001F93CF93DF93EC0140935E0550935F0593
:104D30006093600570936105888599850E94E016EF
:104D40000E947C052B013C010E947C0564197509B9
:104D500086099709603777418105910508F0DEC023
:104D6000888599850E94E016888599850E94D519C5
:104D70009B01AC0180905E0590905F05A09060055E
:104D8000B0906105C501B4010E9418416B017C011E
:104D900020E030E044E353E40E942843181654F422
:104DA00020E030E044EB53E4C701B6010E94184113
:104DB0006B017C0120E030E044E353ECC701B60115
:104DC0000E94963F87FF0AC020E030E044EB53E4A6
:104DD000C701B6010E9419416B017C0120E030E05F
:104DE000A901C701B6010E94284318160CF04FC054
:104DF00020E030E040E751E4C701B6010E94963F51
:104E000087FD5DC0C701B6010E946942AAE0B0E01B
:104E10009B01AC010E94DC4024E630E040E050E021
:104E20000E94BD4049015A018EE3880E911CA11CCD
:104E3000B11C0881198120E030E0A901C701B60149
:104E40000E942843A40118160CF08DC070E060E0A9
:104E5000C8010E94610EA40170E060E08A819B811C
:104E60000E94610EA40161E070E08C819D810E942E
:104E7000610EA40161E070E08E819F810E94610E4D
:104E800061E070E080E090E00E94B1245DCF20E01E
:104E900030E040E751ECC701B6010E9428431816E4
:104EA00074F020E030E0A901C701B6010E94284358
:104EB00018160CF4A7CFC701B6019058A5CFCE01A4
:104EC0000E94C20E888599850E94D5199B01AC016C
:104ED000C501B4010E94184120E030E0A9010E9400
:104EE00028432885398580905E0590905F05A090C5
:104EF0006005B0906105181624F5C9010E94D51906
:104F00009B01AC01C501B4010E94184120E030E0D2
:104F100040E050E40E94963F87FFC3CFCE01DF916F
:104F2000CF911F910F91FF90EF90DF90CF90BF90A6
:104F3000AF909F908F907F906F905F904F900C9468
:104F4000C20EC9010E94D5199B01AC01C501B40173
:104F50000E94184120E030E040E050EC0E942843DD
:104F60001816E4F29ECF61E070E0C8010E94610E65
:104F7000A40161E070E08A819B810E94610EA4011E
:104F800070E060E08C819D810E94610EA40170E060
:104F900060E072CF8F929F92AF92BF92CF92DF92DA
:104FA000EF92FF920F931F93CF93DF93EC014A018F
:104FB0005B0189010E947C056B017C010E947C05DC
:104FC0006C197D098E099F09681579058A059B056D
:104FD000E0F4B801CE010E94C61764EF71E080E0F2
:104FE00090E00E94B1244C815D8170E060E0898591
:104FF0009A850E94A544CE010E94760764EF71E075
:1050000080E090E00E94B124D9CFDF91CF911F9131
:105010000F91FF90EF90DF90CF90BF90AF909F9057
:105020008F9008952F923F924F925F926F927F924E
:105030008F929F92AF92BF92CF92DF92EF92FF92A8
:105040000F931F93CF93DF93CDB7DEB7AB970FB618
:10505000F894DEBF0FBECDBF0D8B1E8B2F8B388F0C
:10506000498F5A8F6B8F002309F41CC11C014E8895
:105070005F88688C798CC0905E05D0905F05E09069
:105080006005F09061056114710409F021C2DC0132
:1050900050968D919C910E94C20E66E070E0F101E5
:1050A000848595850E94C61786E393E00E948B1C39
:1050B000D10150968D919C910E94C20E20915E0567
:1050C00030915F05409160055091610528A339A397
:1050D0004AA35BA361E070E0D10116968D919C918B
:1050E0000E9430186CA37DA38EA39FA30E947C0511
:1050F00068A779A78AA79BA70E947C0528A539A540
:105100004AA55BA5621B730B840B950B6838734132
:105110008105910508F08FC037E3A32EB12C01E47F
:1051200010E04114510461F047E3A42EB12C41E09A
:105130004416510419F421E4A22EB12C07E310E027
:10514000A50161E070E0D10154968D919C910E947F
:10515000610EA50161E070E0F101868997890E94E6
:10516000610EA80161E070E0D10158968D919C918B
:105170000E94610EA80161E070E0F101828D938DC3
:105180000E94610E61E070E0D10116968D919C91B4
:105190000E9430184B015C01AC019B016CA17DA108
:1051A0008EA19FA10E9418416C8F7D8F8E8F9F8F43
:1051B000AB01BC01CE0108960E947A1E6CE473E03C
:1051C000CE0101960E94D01EBE01685F7F4FCE01C6
:1051D00001960E94101E0E94751DCE0101960E942C
:1051E0009013CE0108960E94901320E030E0A901B0
:1051F000C501B4010E94963F8823B1F020E030E061
:1052000048EB51E46C8D7D8D8E8D9F8D0E942843DF
:1052100018168CF020E030E040EC50E4C501B401F9
:105220000E94963F87FD07C06AE070E080E090E052
:105230000E94B12461CFF101808991890E94C20E40
:1052400087E593E00E948B1C61E070E041145104FB
:1052500009F041C0D10112968D919C910E943018A5
:105260004B015C018EE793E00E948B1CC501B401E9
:105270000E947A1C20E030E040EA51E4C501B4010C
:105280000E942843181654F02DEC3CEC4CEC5DE3E6
:10529000C501B4010E94963F18160CF18BE893E00B
:1052A0000E948B1CAB960FB6F894DEBF0FBECDBF2D
:1052B000DF91CF911F910F91FF90EF90DF90CF90F2
:1052C000BF90AF909F908F907F906F905F904F9026
:1052D0003F902F900895F10184819581BFCF83EA9B
:1052E00093E00E94651D20E030E040EF51EC4A94CD
:1052F000452821F020E030E040EF51E468A179A199
:105300008AA19BA10E94194120E030E044EB53E4C4
:105310000E94194120E030E044EB53E40E94AA428D
:10532000AB01BC01D10150968D919C910E948326C6
:10533000F101808991890E94C20E62E070E0D10182
:105340001C968D919C910E94C61768EC70E080E0DD
:1053500090E00E94B1248FE793E00E94651DF10167
:10536000808991890E94C20E83EA93E00E948B1C7F
:10537000D10150968D919C910E94C20E64EF71E014
:1053800080E090E00E94B12488EB93E00E948B1CA7
:105390000E947C054B015C010E947C05681979091B
:1053A0008A099B09683873418105910508F08EC010
:1053B0000E94311F288739874A875B876C877D87E2
:1053C0008E872C8F222309F47AC06B847C8461142D
:1053D000710409F474C087E0FE013896DE0111966D
:1053E00001900D928A95E1F74A805B800E811F81C2
:1053F00068EE73E080E090E00E94B1244CE350E05E
:1054000061E070E0F101808991890E949D0E64EF56
:1054100071E080E090E00E94B124D1015096AD90FF
:10542000BC9020E030E040EA50E4C701B6010E94A1
:10543000194120E030E044EB53E40E9419410E94FE
:105440006942CB0168E671E00E949F43BC01990F5D
:10545000880B990B0E949D3FAB01BC01C5010E94C6
:1054600083264CE350E070E060E0F101808991898F
:105470000E949D0E68EE73E080E090E00E94B124EF
:10548000D10150968D919C910E94C20E8EEB93E0BB
:105490000E948B1CBC8DB1111DC08AEC93E00E9450
:1054A0008B1C70E060E0F101848595850E94C61731
:1054B000D10150968D919C910E94C20EF3CE61E075
:1054C00070E080E090E00E94B12466CF1C8E8CCF0B
:1054D0000A8D1B8D82ED93E00E949D06C2010E9401
:1054E000941B8BEC93E00E949D06C3010E94941BC9
:1054F00084EC93E00E949D06C8010E948C1DB4E0DC
:105500006B16710409F43EC18BED93E00E948B1C75
:10551000B301CE010F960E944E1E6EE774E0CE01DD
:1055200008960E94D01EBE01615F7F4FCE01089693
:105530000E94101E0E94751DCE0108960E949013B5
:10554000CE010F960E949013B301CE010F960E94D8
:105550004E1E6EE774E0CE0108960E94D01EBE017A
:10556000615F7F4FCE0108960E94101EBC018FE63E
:1055700096E00E94B01ECE0108960E949013CE01C4
:105580000F960E9490130E94ED21F101008911896C
:1055900020E030E044EB52E4C701B6014A944528CC
:1055A000D9F50E94184120E030E044EB53E40E941A
:1055B00019410E946942CB0168E671E00E949F4355
:1055C000BC01990F880B990B0E949D3FAB01BC0158
:1055D000C8010E94832661E070E0D10116968D918A
:1055E0009C910E94301820E030E040EA50E40E9494
:1055F0002843F1012089318918168CF44DE250E0DE
:1056000061E070E0C9010E949D0E61E070E080E001
:1056100090E00E94B124DFCF0E941941C4CFC9019C
:105620000E94C20ED1011C968D919C91B1E06B1627
:10563000710409F04EC030E020E048E853E160E03A
:1056400070E00E94CA2792E0A92EB12C86EE93E06A
:105650000E948B1C10E000E0D10152968D909C902E
:1056600060E072E0C4010E943C09F401828D938DD8
:10567000A48DB58D9E5FAF4FBF4F828F938FA48F48
:10568000B58F64EF71E080E090E00E94B124D10119
:1056900052968D909C9068EC7DEFC4010E943C096D
:1056A000F401828D938DA48DB58D88539240A1090C
:1056B000B109828F938FA48FB58F64EF71E080E082
:1056C00090E00E94B1240F5F1F4F0A151B0521F6C1
:1056D0000CC0E2E06E167104A9F524E030E048E861
:1056E00053E160E070E00E94CA2763E070E0D101FE
:1056F0001C968D919C910E94C61768EE73E080E025
:1057000090E00E94B12461E070E0F1018681978110
:105710000E94301820E030E040EA50E40E94963FBA
:10572000D10150962D913C9187FF1CC047E350E07A
:1057300070E060E0C9010E949D0E61E070E080E0D1
:1057400090E0DFCFF3E06F16710479F621E030E0EE
:1057500048E853E160E070E00E94CA27AA24A394BD
:10576000B12C74CFC9010E94C20EB701A601F1018C
:10577000808991890E94832660EF73E08FE696E02E
:105780000E94441ED10116968D919C910E94F80EA4
:10579000F101808191810E94F80E84CD1F920F92B9
:1057A0000FB60F9211242F933F938F939F93AF9334
:1057B000BF938091630590916405A0916505B091B8
:1057C00066053091620523E0230F2D3758F50196C9
:1057D000A11DB11D2093620580936305909364051C
:1057E000A0936505B0936605809167059091680563
:1057F000A0916905B0916A050196A11DB11D809324
:10580000670590936805A0936905B0936A05BF91F9
:10581000AF919F918F913F912F910F900FBE0F905D
:105820001F90189526E8230F0296A11DB11DD2CF17
:105830001F920F920FB60F9211240BB60F922F9357
:105840003F934F935F936F937F938F939F93AF9308
:10585000BF93EF93FF9386EC95E00E942E06FF9195
:10586000EF91BF91AF919F918F917F916F915F91D8
:105870004F913F912F910F900BBE0F900FBE0F9045
:105880001F9018951F920F920FB60F9211240BB60E
:105890000F922F938F939F93EF93FF93E091D605F1
:1058A000F091D7058081E091DC05F091DD0582FD66
:1058B0001DC090818091DF058F5F8F732091E0057F
:1058C000821741F0E091DF05F0E0EA53FA4F958F3F
:1058D0008093DF05FF91EF919F918F912F910F9012
:1058E0000BBE0F900FBE0F901F9018958081F2CFC6
:1058F0001F920F920FB60F9211240BB60F922F9397
:105900003F934F935F936F937F938F939F93AF9347
:10591000BF93EF93FF938091B900887F803609F49D
:105920004DC008F040C0883209F4A9C028F5803184
:1059300009F49DC0C8F4882309F4FBC0883009F439
:1059400096C0FF91EF91BF91AF919F918F917F9101
:105950006F915F914F913F912F910F900BBE0F90E0
:105960000FBE0F901F901895883109F488C08032BF
:1059700041F780939A0514C0803409F49DC040F427
:105980008033B9F38833E9F680939A0585ECB0C08B
:10599000803509F485C0883509F496C0883489F6C5
:1059A0000E94CC20CECF883909F48CC038F58837D6
:1059B00029F050F4883611F0803719F683E080938F
:1059C0009C051092590557C0883809F47BC080396E
:1059D00019F0803809F0B5CF80915905803208F070
:1059E00071C0E091590581E08E0F80935905809137
:1059F000BB00F0E0E75CFA4F80833DC0803B39F0AC
:105A0000E0F4803A09F479C0883A09F09ACF84E04A
:105A100080939C051092380510923705E09172052D
:105A2000F091730519958091370581110FC081E0C0
:105A3000809337051092170509C0803C09F4A6CF62
:105A4000883C09F4A3CF883B09F07BCFE09138056F
:105A500081E08E0F80933805F0E0E95EFA4F808197
:105A60008093BB00909138058091370529C08091C3
:105A700077058093BB0085EC8093BC0062CF90914A
:105A8000990580919805981758F5E091990581E05E
:105A90008E0F80939905F0E0E858FA4F8081E9CFA6
:105AA000E091990581E08E0F809399058091BB006C
:105AB000F0E0E858FA4F808390919905809198051D
:105AC0009817C8F285E8D8CFE091990581E08E0F4C
:105AD000809399058091BB00F0E0E858FA4F8083ED
