:100000000C941F020C9450020C9450020C94500259
:100010000C9450020C9450020C9450020C94500218
:100020000C9450020C9450020C9450020C94500208
:100030000C9450020C9450020C9450020C945002F8
:100040000C9450020C9450020C9450020C945002E8
:100050000C9450020C9450020C9450020C94F11D1C
:100060000C9450020C94651E0C943B1E0C94500290
:100070000C9450020C9450020C9450020C945002B8
:100080000C9450020C9450020C9450020C945002A8
:100090000C9450020C9450020C9450020C949B1E31
:1000A0000C9450020C9450020C9450020C94500288
:1000B0000C9450020C9450020C9450020C94500278
:1000C0000C9450020C9450020C9450020C94500268
:1000D0000C9450020C9450020C9450020C94500258
:1000E0000C945002084AD73B3BCE016E84BCBFFD46
:1000F000C12F3D6C74319ABD56833DDA3D00C77FF8
:1001000011BED9E4BB4C3E916BAAAABE0000008090
:100110003F000C9456030C940E140C94E8030C94BA
:1001200012100C9433040C9452020C94530B0C9444
:10013000B0050C94AE180C942C030C9435080C9458
:1001400048030C9415040C944F270C9419060C9436
:10015000BA030C9498130C944C030C94CE030C9497
:1001600044030C9430030C9448080C941F040C9422
:100170003A030C9448190C9426080C94FC030C9434
:100180003D040C94070C0C9417030C9452030C942C
:1001900023030C9400030C94E0030C942F200C9484
:1001A00010100C9405030C943E030C94E1050C9480
:1001B000B5030C94B0030C9406040C94D8030C946F
:1001C00036030C9483050C9425080C94BF050C94FD
:1001D0004F080C9426030C947C080C9447040C9450
:1001E000F20F0C94C4030C9453130C94F2030C946C
:1001F00029040C94BF080C94D3050C9453020C945E
:1002000066060C941F030C94B7060C941B030C9405
:100210000E100C94520B0C94FD180000000000000E
:1002200000000000000000000000000000000000CE
:1002300000000101010101010101010101010202AE
:100240000202020202020303030303030404040480
:100250000505050505060606060707070808080937
:1002600009090A0A0A0B0B0B0C0C0D0D0D0E0E0FD3
:100270000F1010111112121313141415151616174E
:10028000181819191A1B1B1C1D1D1E1F1F202122A7
:100290002223242526262728292A2A2B2C2D2E2FD7
:1002A000303132333435363738393A3B3C3D3E3FD6
:1002B0004041424445464748494B4C4D4E505152AF
:1002C00054555658595A5C5D5E606163646667694F
:1002D0006A6C6D6F7072737577787A7C7D7F8182BE
:1002E000848688898B8D8F91929496989A9C9EA0F3
:1002F000A2A4A6A8AAACAEB0B2B4B6B8BABCBFC1EC
:10030000C3C5C7CACCCED1D3D5D7DADCDFE1E3E6AB
:10031000E8EBEDF0F2F5F7FAFCFF00002100240015
:1003200027002A002D0030003300010100000401E5
:1003300007010A0100000A0B02090C0D0E08070351
:1003400004010000000000000000000000000000A8
:10035000000000000000000000000000000000009D
:10036000121110000000000000000000000000005A
:10037000000000000000000000000000200023003A
:10038000260029002C002F0032000001000003018C
:100390000601090101021020200808102040102049
:1003A0004080020102010804020101020408102039
:1003B0004080804020100804020180040201804037
:1003C00020100804020108040201010204081020A0
:1003D0004080010204081020408000002200250017
:1003E00028002B002E00310034000201000005011E
:1003F00008010B01050505050705080808080202A4
:1004000002020A0A080804040404010101010101AE
:1004100001010303030303030303040707070C0C91
:100420000C0C0C0C0C0C0202020206060606060658
:1004300006060B0B0B0B0B0B0B0B2F204F2711245E
:100440001FBECFEFD1E2DEBFCDBF00E00CBF13E097
:10045000A0E0B2E0E8E8FCE500E00BBF02C00790D6
:100460000D92A036B107D9F72CE0A0E6B3E001C0A9
:100470001D92A13CB207E1F712E0CEE1D2E000E02C
:1004800006C021970109802FFE010E94232DCD3146
:10049000D10780E00807A9F70E94C7220C94322EEA
:1004A0000C940000089508958230910538F0880F6B
:1004B000991F880F991F05970197F1F708958F925B
:1004C0009F92AF92BF92CF92DF92EF92FF92CF9323
:1004D00020912A0530912B0582179307E8F54B01EF
:1004E000AA24BB24C82DC52ED62EE72EFF24BC2D52
:1004F000A42F20913005222361F0829E4001112417
:10050000C92D2C9D60011124BD2D249FF0011124C3
:10051000AF2FE0913605E0903105F0903205309133
:100520003305E31323C09C01220F331F820F931F57
:100530008E0D9F1DE0913305E80FF92FF11DC0834B
:10054000E0913405E80FF92FF11DB08320913505B6
:10055000820F911DFC01A083CF91FF90EF90DF905F
:10056000CF90BF90AF909F908F900895880F991F64
:10057000880F991F8E0D9F1D472F552766277727B8
:10058000222349F030E0249F7001259FF00C349F16
:10059000F00C11244F2DE80FF92FF11D4083CACF25
:1005A000282F30E0F901EC5CFC4F9491F901EC56F6
:1005B000FC4F44912C503C4FF9012491222309F423
:1005C00035C0992311F191509231F8F4E92FF0E000
:1005D0008827E251FD4F8F4F0C94232D1F032303D7
:1005E000000317031B03050326032C033003360304
:1005F0003A033E034403480305034C0352035603E6
:10060000809180008F7780938000E22FF0E0EE0FE2
:10061000FF1FE652FC4FA591B4918FB7F894EC916F
:10062000611148C040954E234C938FBF089580912F
:1006300080008F7DE8CF80918000877FE4CF84B5F4
:100640008F7784BDE2CF84B58F7DFBCF8091B000E2
:100650008F778093B000D9CF8091B0008F7DF9CF94
:10066000809190008F7780939000CFCF8091900001
:100670008F7DF9CF80919000877FF5CF8091A0008A
:100680008F778093A000C1CF8091A0008F7DF9CF9C
:100690008091A000877FF5CF809120018F77809394
:1006A0002001B3CF809120018F7DF9CF809120016F
:1006B000877FF5CF4E2BB8CFCF93DF9390E0FC012F
:1006C000EC56FC4F24918C509C4FFC018491882364
:1006D000D1F090E0880F991FFC01E65EFC4FA591D8
:1006E000B491FC01E652FC4FC591D49161110EC04A
:1006F0009FB7F8948C91E22FE0958E238C932881FC
:10070000E223E8839FBFDF91CF9108958FB7F894DC
:10071000EC91E22BEC938FBFF6CF982FE82FF0E00F
:10072000EC5CFC4FE491E150E23108F0B0C0F0E045
:100730008827E256FC4F8F4F0C94232DB003B5034E
:10074000BA03C403CE034704D803E003E803F2036B
:10075000FC03060415041F044704290433043D0464
:1007600084B5806884BD67BD089584B5806284BD0A
:1007700068BD0895809180008068809380007093A8
:100780008900609388000895809180008062809342
:10079000800070938B0060938A00089580918000A0
:1007A00088608093800070938D0060938C00089522
:1007B0008091B00080688093B0006093B30008958A
:1007C0008091B00080628093B0006093B40008957F
:1007D000809190008068809390007093990060935E
:1007E00098000895809190008062809390007093AB
:1007F0009B0060939A000895809190008860809398
:10080000900070939D0060939C0008958091A000DB
:1008100080688093A0008091A0008F7B8093A000CF
:100820007093A9006093A80008958091A000806251
:100830008093A0007093AB006093AA00089580910C
:10084000A00088608093A0007093AD006093AC001E
:100850000895809120018068809320017093290180
:100860006093280108958091200180628093200187
:1008700070932B0160932A01089580912001886074
:100880008093200170932D0160932C0108956038AE
:10089000710524F460E0892F0C94D00261E0FBCF55
:1008A0003FB7F8948091D5039091D603A091D703D8
:1008B000B091D80326B5A89B05C02F3F19F001962B
:1008C000A11DB11D3FBFBA2FA92F982F8827BC01AA
:1008D000CD01620F711D811D911D42E0660F771FD2
:1008E000881F991F4A95D1F708950F931F93CF93AF
:1008F000DF9300D000D000D0CDB7DEB780913105B6
:1009000090913205892B09F47CC00E94500400911B
:100910003705109138052091390530913A05601757
:1009200071078207930740F4609337057093380589
:100930008093390590933A05009137051091380559
:100940002091390530913A05601B710B820B930B96
:100950006C32714081059105C0F2F89480912C05AC
:1009600090912D059A838983E0913105F0913205AC
:10097000DF0111968081898790912805E0913B05E0
:10098000F0913C0580913D05992309F445C0908183
:10099000982B98879081809589238F838F818C8372
:1009A00088E08B8358856F8149853B812C818981C3
:1009B0009A81508347FD252F3A952083262F39F0C1
:1009C000441F00C000006083000000C0F2CF38E088
:1009D0004D9160830000019761F7F0933C05E0932F
:1009E0003B0549873B832C839A83898378940E94B3
:1009F00050046093370570933805809339059093C0
:100A00003A0529960FB6F894DEBF0FBECDBFDF9131
:100A1000CF911F910F9108959081982B9887908185
:100A2000809589238F838F818E8388E08D8358857D
:100A30006F8149853D812E8189819A81508347FD4F
:100A4000252F00C000C0208300C000C000C000C02F
:100A500000C060830000262F3A9541F0441F00003B
:100A600000C000C000C000C000C0E8CF38E04D9119
:100A700000C0608300C0019709F7F0933C05E09344
:100A80003B0549873D832E83AFCF8F929F92AF92D4
:100A9000BF92CF92DF92EF92FF924B015C010E94D6
:100AA00050046B017C010E9450046C197D098E0971
:100AB0009F09683E734081059105A8F321E0821AE1
:100AC0009108A108B10888EEC80E83E0D81EE11C89
:100AD000F11C81149104A104B10429F7FF90EF9057
:100AE000DF90CF90BF90AF909F908F9008952FB7D9
:100AF000F8946091D1037091D2038091D3039091C7
:100B0000D4032FBF0895AF92BF92CF92DF92EF929E
:100B1000FF920F931F93CF93DF936C017B018B01A7
:100B2000040F151FEB015E01AE18BF08C017D107F7
:100B300059F06991D601ED91FC910190F081E02D81
:100B4000C6011995892B79F7C501DF91CF911F91C6
:100B50000F91FF90EF90DF90CF90BF90AF900895EE
:100B6000FC01538D448D252F30E0842F90E0821BB3
:100B7000930B541710F0CF96089501970895FC0138
:100B8000918D828D981761F0A28DAE0FBF2FB11D90
:100B90005D968C91928D9F5F9F73928F90E00895E8
:100BA0008FEF9FEF0895FC01918D828D981731F0A2
:100BB000828DE80FF11D858D90E008958FEF9FEFF6
:100BC0000895FC01918D228D892F90E0805C9F4FCC
:100BD000821B91098F739927089583E394E00E9403
:100BE000E10521E0892B09F420E0822F0895FC0122
:100BF000A48DA80FB92FB11DA35ABF4F2C91848D7E
:100C000090E001968F739927848FA689B7892C93DA
:100C1000A089B1898C91837080648C93938D848D2D
:100C2000981306C00288F389E02D80818F7D808330
:100C30000895EF92FF920F931F93CF93DF93EC01F0
:100C400081E0888F9B8D8C8D98131AC0E889F98973
:100C5000808185FF15C09FB7F894EE89FF89608376
:100C6000E889F98980818370806480839FBF81E0F7
:100C700090E0DF91CF911F910F91FF90EF90089539
:100C8000F62E0B8D10E00F5F1F4F0F731127E02E14
:100C90008C8D8E110CC00FB607FCFACFE889F9894C
:100CA000808185FFF5CFCE010E94F705F1CFEB8D56
:100CB000EC0FFD2FF11DE35AFF4FF0829FB7F89420
:100CC0000B8FEA89FB8980818062CFCFCF93DF933E
:100CD000EC01888D8823B9F0AA89BB89E889F98954
:100CE0008C9185FD03C0808186FD0DC00FB607FC89
:100CF000F7CF8C9185FFF2CF808185FFEDCFCE01BC
:100D00000E94F705E9CFDF91CF91089580E090E050
:100D1000892B29F00E94ED0581110E94000080E0DE
:100D200090E0892B49F080E090E0892B29F00E9427
:100D3000000081110E94000080E090E0892B49F0C2
:100D400080E090E0892B29F00E94000081110E9430
:100D5000000080E090E0892B49F080E090E0892B52
:100D600029F00E94000081110C940000089508955C
:100D70002091A903260F3327331F21323105ECF4CC
:100D800020910904FC0190E080E0243069F082E0C9
:100D90000895A091A9032191AC0147575C4FA40F7E
:100DA000B52FB11D2C930196861798F38091A90356
:100DB000680F6093A90380E0089581E00895109280
:100DC000090481E0809308041092E30361E084E168
:100DD0000E94D00261E085E10E94D002E9EBF0E0E0
:100DE00080818E7F808380818D7F808388E4809363
:100DF000B80085E48093BC0008951092E20310923D
:100E0000E10310921004109232040E94DF0682E582
:100E100092E09093E0038093DF0383E592E0909368
:100E2000DE038093DD030895CF93DF9391E09093E9
:100E300088038823B9F0C091B800D091BA0080919E
:100E4000BC008A7B8093BC0060E084E10E94D002F9
:100E500060E085E10E94D0020E94DF06D093BA00D4
:100E6000C093B800DF91CF9108958F929F92AF9277
:100E7000BF92CF92DF92EF92FF920F931F93CF9387
:100E8000DF93D0913204D13208F0D7C0182FC0912F
:100E900031040E9450046B017C018091090481118E
:100EA0006BC082E080930904109308048FEF809355
:100EB000070410920604D0930504A1E1B4E0E5EE26
:100EC000F3E080E0D81391C01092E4038091E40332
:100ED000CC0FC82BC093E4038091E303813009F069
:100EE00088C01092E3030E9450046B017C01809142
:100EF000E4038093BB0080910B0490910C04A091BB
:100F00000D04B0910E04892B8A2B8B2BA1F00E942B
:100F1000500400910B0410910C0420910D043091A9
:100F20000E046C197D098E099F09061717072807FB
:100F3000390708F442C08091BC0083FDD8CF85EC0E
:100F40008093BC000E9450046B017C0180910904D5
:100F5000823009F450C0809107048F3F09F46FC0BC
:100F600080910704803209F46CC0809107048033BB
:100F700009F469C084E026C080910B0490910C04B0
:100F8000A0910D04B0910E04892B8A2B8B2B09F4B0
:100F900084CF0E94500480900B0490900C04A09089
:100FA0000D04B0900E046C197D098E099F098616F8
:100FB0009706A806B90608F070CF80910A040E942F
:100FC000140785E0109210041092320410920F045E
:100FD000DF91CF911F910F91FF90EF90DF90CF9015
:100FE000BF90AF909F908F9008959D9191938F5F48
:100FF00069CF85EEA5CF80910B0490910C04A09150
:101000000D04B0910E04892B8A2B8B2B09F49ECFF3
:101010000E94500400910B0410910C0420910D04C7
:1010200030910E046C197D098E099F090617170768
:101030002807390708F08ACFC0CF81E0C3CF80E00E
:10104000C1CF82E0BFCF83E0BDCF0895E091E2033E
:101050008091E103E81730F4F0E0E859FC4F80811B
:1010600090E008958FEF9FEF08959091E2038091B3
:10107000E1032FEF3FEF981748F4E92FF0E0E8592C
:10108000FC4F208130E09F5F9093E203C9010895F7
:101090008091E1039091E203891B990B0895CF920F
:1010A000DF92EF92FF920F931F93CF93DF937C0118
:1010B000CB018A0120910F04222389F0EB016B01FF
:1010C000C40ED51ECC15DD0569F06991D701ED91EF
:1010D000FC910190F081E02DC7011995F3CF642FA9
:1010E0000E94B806C801DF91CF911F910F91FF9028
:1010F000EF90DF90CF900895CF93DF931F92CDB7FD
:10110000DEB7698320910F042223F9F02091320485
:10111000203258F021E030E0FC013383228390E05C
:1011200080E00F90DF91CF91089580911004E82F17
:10113000F0E0EF5EFB4F998190838F5F8093100406
:101140008093320481E090E0ECCF61E0CE01019623
:101150000E94B806F7CFFC01248131E030930F04E0
:101160002093310410921004109232048485682B6D
:1011700080ED94E00E947C0881E00C94350790E0BB
:1011800080E00895FC0183858F3F19F061E00C94A5
:10119000D0020895FC0180819181892B39F0A281D0
:1011A000B3819C9111968C919CBD8DBD83858F3FA1
:1011B00019F060E00C94D0020895BF92CF92DF92B4
:1011C000EF92FF920F931F93CF93DF93EC018881EF
:1011D0009981892B81F06EBD0DB407FEFDCF0EB550
:1011E000802FDF91CF911F910F91FF90EF90DF90B3
:1011F000CF90BF9008958885998511E0892B09F0DB
:1012000010E8BB24B394862F812309F0B12CF62E6D
:101210002C813D814E815F8160E271EA87E090E040
:101220000E94E22CE22E00E0C22ED12CEE2019F01A
:10123000C6010E9454028A85982F977F09F044C006
:101240008D858F3F89F09F2D912381E009F480E007
:101250008B1551F0EF85F8898F89992379F1908169
:10126000892B8083BB24B394E989FA898081998D85
:10127000892B8083EE2019F0C6010E9454028E85CE
:101280008F3F39F0EB89FC898081988D892309F0A3
:10129000012BE989FA899081898D80958923808342
:1012A00088859985892B09F067C0110F1111BECF70
:1012B0008E858F3F09F094CF0F2D92CF908180952E
:1012C00089238083B12CD0CF8C3099F58D858F3FC9
:1012D00049F0EF85F8898F899F2D912331F1908115
:1012E000892B8083E989FA899081898D809589236A
:1012F0008083EE2019F0C6010E945402E989FA8920
:101300008081998D892B8083EE2019F0C6010E947F
:1013100054028E858F3F21F2EB89FC898081988D64
:10132000892309F4BDCF012BBBCF90818095892300
:10133000D8CFE989FA898081998D892B8083EE2025
:1013400019F0C6010E9454028D858F3F49F0EF8548
:10135000F8898F899F2D912359F09081892B808363
:10136000E989FA899081898D809589238083D1CFFD
:10137000908180958923F3CF169598CF8F929F9275
:10138000AF92BF92CF92DF92EF92FF920F931F9393
:10139000CF93DF937C014B016A01B22EA32E0E94F2
:1013A000CA08E401C80CD91CCC15DD0569F4CB2DA5
:1013B000DA2D0C0F1D1FC017D10759F06FEFC701B1
:1013C0000E94DD088993F7CF6991C7010E94DD086B
:1013D000EBCFC7010E94C20881E0DF91CF911F913E
:1013E0000F91FF90EF90DF90CF90BF90AF909F90C4
:1013F0008F9008958F929F92AF92BF92CF92DF927B
:10140000EF92FF920F931F93CF93DF937C01B62E41
:10141000A72E6A0149010E94CA08E401080D191D9E
:10142000C017D10761F4CB2DDA2DCC0EDD1ECC1503
:10143000DD0551F06991C7010E94DD08F8CF69917F
:10144000C7010E94DD08ECCFC7010E94C20881E0FD
:10145000DF91CF911F910F91FF90EF90DF90CF9090
:10146000BF90AF909F908F9008951F93CF93DF937D
:10147000EA01122FDC0111968D919C91DC01ED9116
:10148000FC910280F381E02D1995C817D90729F442
:10149000812F0E94350791E0811190E0892FDF9123
:1014A000CF911F910895CF93DF93EC018B81882317
:1014B000A1F0888191E090930F0480933104109201
:1014C00010041092320481E00E94350791E08111EE
:1014D00090E0892FDF91CF9108950E94FD0681E071
:1014E0008B83CE010E94530A982F8111E2CFF1CF56
:1014F000AF92BF92CF92DF92EF92FF920F931F9322
:10150000CF93DF931F921F92CDB7DEB7DC0121117D
:1015100003C01A962C911A97253008F043C05196B3
:101520004D935D936D937C93549790E080E0E22E11
:10153000F12C8E159F05B4F41C962C911C9721114B
:101540000AC0FD01E80FF91F4587452F562F672F69
:1015500077270196EECFF701E81BF90BEA0FFB1F87
:101560004487F3CF6D018DE0C80ED11C18969C9175
:10157000189719968C91199799838A83AD90BC908E
:101580001197A114B10409F441C01B960C9110E00D
:1015900098012E0D3F1DD50114968D919C918217B7
:1015A000930710F480E016C0F501818192812081BB
:1015B00031E030930F042093310410921004109204
:1015C00032040115110599F421E0A701B601C50106
:1015D0000E94350A0F900F90DF91CF911F910F91CC
:1015E000FF90EF90DF90CF90BF90AF900895DC0117
:1015F000ED91FC910280F381E02DA801BE016F5FA7
:101600007F4F19950817190769F6DECF1296ED91ED
:10161000FC911397309749F116962D913C911797AD
:101620001B960C9110E02330310571F48E7F898375
:101630009A830F5F1F4F9E012F5F3F4FA701B60197
:10164000CF010E94FA09C6CF2115310519F49F7701
:101650009983F1CF2230310511F49068F9CF213010
:10166000310549F79F779064F3CF1496ED91FC9183
:101670001597309709F496CF8085882309F492CF87
:10168000A680B780A114B10409F48CCF870196011C
:101690001B964C91BE016F5F7F4F81859285F5014E
:1016A000199598CF08950895CF93DF93EC0161E0E9
:1016B00088810E945C0361E08A810E945C0361E092
:1016C0008C81DF91CF910C945C03CF93DF93EC017D
:1016D00061E088810E945C0360E08A810E945C0373
:1016E0000E947705C256DE4F688379838A839B8385
:1016F000DF91CF910895CF93DF93EC0160E0888173
:101700000E94D00260E08A810E94D002CC8161E018
:101710008C2F0E945C036CE370E08C2FDF91CF91E3
:101720000C948D030F931F93CF938C01C62F0E94AF
:10173000AB086C2F6460C8010E94AB086C2F6B7FF4
:10174000C8010E94AB0883EC90E00197F1F7CF91BC
:101750001F910F9108950F931F93CF93DF938C01E7
:10176000D62FC42F607F642B0E94920B80E1D89FFC
:10177000B00111246C2BC801DF91CF911F910F9103
:101780000C94920BCF93DF9300D000D01F921F9246
:10179000CDB7DEB728E0E7E0F2E0DE011196019078
:1017A0000D922A95E1F7FC012085261710F46FEFC2
:1017B000620F70E0660F771F21E030E02C0F3D1FB5
:1017C000620F731FFB016081606840E028960FB6CE
:1017D000F894DEBF0FBECDBFDF91CF910C94AB0B61
:1017E000CF93DF93EC0140E061E00E94AB0B8BE311
:1017F0009FE10197F1F78985882331F060E0CE0100
:10180000DF91CF910C94C20BDF91CF91089541E00D
:101810000E94AB0B81E090E008952F923F924F928F
:101820005F926F927F928F929F92AF92BF92CF9270
:10183000DF92EF92FF920F931F93CF93DF9300D02D
:101840001F92CDB7DEB7DC014B01042F18969C9197
:10185000189719968C91199799838A832D903C90AB
:1018600011972114310409F43AC11B964C9150E0B0
:10187000D10114968D919C9184179507C8F4D12CB1
:101880008D2D0F900F900F900F90DF91CF911F91A2
:101890000F91FF90EF90DF90CF90BF90AF909F900F
:1018A0008F907F906F905F904F903F902F90089512
:1018B000F101808191E090930F04809331041092A4
:1018C00010041092320420E0BE016F5F7F4FC1010F
:1018D0000E94350AD82E882391F2802F90E09C83B5
:1018E0008B83B12CA12C01E0AB81BC81AA16BB0675
:1018F00038F6F101848195817D01EA18FB088E1587
:101900009F0508F47C01D101CC900E9450042B016A
:101910003C0180910904811172C01E2D113208F022
:1019200010E20093090421E08B819C818E199F09AC
:10193000A816B90608F420E020930804BFEFB0937E
:101940000704109206048FEF810F80930504009323
:10195000E4038091E403CC0CC82AC092E403809194
:10196000E303813009F092C01092E3030E94500417
:101970002B013C018091E4038093BB0080910B0418
:1019800090910C04A0910D04B0910E04892B8A2B28
:101990008B2BA1F00E94500420910B0430910C0479
:1019A00040910D0450910E04641975098609970938
:1019B000261737074807590708F442C08091BC0032
:1019C00083FDD8CFE5ECE093BC000E9450042B01CE
:1019D0003C0180910904813009F45CC080910604C7
:1019E000811710F410910604A5EEB3E0E8E6F3E0E9
:1019F00080E0811751F19D9191938F5FFACF809193
:101A00000B0490910C04A0910D04B0910E04892B4D
:101A10008A2B8B2B09F47DCF0E94500420910B045C
:101A200030910C0440910D0450910E046419750915
:101A300086099709261737074807590708F069CF1D
:101A400080910A040E94140710E01092E2031093A0
:101A5000E1031E151F0409F012CF34016A0C7B1C30
:101A60002301C201861997098E159F05A8F5D1019A
:101A700011968D919C91DC01ED91FC910284F3858E
:101A8000E02D1995F20181932F01EBCFF5EEF09344
:101A9000BC009BCF80910B0490910C04A0910D048D
:101AA000B0910E04892B8A2B8B2B09F492CF0E94C4
:101AB000500420910B0430910C0440910D0450917E
:101AC0000E04641975098609970926173707480710
:101AD000590708F07ECFB4CFAE0CBF1C05CF1296CD
:101AE000ED91FC911397309749F116962D913C9109
:101AF000179710E01B964C9150E02330310571F49C
:101B0000816089839A834F5F5F4F9401BE016F5F4D
:101B10007F4FCF010E94BE09D82EB2CE21153105CC
:101B200019F490689983F1CF2230310511F49F7731
:101B3000F9CF2130310549F7906CF4CF1496ED912F
:101B4000FC911597309709F49ACE8085882309F483
:101B500096CEE480F580E114F10409F490CE10E013
:101B60009B011B964C91BE016F5F7F4F81859285D3
:101B7000F7011995D1CFCF93DF93EC01BC01635FDF
:101B80007F4F4A850E940D0C882301F14A8550E061
:101B900030E020E060E070E0CB0124173507CCF4A2
:101BA000982F872F762F6627EC85E1110AC0FA015E
:101BB000E21BF30BEC0FFD1FE4856E2B2F5F3F4FF5
:101BC000ECCFFE01E20FF31FE585F7CF6FEF7FEF5C
:101BD000CB01DF91CF9108958F929F92AF92BF92E8
:101BE000CF92DF92EF92FF920F931F93CF93DF93E9
:101BF000EC014A015B01888199810E94BB0D2A8119
:101C000001E010E002C0000F111F2A95E2F7015019
:101C10001109012E000C220B330BAB8168017901F5
:101C20000A2E04C0CC0CDD1CEE1CFF1C0A94D2F75B
:101C3000C094D094E094F094C622D722E822F922EE
:101C4000E881F981B901A801482159216A217B2144
:101C500004C0440F551F661F771FAA95D2F74C2961
:101C60005D296E297F292285CF01DF91CF911F91B8
:101C70000F91FF90EF90DF90CF90BF90AF909F902B
:101C80008F900C94780A0F931F93CF93DF93EC01FE
:101C9000888199810E94BB0DAB01BC012A8181E042
:101CA00090E002C0880F991F2A95E2F70197092E4C
:101CB000000CAA0BBB0B2B8104C07695679557953A
:101CC00047952A95D2F78C019D01042315232623DD
:101CD0003723C901B801DF91CF911F910F9108956A
:101CE000AF92BF92CF92DF92EF92FF920F931F932A
:101CF000CF93DF93CDB7DEB7EC970FB6F894DEBF86
:101D00000FBECDBF8C01FC01868D978D1FA218A63A
:101D100019A61AA69F8B8E8B198E188EFF24F3940A
:101D2000F9A28BE390E09F8F8E8F1AA28EE088A39A
:101D30004EE0BE01655D7F4FCE0146960E940D0CC0
:101D40008BA59CA5982789279827F80195A784A794
:101D50008DA59EA598278927982797A786A78FA541
:101D600098A998278927982791AB80AB69A97AA968
:101D700076276727762773AB62AB8BA99CA9982738
:101D80008927982795AB84AB8DA99EA99827892789
:101D9000982797AB86AB8FA998AD98278927982766
:101DA00091AF80AF072E000C880B990B0E941B2966
:101DB00020E030E04AEA53E40E94262B28EB3EE183
:101DC00042E152E40E94482AF801628373838483CB
:101DD0009583868D978D1A8A1B8A1C8A1D8A9A8301
:101DE00089831C821B82FC868CE190E09A8789871C
:101DF0001D86FB86CE0101965C019AAF89AF82E019
:101E00008BAF83E08CAFCE01C9960E94430EC12CEC
:101E1000D12CE12CE5E4FE2E63307105E1F0623057
:101E2000710599F06130710509F4D6C0C12CD12C2F
:101E3000F0E8EF2EFFE3FF2E672B69F4C12CD12CC5
:101E400050E8E52E56E4F52E06C0C12CD12C70E8E2
:101E5000E72E75E4F72EF80164A575A5072E000C92
:101E6000880B990B0E941B29A70196010E94262B23
:101E7000F801668377838087918766A577A5072E0B
:101E8000000C880B990B0E941B29A70196010E9448
:101E9000262BF801628773878487958760A971A9CB
:101EA000072E000C880B990B0E941B29A701960195
:101EB0000E94262BF80166877787808B918B868D11
:101EC000978D1A8A1B8A1C8A1D8A9A8389831C8291
:101ED0001B8281E08C872BE130E03A8729871D86C1
:101EE0008B87BAAEA9AE82E08BAF83E08CAFCE0118
:101EF000C9960E94430EC12CD12C33E0E32E33E46B
:101F0000F32E6115710519F1C12CD12C23E8E22EB5
:101F100022E4F22E61307105D1F093E3C92EDC2C5E
:101F200093E0E92E92E4F92E6230710581F0C12C24
:101F3000D12C40E8E42E4FE3F42E6330710539F4E0
:101F400083E3C82EDC2C83E8E82E81E4F82EF80128
:101F500064A975A9072E000C880B990B0E941B29F8
:101F6000A70196010E94262BF801628B738B848B4C
:101F7000958B66A977A9072E000C880B990B0E94F8
:101F80001B29A70196010E94262BF801668B778BEF
:101F9000808F918F60AD71AD072E000C880B990B6F
:101FA0000E941B29A70196010E94262BF801628F2F
:101FB000738F848F958FEC960FB6F894DEBF0FBEAB
:101FC000CDBFDF91CF911F910F91FF90EF90DF90E8
:101FD000CF90BF90AF900895C12CD12CE12C66E436
:101FE000F62E39CF0C943428CF93DF93EC018881FF
:101FF0009981009711F00E943428198218821D825D
:102000001C821B821A82DF91CF910895FC0180818E
:102010009181009711F00C94342808950C94342881
:102020000C9434289F92AF92BF92CF92DF92EF929E
:10203000FF920F931F93CF93DF93CDB7DEB7AE9789
:102040000FB6F894DEBF0FBECDBF8C01DC019796B2
:102050005C934E939697CA01019699969C938E93A2
:1020600098974E5F5F4F9B965C934E939A975E96C0
:102070002D913C911FA218A619A61AA63F8B2E8B54
:10208000198E188E81E089A34BE650E05F8F4E8F4A
:102090001AA288A31A8A1B8A1C8A1D8A3A8329835A
:1020A0001C821B828C8728E630E03A8729871D86B0
:1020B0008B875E01B6E1AB0EB11CBCA6ABA68DA7AB
:1020C00087E08EA741E050E060E070E0CE018B96A3
:1020D0000E94EC0DCE018B960E94430E613071057B
:1020E0008105910539F461E070E080E090E00E94A4
:1020F0004505F0CF64E670E080E090E00E94450581
:1021000020E047E050E060E070E0FE0131966F01B2
:10211000CF010E94780A64E670E080E090E00E94BF
:102120004505D8015E968D919C911A8A1B8A1C8A5E
:102130001D8A9A8389831C821B82FF24F394FC8668
:1021400089E190E09A8789871D86FB8620E040E040
:1021500050E0BA01C6010E94780AF801868D978D79
:102160001A8A1B8A1C8A1D8A9A8389831C821B8275
:10217000FC868AE190E09A8789871D86FB86DF8A44
:10218000CE8A83E0E82EE88E198E40E050E0BA0156
:10219000C5010E94EC0DD8015E968D919C911A8A22
:1021A0001B8A1C8A1D8A9A8389831C821B82FC8657
:1021B0008BE190E09A8789871D86FB86DF8ACE8A2D
:1021C00092E0992E988EE98E41E050E060E070E058
:1021D000C5010E94EC0DF801868D978D1A8A1B8A25
:1021E0001C8A1D8A9A8389831C821B82FC868CE14F
:1021F00090E09A8789871D86FB86DF8ACE8A988E33
:10220000E98E40E050E0BA01C5010E94EC0DD80112
:102210005E968D919C911A8A1B8A1C8A1D8A9A83CC
:1022200089831C821B82FC868BE690E09A878987D3
:102230001D86FB8620E041E050E060E070E0C601D2
:102240000E94780A64E670E080E090E00E94450514
:10225000F80180A191A1009739F0DC01ED91FC918A
:102260000280F381E02D1995F80182A193A10097D6
:1022700039F0DC01ED91FC910280F381E02D19959C
:10228000F80184A195A1009739F0DC01ED91FC9152
:102290000280F381E02D199586E090E00E94982756
:1022A000FC018FE292E09183808380E596E0938346
:1022B000828315830483D8019196FC93EE939097C3
:1022C00086E090E00E949827FC0181E292E09183F1
:1022D000808381E596E09383828315830483D8010C
:1022E0009396FC93EE93929786E090E00E94982755
:1022F000FC0183E192E09183808382E596E0938301
:10230000828315830483D8019596FC93EE9394976A
:1023100081E0AE960FB6F894DEBF0FBECDBFDF9161
:10232000CF911F910F91FF90EF90DF90CF90BF90D2
:10233000AF909F9008958F929F92AF92BF92CF924D
:10234000DF92EF92FF921F93CF93DF930E94770566
:102350006B017C0187E795E00E94700E18E1E5E0D3
:10236000F6E0DF01812F1D928A95E9F7C7E7D5E0F6
:1023700084E290E0A0E0B0E08093F9059093FA0544
:10238000A093FB05B093FC058AA59BA5B0E0A0E057
:102390008093FD059093FE05A093FF05B093000682
:1023A0008DE090E0A0E0B0E08093010690930206FB
:1023B000A0930306B0930406C0920906D0920A06C1
:1023C000E0920B06F0920C068A819B81AC81BD8164
:1023D00080930D0690930E06A0930F06B0931006FF
:1023E000EDEBF5E0DF01812F1D928A95E9F7812C55
:1023F000912C540183948AAE9BAEACAEBDAE8EA13F
:102400009FA1B0E0A0E08093B5059093B605A0939E
:10241000B705B093B8058092B9059092BA05A0921D
:10242000BB05B092BC05C092C105D092C205E09236
:10243000C305F092C4052AE038EE4CE151E46E8108
:102440007F81888599850E947A296093C50570935C
:10245000C6058093C7059093C8052AE038EE4CE185
:1024600051E46A857B858C859D850E947A296093DD
:10247000C9057093CA058093CB059093CC052AE0DB
:1024800038EE4CE151E46E857F85888999890E94F8
:102490007A296093CD057093CE058093CF059093F4
:1024A000D005E1EEF5E0DF011D921A95E9F7809283
:1024B000D5059092D605A092D705B092D80588A5EB
:1024C00099A5B0E0A0E08093D9059093DA05A09398
:1024D000DB05B093DC0584E090E0A0E0B0E0809301
:1024E000DD059093DE05A093DF05B093E005C09273
:1024F000E505D092E605E092E705F092E80525E3D0
:102500003AEF4EE85CE36A897B898C899D890E9459
:102510007A296093E9057093EA058093EB0590931F
:10252000EC0525E33AEF4EE85CE36E897F89888D00
:10253000998D0E947A296093ED057093EE05809342
:10254000EF059093F00525E33AEF4EE85CE36A8DE2
:102550007B8D8C8D9D8D0E947A296093F1057093FF
:10256000F2058093F3059093F40581E0DF91CF911C
:102570001F91FF90EF90DF90CF90BF90AF909F9012
:102580008F9008958F929F92AF92BF92CF92DF92D9
:10259000EF92FF92CF93DF930E949B110E947705E9
:1025A0006B017C01C1E2D6E088819981AA81BB815F
:1025B000A7019601281B390B4A0B5B0BCA01B90115
:1025C0000E94192920E030E04AE754E40E94262BBB
:1025D0004B015C01C882D982EA82FB82CDE1D6E060
:1025E0002091250630912606409127065091280615
:1025F0006091F1057091F2058091F3059091F405D9
:102600000E94472A20E030E044E353E40E947A2904
:102610002BED3FE049E450E40E94262BA5019401F4
:102620000E947A29288139814A815B810E94482A47
:10263000688379838A839B83DF91CF91FF90EF90AA
:10264000DF90CF90BF90AF909F908F9008950F93A1
:102650001F93CF93DF9340912C0550912D0570E08F
:1026600060E080913105909132050E94152E0E9404
:10267000750400912A0510912B050115110569F0CB
:10268000D0E0C0E04FEF5FEF6FEF70E0CE010E944F
:102690005F0221960C171D07A9F7DF91CF911F91BB
:1026A0000F910C9475040F931F93CF93DF938C01BC
:1026B000EB01DC0114968D919C910E94700EF80143
:1026C000048115810E947705AB01BC01FE0134969F
:1026D00080E2DF011D928A95E9F784E290E0A0E0B4
:1026E000B0E088839983AA83BB83F80182A593A570
:1026F000B0E0A0E08C839D83AE83BF838DE090E04B
:10270000A0E0B0E088879987AA87BB87488B598B60
:102710006A8B7B8B82819381A481B5818C8B9D8B0D
:10272000AE8BBF8B81E0DF91CF911F910F91089508
:102730008F929F92AF92BF92CF92DF92EF92FF92D1
:102740000F931F93CF93DF938C01EB01DC01149661
:102750008D919C910E94700EF801048115810E9458
:102760007705FE01349620E2DF011D922A95E9F7F4
:10277000C12CD12C7601C394C882D982EA82FB8213
:10278000F80126A137A14901B12CA12C8C829D8290
:10279000AE82BF82C886D986EA86FB86688B798B33
:1027A0008A8B9B8B2AE038EE4CE151E4668177817D
:1027B000808591850E947A296C8B7D8B8E8B9F8B77
:1027C0002AE038EE4CE151E4D8011A966D917D91E2
:1027D0008D919C911D970E947A29688F798F8A8F9D
:1027E0009B8F2AE038EE4CE151E4F801668577854D
:1027F000808991890E947A296C8F7D8F8E8F9F8F1F
:1028000081E0DF91CF911F910F91FF90EF90DF90CA
:10281000CF90BF90AF909F908F9008950F931F938C
:10282000CF93DF938C01EB01DC0114968D919C9189
:102830000E94700EF801048115810E947705AB019A
:10284000BC01FE01349680E2DF011D928A95E9F712
:1028500081E090E0A0E0B0E088839983AA83BB8305
:10286000F80180A591A5B0E0A0E08C839D83AE83A4
:10287000BF8384E090E0A0E0B0E088879987AA87D2
:10288000BB87488B598B6A8B7B8B25E33AEF4EE8ED
:102890005CE362897389848995890E947A296C8BAB
:1028A0007D8B8E8B9F8B25E33AEF4EE85CE3D8015E
:1028B00056966D917D918D919C9159970E947A29A0
:1028C000688F798F8A8F9B8F25E33AEF4EE85CE320
:1028D000F801628D738D848D958D0E947A296C8F9D
:1028E0007D8F8E8F9F8F81E0DF91CF911F910F9110
:1028F00008950F931F93762F89019A0190E0FC01B0
:10290000EC56FC4F6491FC01EC50FC4FE4917111CA
:10291000762FF0E0EE0FFF1FE658FC4F8591949163
:10292000472F0E94BF1F611571058105910529F090
:102930006F5F7F4F8F4F9F4F9F701F910F91089533
:102940002F923F924F925F926F927F928F929F92BF
:10295000AF92BF92CF92DF92EF92FF920F931F93AD
:10296000CF93DF93CDB7DEB762970FB6F894DEBF93
:102970000FBECDBF8C0160E0DC018C910E94D002C3
:1029800083E090E00197F1F761E0F80180810E9417
:10299000D00283E290E00197F1F760E0D8018C91DA
:1029A0000E94D0022CEC3BE540E050E061E0F801F1
:1029B00082810E9479140E941B2926E933E44BE0AE
:1029C0005DE30E947A2920E030E040E05FE30E946E
:1029D0007A296B017C0120E030E040E85FE30E944F
:1029E000142918160CF0B0C020E030E048EC53E495
:1029F000C701B6010E94572C181634F4C12CD12CF3
:102A00004AEFE42E43E4F42E20E030E0A901C701B0
:102A1000B6010E94482A0E94982B072E000C880BB2
:102A2000990B0E941B296B017C010E9477056F8323
:102A3000788789879A87F801E256FE4F80819181D5
:102A4000A281B3818F809884A984BA84881A990A54
:102A5000AA0ABB0AF4E68F169104A104B10408F493
:102A6000D1C0C501B40124E630E040E050E00E944E
:102A7000E22C3A832983F801E456FE4F808191814C
:102A80008D599F4F64E670E00E94CE2CDC011396B6
:102A9000AA0FBB1FAA0FBB1FA00FB11F2D913D9105
:102AA0004D915C912B833C834D835E832224239440
:102AB000312CFC87EB8789819A81092E000CAA0BA7
:102AC000BB0B8D879E87AF87B88BA981BA81A21572
:102AD000B3050CF47AC0EB85FC8580819181019669
:102AE00064E670E00E94CE2C9A8B898B9183808360
:102AF00020E030E0A9016B817C818D819E810E9464
:102B0000142929893A892D5F3F4F3A8B298B87FDFC
:102B100005C049815A8143335105D4F0A989BA8946
:102B2000AA0FBB1FAA0FBB1FA00FB11FFD01C082C0
:102B3000D182E282F382B4E62B16310409F445C057
:102B4000EFEF2E1A3E0AC1CFC12CD12C76015CCFFB
:102B500029893A89220F331F220F331F200F311F7B
:102B60003A8B298B2B813C814D815E81C701B60157
:102B70000E94472A2B013C01B101032C000C880B59
:102B8000990B0E941B299B01AC01C301B2010E9459
:102B90007A292B013C016D857E858F8598890E945D
:102BA0001B299B01AC01C301B2010E94262B2B8182
:102BB0003C814D815E810E94482AA989BA896D9322
:102BC0007D938D939C931397B6CF980122563E4FD9
:102BD0003A832983C501B40124E630E040E050E0A7
:102BE0000E94E22C2F81388549855A85261B370B98
:102BF000480B590BDA01C901E981FA81808391837D
:102C0000A283B383C701B60162960FB6F894DEBF04
:102C10000FBECDBFDF91CF911F910F91FF90EF902D
:102C2000DF90CF90BF90AF909F908F907F906F90EC
:102C30005F904F903F902F900895FB0101900020EE
:102C4000E9F73197AF01461B570BDC01ED91FC9181
:102C50000280F381E02D19948F929F92AF92BF92E0
:102C60000F931F93CF93DF93CDB7DEB7A1970FB626
:102C7000F894DEBF0FBECDBF19A2423008F44AE07F
:102C80008E010F5D1F4F842E912CB12CA12CA5011C
:102C900094010E94E22CE62FB901CA01EA3004F542
:102CA000E05DD801EE938D01232B242B252B79F7A2
:102CB00090E080E0109729F0BD0183E394E00E944A
:102CC0001D16A1960FB6F894DEBF0FBECDBFDF91E3
:102CD000CF911F910F91BF90AF909F908F900895CB
:102CE000E95CDFCF4F925F926F927F928F929F92BB
:102CF000AF92BF92CF92DF92EF92FF926B017C0175
:102D0000AC019B010E94AE2C6FE672E081111AC0EB
:102D100046015701E894B7F82FEF3FEF4FE75FE721
:102D2000C501B4010E94AE2C811126C02FEF3FEFE8
:102D30004FE75FE7C501B4010E9414291816E4F4B7
:102D400063E772E083E394E00E941D167C016BE769
:102D500072E083E394E00E941D168E0D9F1DFF908C
:102D6000EF90DF90CF90BF90AF909F908F907F902B
:102D70006F905F904F9008952FEF3FEF4FE75FE424
:102D8000C701B6010E94572C18161CF467E772E0C1
:102D9000D9CF2FEF3FEF4FE75FECC701B6010E949D
:102DA000142987FDF3CF20E030E0A901C701B60167
:102DB0000E941429B12CA12C87FF0AC06DE283E385
:102DC00094E00E9419065C01F7FAF094F7F8F09489
:102DD0002AE037ED43EA5BE3C701B6010E94482AC7
:102DE0002B013C010E949F2B6B017C010E94192941
:102DF0009B01AC01C301B2010E94472A2B013C0197
:102E00004AE0C701B6010E942C167C01EA0CFB1CAB
:102E10006EE283E394E00E941906E80EF91E20E0BA
:102E200030E040E251E4C301B2010E947A292B0153
:102E30003C010E949F2B4B01B12CA12C4AE0C50103
:102E4000B4010E942C16E80EF91EC501B4010E94BF
:102E500019299B01AC01C301B2010E94472A20E05D
:102E600030E040E251E40E947A290E949F2B90E0DA
:102E700080E04AE00E942C16E80EF91E68CFCF933E
:102E8000DF93BC0183E394E00E941D16EC016BE725
:102E900072E083E394E00E941D168C0F9D1FDF916A
:102EA000CF910895CF93DF93EB01682F8CE595E0E8
:102EB0000E94C20B4C815D81688179818CE595E02F
:102EC0000E9483050C80DD81C02DC431D10544F4FE
:102ED00067EE72E08CE595E00E941D162196F5CF15
:102EE000DF91CF9108950F931F93CF93DF93EC0160
:102EF00088819981009759F02A813B8126173707ED
:102F000030F081E0DF91CF911F910F9108958B01F7
:102F10006F5F7F4F0E942B2D009759F09983888314
:102F20001B830A832C813D81232B59F7FC011082DE
:102F3000E8CF80E0E7CFEF92FF920F931F93CF93FC
:102F4000DF936115710541F480E0DF91CF911F910E
:102F50000F91FF90EF90089541155105B1F07B015D
:102F6000EC010C811D81040F151FB8010E9473171D
:102F7000882351F3288139818C819D81B701820F8B
:102F8000931F0E941C2E1D830C8381E0DECFCF9304
:102F9000DF93EC01FB0101900020E9F73197AF01CD
:102FA000461B570B0E949B17811103C0CE010E9444
:102FB000F40FCE01DF91CF910895CF93DF93EC0111
:102FC000FB0144815581608171810E949B178111B1
:102FD00003C0CE010E94F40FCE01DF91CF9108957E
:102FE000EF92FF920F931F93CF93DF93EC017B013E
:102FF0008A01BA010E94731781110BC0CE010E9491
:10300000F40FCE01DF91CF911F910F91FF90EF90C0
:1030100008951D830C83B701888199810E941C2E1D
:10302000F0CFFB0101900020E9F73197AF01461B7B
:10303000570B0C94F0170F931F93CF93DF93CDB7DB
:10304000DEB762970FB6F894DEBF0FBECDBF8C011E
:10305000CB01F80111821082138212821582148230
:103060004AE0BE016F5F7F4F0E94BD28BE016F5FC7
:103070007F4FC8010E94111862960FB6F894DEBF08
:103080000FBECDBFDF91CF911F910F910895FB012E
:10309000DC0111961C921E9213961C921E9212979E
:1030A00015961C921E9214978617970749F0608117
:1030B00071816115710521F0448155810C94F017DF
:1030C0000895FC01118210821382128215821482EB
:1030D0006115710551F0FB0101900020E9F731976E
:1030E000AF01461B570B0C94F017089585ED8093A4
:1030F000BC0080910B0490910C04A0910D04B09140
:103100000E040796A11DB11D23E0B695A7959795CE
:1031100087952A95D1F72091BC0024FD03C0109219
:103120000904089540910B0450910C0460910D0422
:1031300070910E04452B462B472B69F30097A10590
:10314000B10541F02AE22A95F1F700C00197A109E3
:10315000B109E1CF80910A040C9414070F931F93D7
:10316000CF93DF938C01EB0188E2FB0111928A95EA
:10317000E9F74BE050E06EE772E0CE010E94232EAB
:103180001B8681E090E0A0E0B0E08C879D87AE8751
:10319000BF87F80182819381092E000CAA0BBB0B1B
:1031A000888B998BAA8BBB8B8DE090E0A0E0B0E080
:1031B0008C8B9D8BAE8BBF8B1CA21DA21EA21FA24F
:1031C00080E090E0A0E2B2EC8C8F9D8FAE8FBF8F3D
:1031D00080E090E0A2EDB2E4888F998FAA8FBB8F38
:1031E00084E09DEAA0E4BBE388A399A3AAA3BBA3C0
:1031F000DF91CF911F910F9108950F931F93CF935C
:10320000DF938C01EB0188E2FB0111928A95E9F7CB
:103210004BE050E068E872E0CE010E94232E1B864E
:1032200041E050E060E070E04C875D876E877F870B
:10323000F80182819381092E000CAA0BBB0B888BAD
:10324000998BAA8BBB8B4C8B5D8B6E8B7F8B1CA25F
:103250001DA21EA21FA28AE098EEACE1B3EC8C8FF7
:103260009D8FAE8FBF8F8AE098EEACE1B3E4888F7C
:10327000998FAA8FBB8F83E29BEDA9E7BDE388A35B
:1032800099A3AAA3BBA3DF91CF911F910F9108959A
:103290000F931F93CF93DF938C01EB0188E2FB0127
:1032A00011928A95E9F74BE050E062E972E0CE01B5
:1032B0000E94232E1B8681E090E0A0E0B0E08C8786
:1032C0009D87AE87BF87F80182819381092E000C0C
:1032D000AA0BBB0B888B998BAA8BBB8B84E090E0ED
:1032E000A0E0B0E08C8B9D8BAE8BBF8B1CA21DA28F
:1032F0001EA21FA287ED93EAABE0B2EC8C8F9D8FEC
:10330000AE8FBF8F87ED93EAABE0B2E4888F998FE1
:10331000AA8FBB8F8AE99BEAABE0B9E388A399A3A4
:10332000AAA3BBA3DF91CF911F910F9108952F9274
:103330003F924F925F926F927F928F929F92AF9245
:10334000BF92CF92DF92EF92FF920F931F93CF9392
:10335000DF93CDB7DEB7CC54D1090FB6F894DEBFFA
:103360000FBECDBF0E9477056B017C0180910002EA
:1033700040E050E0BA01882321F048E853E160E0E2
:1033800070E0009164031091650320916603309111
:10339000670346015701801A910AA20AB30A9501F0
:1033A0008401041715072607370780F091E0892765
:1033B00080930002C0926403D0926503E09266039A
:1033C000F09267038CE595E00E94F00B809160031A
:1033D00090916103A0916203B0916303A7019601EC
:1033E000281B390B4A0B5B0BDA01C90184369105A6
:1033F000A105B10508F4F3C2C0926003D092610345
:10340000E0926203F0926303809100028E01075DF7
:103410001F4F882309F40FC385E396E00E94A01490
:103420000E94982BCE01CB960E941B1887ED97E047
:103430000E94A0140E94982BCE01C5960E941B18D2
:1034400089E799E00E94A0140E94982BCE018F96E4
:103450000E941B188BE19BE00E94A0140E94982BF5
:10346000C8010E941B1866EC72E0CE0101960E9412
:103470006118B801CE0101960E94DD1768EC72E078
:103480000E94C717BE01615D7F4F0E94DD176BEC84
:1034900072E00E94C717BE016B5C7F4F0E94DD1770
:1034A0006EEC72E00E94C717BE01655C7F4F0E9400
:1034B000DD17BC01CE018F5B9F4F0E944718CE01E4
:1034C00001960E940610C8010E940610CE018F9638
:1034D0000E940610CE01C5960E940610CE01CB9622
:1034E0000E940610BE016F5B7F4FCE0101960E94C5
:1034F0004718BE016F5F7F4F90E080E00E94521737
:10350000CE0101960E940610AE014F5F5F4F1A0177
:1035100068017A010E949B116091C9057091CA05EA
:103520008091CB059091CC058090CD059090CE05F3
:10353000A090CF05B090D0059B01AC010E947A29E4
:103540002B013C01A5019401C501B4010E947A2917
:103550009B01AC01C301B2010E94482A0E946A2C5F
:103560009B01AC018091C5059091C605A091C7054E
:10357000B091C805BC01CD0190580E94C72A20E037
:1035800030E044E353E40E947A292BED3FE049E424
:1035900050E40E94262BF7016193719381939193DC
:1035A0007F0161E070E080E090E00E944505EC144E
:1035B000FD0409F0AFCFEE24E394F12CEC0EFD1ED8
:1035C000F4E2EF0EF11C6101F10180809180A28094
:1035D000B380F6014480558066807780A301920114
:1035E000C501B4010E94572C181654F4F101408211
:1035F000518262827382F60184829582A682B782AA
:10360000F4E0CF0ED11CEC14FD04F1F624E0220E00
:10361000311C2E143F04B9F6C0903106D09032060A
:10362000E0903306F09034062D893E894F89588DFD
:1036300069897A898B899C890E94482A20E030E038
:1036400040E05FE30E947A29A70196010E947A294F
:103650004B015C01A701960160E070E080E89FE308
:103660000E94472A20912D0630912E0640912F0668
:10367000509130060E947A299B01AC01C501B4012A
:103680000E94482A60932D0670932E0680932F0681
:10369000909330062091290630912A0640912B06FE
:1036A00050912C060E94472A905823EC35EF48E8A9
:1036B0005FE30E947A290E94982BCE01CB960E944C
:1036C0001B180E94C21260911D0670911E06809107
:1036D0001F069091200620E030E044EB53E40E9466
:1036E000D92B6B017C0120E030E0A9010E94142954
:1036F00087FF0AC020E030E044EB53E4C701B60185
:103700000E94482A6B017C01C701B6010E94982BD8
:10371000CE01C5960E941B1860E080916D050E9445
:10372000D00260E080916F050E94D00220E23EE46A
:1037300040E050E060E0809171050E9479144B01F7
:1037400061E080916D050E94D00261E080916F057B
:103750000E94D00220E23EE440E050E060E0809130
:1037600071050E9479146B013B0160E080916D0549
:103770000E94D00261E080916F050E94D00220E299
:103780003EE440E050E060E0809171050E947914D1
:10379000FB014091750550917605940197FE04C098
:1037A000222733272819390942175307ACF096010D
:1037B00077FE04C0222733272C193D0942175307EF
:1037C0005CF09B01F7FF04C022273327261B370B31
:1037D000421753070CF01DC194012A55310937FFD8
:1037E00003C031952195310942175307BCF096016A
:1037F0002A55310937FF03C0319521953109421708
:10380000530764F09B012654310937FF03C03195FB
:1038100021953109421753070CF0FEC094012A5A32
:10382000310937FF03C031952195310942175307FC
:10383000BCF096012C58310937FF03C03195219512
:1038400031094217530764F09B012E56310937FFA7
:1038500003C0319521953109421753070CF0DFC0A1
:1038600094012652310937FF03C031952195310962
:1038700042175307BCF096012051310937FF03C0AE
:103880003195219531094217530764F09B012A5065
:10389000310937FF03C0319521953109421753078C
:1038A0000CF0C0C029E1821A910897FE03C09194E0
:1038B00081949108481559050CF4B7C036E4C31A31
:1038C000D108D7FE03C0D194C194D1084C155D0531
:1038D0000CF4ABC06253710977FF03C07195619519
:1038E0007109461757070CF4A0C069EA72E0CE01CF
:1038F00001960E9461186DE772E0C8010E9461188C
:10390000ED80FE80E114F104E1F044E0E416F104FE
:1039100018F084E0E82EF12CE981FA81EE0DFF1D0C
:10392000D080108269817A81C8016115710509F41E
:103930007FC00E94111889819A81E80EF91EF70153
:10394000D082B801CE018F960E94471861ED72E0D7
:10395000CE018F960E94C717BE016B5C7F4F0E94FD
:10396000DD1765ED72E00E94C717BE01655C7F4FF1
:103970000E94DD17BC01CE01895B9F4F0E94471852
:10398000CE018F960E940610C8010E940610CE013B
:1039900001960E940610CE01C5960E940610CE0127
:1039A000CB960E940610BE01695B7F4FCE01019647
:1039B0000E944718BE016F5F7F4F81E090E00E9438
:1039C0005217CE0101960E940610CE01895B9F4FCF
:1039D0000E940610CE018F5B9F4F0E940610C45BB1
:1039E000DF4F0FB6F894DEBF0FBECDBFDF91CF9192
:1039F0001F910F91FF90EF90DF90CF90BF90AF900D
:103A00009F908F907F906F905F904F903F902F90FE
:103A100008956CE972E06BCF69EB72E068CF62EBFE
:103A200072E065CF6DEA72E062CF6FEB72E05FCF5C
:103A30000E94F40F80CF0E947705C090CC03D090F5
:103A4000CD03E090CE03F090CF036C197D098E0971
:103A50009F091CAE1BAE1EAE1DAE21961FAE1EAE44
:103A600021972AE0AE014F5F5F4F0E94C828BE0138
:103A70006F5F7F4FCE01CB960E94111864E170E01A
:103A8000CE01C5960E941B1864E170E0CE018F96AE
:103A90000E941B1869ED72E0C8010E946118BE0106
:103AA000615D7F4FC8010E94DD176DED72E00E94DD
:103AB000C717BE016B5C7F4F0E94DD176FED72E090
:103AC0000E94C717BE01655C7F4F0E94DD17BC01D5
:103AD000CE0101960E944718C8010E940610CE012F
:103AE0008F960E940610CE01C5960E940610CE0148
:103AF000CB960E940610BE016F5F7F4FC8010E94E7
:103B00004718B80190E080E00E945217C8010E9457
:103B1000061064EE72E0C8010E9461186CED74E05A
:103B2000C8010E94DD17BC01CE018F960E94471884
:103B3000BE01615D7F4F81E090E00E945217CE018F
:103B40008F960E940610C8010E940610CE010196B1
:103B500044CF8F929F92AF92BF92CF92DF92EF921B
:103B6000FF920F931F934B015C010E9477056B013D
:103B70007C010E9477056C197D098E099F096815E3
:103B800079058A059B0510F50E94C2120E947705EF
:103B90000091D9031091DA032091DB033091DC030B
:103BA000601B710B820B930B693C710581059105BC
:103BB00000F30E9497190E9477056093D9037093D0
:103BC000DA038093DB039093DC03D3CF1F910F9133
:103BD000FF90EF90DF90CF90BF90AF909F908F902D
:103BE00008951F920F920FB60F9211242F933F93B7
:103BF0008F939F93AF93BF938091D1039091D20302
:103C0000A091D303B091D4033091D00323E0230FCC
:103C10002D3758F50196A11DB11D2093D003809337
:103C2000D1039093D203A093D303B093D403809194
:103C3000D5039091D603A091D703B091D8030196F4
:103C4000A11DB11D8093D5039093D603A093D703F4
:103C5000B093D803BF91AF919F918F913F912F91D6
:103C60000F900FBE0F901F90189526E8230F029615
:103C7000A11DB11DD2CF1F920F920FB60F9211242A
:103C80000BB60F922F933F934F935F936F937F9356
:103C90008F939F93AF93BF93EF93FF9383E394E04E
:103CA0000E94F705FF91EF91BF91AF919F918F9186
:103CB0007F916F915F914F913F912F910F900BBE2C
:103CC0000F900FBE0F901F9018951F920F920FB676
:103CD0000F9211240BB60F922F938F939F93EF9314
:103CE000FF93E0914304F09144048081E091490402
:103CF000F0914A0482FD1DC0908180914C048F5F39
:103D00008F7320914D04821741F0E0914C04F0E054
:103D1000ED5CFB4F958F80934C04FF91EF919F9149
:103D20008F912F910F900BBE0F900FBE0F901F9091
:103D300018958081F2CF1F920F920FB60F92112427
:103D40000BB60F922F933F934F935F936F937F9395
:103D50008F939F93AF93BF93EF93FF938091B9009D
:103D6000887F803609F44DC008F040C0883209F4DD
:103D7000A9C028F5803109F49DC0C8F4882309F44E
:103D8000FBC0883009F496C0FF91EF91BF91AF91CD
:103D90009F918F917F916F915F914F913F912F9163
:103DA0000F900BBE0F900FBE0F901F90189588318B
:103DB00009F488C0803241F78093070414C080342E
:103DC00009F49DC040F48033B9F38833E9F6809359
:103DD000070485ECB0C0803509F485C0883509F446
:103DE00096C0883489F60E947618CECF883909F4B7
:103DF0008CC038F5883729F050F4883611F08037B8
:103E000019F683E0809309041092CB0357C08838D9
:103E100009F47BC0803919F0803809F0B5CF809162
:103E2000CB03803208F071C0E091CB0381E08E0FAC
:103E30008093CB038091BB00F0E0E555FC4F80837D
:103E40003DC0803B39F0E0F4803A09F479C0883A0B
:103E500009F09ACF84E0809309041092AA0310928B
:103E6000A903E091DF03F091E00319958091A90384
:103E700081110FC081E08093A9031092890309C0CA
:103E8000803C09F4A6CF883C09F4A3CF883B09F015
:103E90007BCFE091AA0381E08E0F8093AA03F0E02C
:103EA000E757FC4F80818093BB009091AA038091DB
:103EB000A90329C08091E4038093BB0085EC809323
:103EC000BC0062CF9091060480910504981758F5C4
:103ED000E091060481E08E0F80930604F0E0EB5140
:103EE000FC4F8081E9CFE091060481E08E0F809342
:103EF00006048091BB00F0E0EB51FC4F8083909171
:103F00000604809105049817C8F285E8D8CFE0919F
:103F1000060481E08E0F809306048091BB00F0E0E0
:103F2000EB51FC4F80838091080481115CCF81E0CC
:103F30008093E30384EA8093BC001092090424CFA9
:103F400085EC8093BC00109209048091CB038032F1
:103F500030F4E091CB03F0E0E555FC4F1082609126
:103F6000CB0370E0E091DD03F091DE038BEA93E098
:103F700019951092CB0308CF1092070434CFCF923B
:103F8000DF92EF92FF920F931F93E82FF92F05C056
:103F9000015011092109310961F19081962394178B
:103FA000B9F305C0015011092109310911F19081BE
:103FB00096239413F7CFC12CD12CE12CF12C0AC0FD
:103FC0008FEFC81AD80AE80AF80A0C151D052E0545
:103FD0003F0579F080818623841791F36C2D7D2D28
:103FE0008E2D9F2D1F910F91FF90EF90DF90CF901E
:103FF000089560E070E080E090E01F910F91FF90E5
:10400000EF90DF90CF900895CF93DF93FC01718301
:10401000608353834283148215821682178210862E
:10402000118612861386DC01A456BE4F11961C928F
:104030001E92EC01C256DE4F188219821A821B8230
:104040003C9640E050E060E87FEB419351936193F0
:104050007193EA17FB07C9F7DF91CF910895EF92AB
:10406000FF920F931F93CF93DF9310923604109219
:10407000350488EE93E0A0E0B0E08093370490939D
:104080003804A0933904B0933A042DE332E030931E
:1040900034042093330425EC30E030934004209323
:1040A0003F0424EC30E0309342042093410420ECA0
:1040B00030E0309344042093430421EC30E030930B
:1040C00046042093450422EC30E0309348042093CA
:1040D000470426EC30E030934A04209349041092C0
:1040E0004C0410924D0410924E0410924F04109202
:1040F000D3041092D2048093D4049093D504A09357
:10410000D604B093D7048FE492E09093D1048093C7
:10411000D00444E050E065E070E08BE19BE00E9459
:10412000042049E050E068E070E089E799E00E94EF
:10413000042046E050E067E070E087ED97E00E94E1
:1041400004204BE050E06AE070E085E396E00E94D6
:1041500004208DE692E09093780580937705109285
:104160009605109295051092980510929705109259
:104170009A051092990510929C0510929B05109239
:104180001D0610921E0610921F0610922006109215
:1041900025061092260610922706109228061092E5
:1041A000290610922A0610922B0610922C061092C5
:1041B0002D0610922E0610922F06109230068DECCE
:1041C0009CECACECBEE38093310690933206A09356
:1041D0003306B09334068FE090E090936A058093A5
:1041E000690589E190E090936C0580936B0522E16D
:1041F00030E030936E0520936D0521E130E030937F
:10420000700520936F052DE130E030937205209307
:104210007105C0E1D0E0D0937405C093730590930D
:1042200076058093750510925F0510925E0581E614
:1042300092E090935D0580935C051092650587E29E
:104240008093600584E18093660584E08093670530
:1042500010926805109249051092480510923F058A
:1042600010923E0510925405109255051092560575
:104270001092570580E098E090934505809344059F
:104280008EE190E090934B0580934A0580E290E0A8
:1042900090934D0580934C058FE190E090934F05EE
:1042A00080934E0581E290E09093510580935005F4
:1042B00061E08EE10E945C0361E080914C050E9408
:1042C0005C0361E080914E050E945C0361E0809197
:1042D00050050E945C03109253051092520584E031
:1042E00090E09093470580934605109258051092F0
:1042F000590510925A0510925B05209144053091A2
:104300004505032E000C440B550B60E077E883E96C
:1043100093E00E94042DCA01B90123E130E040E09E
:1043200050E00E94042D20934005309341054093B6
:1043300042055093430510922905109230051092C2
:104340003705109238051092390510923A0581E030
:1043500080933605809333051092340592E0909354
:1043600035058093280580E390E090932D05809398
:104370002C050E9498279093320580933105009771
:1043800009F4FCC020E3FC0111922A95E9F7D093CF
:104390002B05C0932A0583E090E090932F0580932E
:1043A0002E0580912905882341F061E083E00E9479
:1043B0005C0360E083E00E94D002E7EFF3E0E49169
:1043C000F0E0EE0FFF1FE652FC4F85919491909321
:1043D0003C0580933B05E7E9F3E0E491E0933D057C
:1043E00062E275E087E290E09093230580932205D6
:1043F00089E290E0909325058093240582E090E087
:1044000090932705809326054CE155E085E390E0E5
:1044100090931D0580931C0583E390E090931F0506
:1044200080931E058DE290E09093210580932005F6
:1044300026E135E080E390E0909317058093160520
:104440008AE290E090931905809318058EE290E03F
:1044500090931B0580931A0580E195E0E2E3F0E07C
:10446000F0931105E0931005E4E3F0E0F0931305F9
:10447000E0931205ECE2F0E0F0931505E0931405EB
:104480007093FF046093FE04509301054093000570
:10449000309303052093020590930505809304054E
:1044A000E7E7F5E0F0930705E0930605ABE1EA2EB8
:1044B000ABE0FA2EF0920905E092080509E719E051
:1044C00010930B0500930A05C7EDD7E0D0930D05B7
:1044D000C0930C05A5E3B6E0B0930F05A0930E05BD
:1044E000F092E304E092E2041093E5040093E40404
:1044F000D093E704C093E604B093E904A093E804E2
:10450000A9E6B5E0B093EB04A093EA04F093ED04C0
:10451000E093EC04E8E2F5E0F093EF04E093EE04BE
:10452000ECE5F5E0F093F104E093F004EEEFF4E055
:10453000F093F304E093F204EEE3F5E0F093F50476
:10454000E093F4047093F7046093F6045093F90435
:104550004093F8043093FB042093FA049093FD04F5
:104560008093FC0469EE72E08CED94E0DF91CF91D2
:104570001F910F91FF90EF900C94611810922D05F0
:1045800010922C0510922B0510922A0504CFCF9380
:10459000DF93CDB7DEB7A3970FB6F894DEBF0FBE9B
:1045A000CDBF789484B5826084BD84B5816084BDBC
:1045B00085B5826085BD85B5816085BD80916E00C1
:1045C000816080936E0010928100809181008260F2
:1045D000809381008091810081608093810080912F
:1045E00080008160809380008091B100846080931E
:1045F000B1008091B00081608093B0008091910003
:1046000082608093910080919100816080939100FD
:10461000809190008160809390008091A1008260E1
:104620008093A1008091A10081608093A10080917E
:10463000A00081608093A00080912101826080931E
:1046400021018091210181608093210180912001CD
:1046500081608093200180917A00846080937A0049
:1046600080917A00826080937A0080917A008160E4
:1046700080937A0080917A00806880937A0010920B
:10468000C100E0914304F091440482E08083E09112
:104690003F04F09140041082E0914104F091420403
:1046A00080E1808310924B04E0914704F09148042C
:1046B00086E08083E0914504F0914604808180612A
:1046C0008083E0914504F091460480818860808376
:1046D000E0914504F0914604808180688083E091F8
:1046E0004504F091460480818F7D808380912E0562
:1046F00090912F0597FD30C061E00E945C0360E05F
:1047000080912E050E94D00281E0809329050E94AD
:10471000750460913005653641F120913105309185
:1047200032056150E1F070E08FEF94E60E94BA2C00
:10473000F90140912C0550912D05CF01821B930B5F
:104740008417950778F44081469FC001479F900DDC
:10475000112490833196EDCF10922905D8CF70E0C7
:1047600060E0E6CF85E6809330050E94FD068CE090
:104770008093B80082E295E00E94540B8CE195E0B2
:104780000E94540B86E195E00E94540B80E195E075
:104790000E94540B8091FE049091FF040E94540BE0
:1047A00080910005909101050E94540B80910205B3
:1047B000909103050E94540B80910405909105058A
:1047C0000E94540B8BE19BE00E94650B89E799E006
:1047D0000E94650B87ED97E00E94650B85E396E0EC
:1047E0000E94650B0E94FD0610926105809167058D
:1047F000823018F098E0909361058093640562E33D
:1048000070E080E090E00E944505609168058CE5CD
:1048100095E00E94AB0868EE73E080E090E00E94B3
:10482000450560E38CE595E00E94920B0BE416E4ED
:10483000C8010197F1F760E38CE595E00E94920BC7
:10484000C8010197F1F760E38CE595E00E94920BB7
:1048500083E592E00197F1F760E28CE595E00E9434
:10486000920B60916105606240E08CE595E00E94EA
:10487000AB0B84E08093620540E06CE08CE595E052
:104880000E94AB0B8CE595E00E94F00B82E08093D8
:10489000630540E066E08CE595E00E94AB0B40E0EC
:1048A00062E08CE595E00E94AB0B8BE39FE1019702
:1048B000F1F788E08093680560E08CE595E00E9460
:1048C000AB088CE595E00E94F00B809195059091E6
:1048D0009605009711F00E94342886E090E00E942F
:1048E0009827FC0188E6808380ED94E092838183A1
:1048F000138280E290E095838483F0939605E093A1
:10490000950505E011E0E0909505F09096050E9470
:10491000FD06F7011383C7010E94530A81114BC2A0
:104920006AE070E080E090E00E944505015059F790
:1049300061E0809169050E945C0361E080916B05F4
:104940000E945C0361E080916D050E945C0361E060
:1049500080916F050E945C0360E0809171050E9468
:104960005C0361E0809173050E945C0361E08091CB
:1049700069050E94D00260E080916B050E94D00220
:104980001091730561E0812F0E945C036AEF70E073
:10499000812F0E948D030E9427138FEE92E00E94C8
:1049A0003F1704EF11E0C12CD12C760146015701CD
:1049B0000E949B112091F1053091F2054091F30581
:1049C0005091F405C501B4010E94482A4B015C01D5
:1049D0006091C9057091CA058091CB059091CC0575
:1049E0004090CD055090CE056090CF057090D005D9
:1049F0009B01AC010E947A296C8F7D8F8E8F9F8FD7
:104A0000A3019201C301B2010E947A299B01AC016A
:104A10006C8D7D8D8E8D9F8D0E94482A0E946A2C00
:104A20009B01AC018091C5059091C605A091C70579
:104A3000B091C805BC01CD0190580E94C72A20E062
:104A400030E044E353E40E947A292BED3FE049E44F
:104A500050E40E94262B9B01AC01C701B6010E94C5
:104A6000482A6B017C0164E070E080E090E00E94E5
:104A700045050150110909F09BCF20E030E04AEFD5
:104A800053E4C501B4010E94262B60932506709360
:104A90002606809327069093280620E030E04AEF10
:104AA00053E4C701B6010E94262B60932906709338
:104AB0002A0680932B0690932C0660932D06709304
:104AC0002E0680932F06909330066AE073E083E30E
:104AD00094E00E941D166091250670912606809133
:104AE0002706909128060E94721668E173E083E31E
:104AF00094E00E941D166091290670912A0680910B
:104B00002B0690912C060E94721640912C05509114
:104B10002D0570E060E080913105909132050E9492
:104B2000152E0E94750410E000E080912A059091F6
:104B30002B050817190780F440E050E06FEF70E094
:104B400000FF04C040E05FEF6FEF70E0C8010E941B
:104B50005F020F5F1F4FE9CF0E9475048EE293E062
:104B60000E943F176AE373E0CE0101960E9461182C
:104B7000BE016F5F7F4F90E080E00E945217CE0130
:104B800001960E94061069E473E0CE0101960E942E
:104B90006118BE016F5F7F4F81E090E00E94521765
:104BA000CE0101960E940610C12CD12C76019E01E7
:104BB0002B5F3F4F3B8F2A8F412C512C320110E04D
:104BC00000E020912A0530912B050217130708F009
:104BD0008DC050E040E0C301B2010E94042D2C0DB5
:104BE0003D1DAAEFB5E00E94382ADC01CB019058A8
:104BF000AF4FBF4FCD01BB2797FDB095AB2F8E3F79
:104C000041E0940708F04DC0482F8F3F910508F40C
:104C100067C0EEEFE81B8E2F60E04FEF282E312C9F
:104C2000C101B0E0A0E0DC019927882768A319A2A0
:104C300028A139A14901B12CA12C822B9929AA299B
:104C4000BB294AA31BA2EAA1FBA1AF0170E060E06F
:104C5000762F652F542F4427842B952BA62BB72B0B
:104C600089839A83AB83BC83DE011196ED91F0E0DA
:104C7000E65EFD4F2491CD010197FC0120832A8D32
:104C80003B8D2A173B0791F749815A816B817C81C3
:104C9000C8010E945F020F5F1F4F3FEF631A730A44
:104CA00090CF8C3FF3E09F0768F48D3F42E094077C
:104CB00028F462E0680F4FEF80E0B0CF4CEF481B64
:104CC0006FEFFACF8A3FE5E09E0769F06AEF681B55
:104CD0008B3FF4E09F0740F48C5F6FEF40E09ECF86
:104CE00060E08FEF9BCF60E040E0FBCF0E94750457
:104CF00063E070E080E090E00E94A91D4FEFD41ABD
:104D0000E40AF40AC114D10481E0E806F10409F0D0
:104D100053CF0E9497190E9427138091FE0490910F
:104D2000FF040E947B0B80910005909101050E9479
:104D30007B0B80910205909103050E947B0B809173
:104D40000405909105050E947B0B0E9477056093F6
:104D5000CC037093CD038093CE039093CF038AE569
:104D600093E00E943F1768EE73E080E090E00E94BD
:104D7000A91D0E9497190E9477050091CC031091FC
:104D8000CD032091CE033091CF03601B710B820BBA
:104D9000930B4AE00E942C166BE772E083E394E0E9
:104DA0000E941D1662E370E080E090E00E944505DD
:104DB0000E948606DECF80919505909196051A8A0D
:104DC0001B8A1C8A1D8A9A8389831C821B821C87EA
:104DD00085E790E09A8789871D861B87FE013196BB
:104DE0007F01CF010E94BB0D6836710581059105D9
:104DF00009F09ECD40E050E0BA0187E795E00E94BF
:104E00001210882309F494CD809195059091960510
:104E10001A8A1B8A1C8A1D8A9A8389831C821B8298
:104E20001C878CE190E09A8789871D861B87FF8A03
:104E3000EE8A82E0888F03E0098F42E050E060E074
:104E400070E0CE0146960E94EC0D80919505909100
:104E500096051A8A1B8A1C8A1D8A9A8389831C825A
:104E60001B821C878AE190E09A8789871D861B87B1
:104E7000FF8AEE8A088F198E44E050E060E070E00F
:104E8000CE0146960E94EC0D0E94770560932106A4
:104E900070932206809323069093240649CD8CEDCF
:104EA00094E00E94061080913105909132050E9495
:104EB000342880912E0590912F0597FD03C060E066
:104EC0000E945C038DE692E09093780580937705CD
:104ED0008091970590919805009739F0DC01ED914C
:104EE000FC910280F381E02D1995809199059091B4
:104EF0009A05009739F0DC01ED91FC910280F38175
:104F0000E02D199580919B0590919C05009739F0B3
:104F1000DC01ED91FC910280F381E02D19958091E7
:104F2000950590919605009711F00C9434280895FA
:104F30000F931F93CF93DF938230910510F482E09B
:104F400090E0E091BF0CF091C00C30E020E0B0E0C8
:104F5000A0E0309799F42115310509F44AC0281BC7
:104F6000390B24303105D8F58A819B816115710593
:104F700089F1FB0193838283FE0111C0408151813D
:104F80000281138148175907E0F04817590799F42F
:104F9000109761F012960C93129713961C93329609
:104FA000CF01DF91CF911F910F9108950093BF0C16
:104FB0001093C00CF4CF2115310551F0421753075F
:104FC00038F0A901DB019A01BD01DF01F801C1CF71
:104FD000EF01F9CF9093C00C8093BF0CCDCFFE01B1
:104FE000E20FF31F81939193225031093983288373
:104FF000D7CF2091BD0C3091BE0C232B41F42091D2
:105000000302309104023093BE0C2093BD0C20911A
:105010000102309102022115310541F42DB73EB74E
:105020004091050250910602241B350BE091BD0C06
:10503000F091BE0CE217F307A0F42E1B3F0B2817CC
:10504000390778F0AC014E5F5F4F2417350748F001
:105050004E0F5F1F5093BE0C4093BD0C81939193F4
:105060009FCFF0E0E0E09CCFCF93DF930097E9F093
:10507000FC01329713821282A091BF0CB091C00C38
:10508000ED0130E020E01097A1F420813181820F02
:10509000931F2091BD0C3091BE0C2817390709F0E1
:1050A00061C0F093BE0CE093BD0CDF91CF910895E9
:1050B000EA01CE17DF07E8F54A815B819E014115C1
:1050C0005105B1F7E901FB83EA8349915991C40F76
:1050D000D51FEC17FD0761F4808191810296840F42
:1050E000951FE90199838883828193819B838A83B9
:1050F000F0E0E0E012968D919C9113970097B9F53E
:105100002D913C911197CD010296820F931F209112
:10511000BD0C3091BE0C2817390739F6309751F580
:105120001092C00C1092BF0CB093BE0CA093BD0C9B
:10513000BCCFD383C28340815181840F951FC81790
:10514000D90761F44E5F5F4F88819981480F591FDD
:10515000518340838A819B8193838283211531050A
:1051600009F0B0CFF093C00CE093BF0C9ECFFD01CF
:10517000DC01C0CF13821282D7CFBB274A3031F473
:10518000992322F4BDE2909581959F4F0C94EB28D2
:10519000BB27FA01A62F6217710581059105330B14
:1051A00030FB66F0AA27660F771F881F991FAA1F7A
:1051B000A21710F0A21B63953850A9F7A05DAA337F
:1051C00008F0A95DA19336F7B111B1931082CA011D
:1051D0000C940429BB27FB015527AA27880F991F88
:1051E000AA1FA41710F0A41B83955051B9F7A05D16
:1051F000AA3308F0A95DA193009779F7B111B19393
:105200001192CB010C940429DC01FC01672F7191F0
:105210007723E1F7329704C07C916D93708362919C
:10522000AE17BF07C8F308950E94562908F481E01D
:105230000895E89409C097FB3EF490958095709589
:1052400061957F4F8F4F9F4F9923A9F0F92F96E9D2
:10525000BB279395F695879577956795B795F11147
:10526000F8CFFAF4BB0F11F460FF1BC06F5F7F4FE4
:105270008F4F9F4F16C0882311F096E911C07723F6
:1052800021F09EE8872F762F05C0662371F096E8FF
:10529000862F70E060E02AF09A95660F771F881FCE
:1052A000DAF7880F9695879597F90895990F000872
:1052B000550FAA0BE0E8FEEF16161706E807F907E8
:1052C000C0F012161306E407F50798F0621B730B83
:1052D000840B950B39F40A2661F0232B242B252B04
:1052E00021F408950A2609F4A140A6958FEF811DA7
:1052F000811D08950E948D290C94FE290E94F02999
:1053000038F00E94F72920F0952311F00C94E7293A
:105310000C94ED2911240C94322A0E940F2A70F368
:10532000959FC1F3950F50E0551F629FF001729F4A
:10533000BB27F00DB11D639FAA27F00DB11DAA1F59
:10534000649F6627B00DA11D661F829F2227B00DA6
:10535000A11D621F739FB00DA11D621F839FA00D31
:10536000611D221F749F3327A00D611D231F849F81
:10537000600D211D822F762F6A2F11249F575040D8
:105380009AF0F1F088234AF0EE0FFF1FBB1F661F53
:10539000771F881F91505040A9F79E3F510580F01C
:1053A0000C94E7290C94322A5F3FE4F3983ED4F33F
:1053B000869577956795B795F795E7959F5FC1F7C0
:1053C000FE2B880F911D9695879597F9089597F96B
:1053D0009F6780E870E060E008959FEF80EC08959B
:1053E00000240A94161617061806090608950024C4
:1053F0000A9412161306140605060895092E03943E
:10540000000C11F4882352F0BB0F40F4BF2B11F4B1
:1054100060FF04C06F5F7F4F8F4F9F4F089557FD10
:105420009058440F551F59F05F3F71F04795880F12
:1054300097FB991F61F09F3F79F0879508951216A9
:1054400013061406551FF2CF4695F1DF08C0161655
:1054500017061806991FF1CF869571056105089406
:105460000895E894BB2766277727CB0197F908951D
:10547000A29FB001B39FC001A39F700D811D112495
:10548000911DB29F700D811D1124911D08955058DA
:10549000BB27AA270E945F2A0C94FE290E94F029AC
:1054A00038F00E94F72920F039F49F3F19F426F4D0
:1054B0000C94ED290EF4E095E7FB0C94E729E92F15
:1054C0000E940F2A58F3BA176207730784079507DB
:1054D00020F079F4A6F50C94312A0EF4E0950B2E09
:1054E000BA2FA02D0B01B90190010C01CA01A00136
:1054F0001124FF27591B99F0593F50F4503E68F191
:105500001A16F040A22F232F342F4427585FF3CFD1
:10551000469537952795A795F0405395C9F77EF4A2
:105520001F16BA0B620B730B840BBAF09150A1F0EB
:10553000FF0FBB1F661F771F881FC2F70EC0BA0F71
:10554000621F731F841F48F4879577956795B795F9
:10555000F7959E3F08F0B0CF9395880F08F09927F4
:10556000EE0F9795879508950E94F02960F080E8E6
:1055700091E009F49EEF0E94F72928F040E851E0FD
:1055800071F45EEF0CC00C94ED290C94312AE92FD4
:10559000E0780E940F2A40F3092E052AB1F326175E
:1055A00037074807590738F00E2E07F8E02569F04D
:1055B000E025E0640AC0EF6307F8009407FADB0116
:1055C000B9019D01DC01CA01AD01EF930E943D2BA1
:1055D0000E94FE290E94F72A5F91552339F02BED96
:1055E0003FE049E450FD49EC0C94482A0895DF93CC
:1055F000DD27B92FBF7740E85FE316161706480787
:105600005B0718F4D92F0E945C2C9F938F937F9394
:105610006F930E94AA2CE4EEF0E00E94302C0E94CE
:10562000FE292F913F914F915F910E948D29DD239B
:1056300051F09058A2EA2AED3FE049EC5FE3D078C0
:105640005D270E945F2ADF910C94FE290E943A2B6D
:105650000C94FE290E94F72958F00E94F02940F08E
:1056600029F45F3F29F00C94E72951110C94322A58
:105670000C94ED290E940F2A68F39923B1F3552366
:1056800091F3951B550BBB27AA2762177307840755
:1056900038F09F5F5F4F220F331F441FAA1FA9F3EB
:1056A00035D00E2E3AF0E0E832D091505040E695D9
:1056B000001CCAF72BD0FE2F29D0660F771F881F3A
:1056C000BB1F261737074807AB07B0E809F0BB0B2D
:1056D000802DBF01FF2793585F4F3AF09E3F510541
:1056E00078F00C94E7290C94322A5F3FE4F3983E5B
:1056F000D4F3869577956795B795F7959F5FC9F72A
:10570000880F911D9695879597F90895E1E0660FAA
:10571000771F881FBB1F621773078407BA0720F023
:10572000621B730B840BBA0BEE1F88F7E09508958C
:105730000E949F2B6894B1110C94322A08950E9404
:10574000172A88F09F5798F0B92F9927B751B0F0D2
:10575000E1F0660F771F881F991F1AF0BA95C9F7F5
:1057600014C0B13091F00E94312AB1E008950C9438
:10577000312A672F782F8827B85F39F0B93FCCF3EB
:10578000869577956795B395D9F73EF49095809572
:10579000709561957F4F8F4F9F4F08950E94F0291C
:1057A00020F019F00E94F72950F40C94ED290C9484
:1057B000322AE92F0E940F2A88F35523B1F3E7FB21
:1057C0006217730784079507A8F189F3E92FFF276C
:1057D00088232AF03197660F771F881FDAF7952FF5
:1057E0005527442332F091505040220F331F441F5D
:1057F000D2F7BB27E91BF50B621B730B840BB109B6
:10580000B1F222F4620F731F841FB11D31972AF089
:10581000660F771F881FBB1FEFCF9150504062F07B
:1058200041F0882332F0660F771F881F9150504057
:10583000C1F793950C94222C8695779567959F5F79
:10584000D9F7F7CF9F3F31F0915020F487957795A6
:105850006795B795880F911D9695879597F9089547
:10586000DF93CF931F930F93FF92EF92DF927B0111
:105870008C01689406C0DA2EEF010E948D29FE018A
:10588000E894A5912591359145915591A6F3EF01A5
:105890000E945F2AFE019701A801DA9469F7DF9060
:1058A000EF90FF900F911F91CF91DF9108950E948B
:1058B000562908F48FEF08959B01AC0160E070E079
:1058C00080E89FE30C94262B19F416F40C94ED2930
:1058D0000C94222C0E94172AB8F39923C9F3B6F32B
:1058E0009F57550B87FF0E94B32C0024A0E640EA87
:1058F000900180585695979528F4805C660F771F25
:10590000881F20F026173707480730F4621B730BF7
:10591000840B202931294A2BA6951794079420251A
:1059200031254A2758F7660F771F881F20F0261762
:105930003707480730F4620B730B840B200D311DC1
:10594000411DA09581F7B901842F9158880F969534
:10595000879508959B01AC010C947A290E945629E1
:10596000880B990B089591505040660F771F881F40
:10597000D2F70895AA1BBB1B51E107C0AA1FBB1F8A
:10598000A617B70710F0A61BB70B881F991F5A95CB
:10599000A9F780959095BC01CD01089597FB072E3E
:1059A00016F4009407D077FD09D00E94BA2C07FCAA
:1059B00005D03EF4909581959F4F0895709561951F
:1059C0007F4F0895A1E21A2EAA1BBB1BFD010DC03B
:1059D000AA1FBB1FEE1FFF1FA217B307E407F5079F
:1059E00020F0A21BB30BE40BF50B661F771F881F7B
:1059F000991F1A9469F760957095809590959B0111
:105A0000AC01BD01CF010895052E97FB1EF4009453
:105A10000E941B2D57FD07D00E94E22C07FC03D0EB
:105A20004EF40C941B2D50954095309521953F4F89
:105A30004F4F5F4F089590958095709561957F4F7A
:105A40008F4F9F4F0895EE0FFF1F881F8BBF07904A
:105A5000F691E02D19944F925F926F927F928F9200
:105A60009F92AF92BF92CF92DF92EF92FF920F93ED
:105A70001F93CF93DF938C01009799F4CB01DF91B3
:105A8000CF911F910F91FF90EF90DF90CF90BF903B
:105A9000AF909F908F907F906F905F904F900C94FD
:105AA0009827FC01E60FF71F9C0122503109E217ED
:105AB000F30708F4AEC0D901CD91DC911197C61758
:105AC000D70720F1C530D10578F0CE0104978617AD
:105AD000970750F0C61BD70B2297C193D1936D93B4
